{
  "_format": "hh-sol-artifact-1",
  "contractName": "ACSOracle",
  "sourceName": "contracts/ACSOracle.sol",
  "abi": [
    {
      "inputs": [
        {
          "internalType": "address",
          "name": "_oracleSigner",
          "type": "address"
        }
      ],
      "stateMutability": "nonpayable",
      "type": "constructor"
    },
    {
      "inputs": [],
      "name": "ECDSAInvalidSignature",
      "type": "error"
    },
    {
      "inputs": [
        {
          "internalType": "uint256",
          "name": "length",
          "type": "uint256"
        }
      ],
      "name": "ECDSAInvalidSignatureLength",
      "type": "error"
    },
    {
      "inputs": [
        {
          "internalType": "bytes32",
          "name": "s",
          "type": "bytes32"
        }
      ],
      "name": "ECDSAInvalidSignatureS",
      "type": "error"
    },
    {
      "inputs": [
        {
          "internalType": "address",
          "name": "owner",
          "type": "address"
        }
      ],
      "name": "OwnableInvalidOwner",
      "type": "error"
    },
    {
      "inputs": [
        {
          "internalType": "address",
          "name": "account",
          "type": "address"
        }
      ],
      "name": "OwnableUnauthorizedAccount",
      "type": "error"
    },
    {
      "anonymous": false,
      "inputs": [
        {
          "indexed": false,
          "internalType": "bytes32",
          "name": "digest",
          "type": "bytes32"
        },
        {
          "indexed": false,
          "internalType": "address",
          "name": "recovered",
          "type": "address"
        },
        {
          "indexed": false,
          "internalType": "address",
          "name": "expected",
          "type": "address"
        }
      ],
      "name": "DebugDigest",
      "type": "event"
    },
    {
      "anonymous": false,
      "inputs": [
        {
          "indexed": true,
          "internalType": "address",
          "name": "oldSigner",
          "type": "address"
        },
        {
          "indexed": true,
          "internalType": "address",
          "name": "newSigner",
          "type": "address"
        }
      ],
      "name": "OracleSignerChanged",
      "type": "event"
    },
    {
      "anonymous": false,
      "inputs": [
        {
          "indexed": true,
          "internalType": "address",
          "name": "previousOwner",
          "type": "address"
        },
        {
          "indexed": true,
          "internalType": "address",
          "name": "newOwner",
          "type": "address"
        }
      ],
      "name": "OwnershipTransferred",
      "type": "event"
    },
    {
      "anonymous": false,
      "inputs": [
        {
          "indexed": true,
          "internalType": "bytes32",
          "name": "agentDID",
          "type": "bytes32"
        },
        {
          "indexed": false,
          "internalType": "uint256",
          "name": "score",
          "type": "uint256"
        },
        {
          "indexed": false,
          "internalType": "uint256",
          "name": "timestamp",
          "type": "uint256"
        },
        {
          "indexed": false,
          "internalType": "uint256",
          "name": "expiry",
          "type": "uint256"
        }
      ],
      "name": "ScoreUpdated",
      "type": "event"
    },
    {
      "inputs": [],
      "name": "MAX_SCORE",
      "outputs": [
        {
          "internalType": "uint256",
          "name": "",
          "type": "uint256"
        }
      ],
      "stateMutability": "view",
      "type": "function"
    },
    {
      "inputs": [],
      "name": "MIN_SCORE",
      "outputs": [
        {
          "internalType": "uint256",
          "name": "",
          "type": "uint256"
        }
      ],
      "stateMutability": "view",
      "type": "function"
    },
    {
      "inputs": [],
      "name": "SCORE_VALIDITY",
      "outputs": [
        {
          "internalType": "uint256",
          "name": "",
          "type": "uint256"
        }
      ],
      "stateMutability": "view",
      "type": "function"
    },
    {
      "inputs": [
        {
          "internalType": "bytes32",
          "name": "",
          "type": "bytes32"
        }
      ],
      "name": "agentScores",
      "outputs": [
        {
          "internalType": "uint256",
          "name": "score",
          "type": "uint256"
        },
        {
          "internalType": "uint256",
          "name": "timestamp",
          "type": "uint256"
        },
        {
          "internalType": "uint256",
          "name": "expiry",
          "type": "uint256"
        },
        {
          "internalType": "bytes",
          "name": "signature",
          "type": "bytes"
        }
      ],
      "stateMutability": "view",
      "type": "function"
    },
    {
      "inputs": [
        {
          "internalType": "bytes32",
          "name": "agentDID",
          "type": "bytes32"
        },
        {
          "internalType": "uint256",
          "name": "score",
          "type": "uint256"
        },
        {
          "internalType": "uint256",
          "name": "timestamp",
          "type": "uint256"
        },
        {
          "internalType": "uint256",
          "name": "expiry",
          "type": "uint256"
        }
      ],
      "name": "computeDigest",
      "outputs": [
        {
          "internalType": "bytes32",
          "name": "",
          "type": "bytes32"
        }
      ],
      "stateMutability": "pure",
      "type": "function"
    },
    {
      "inputs": [
        {
          "internalType": "bytes32",
          "name": "agentDID",
          "type": "bytes32"
        }
      ],
      "name": "getScore",
      "outputs": [
        {
          "internalType": "uint256",
          "name": "score",
          "type": "uint256"
        },
        {
          "internalType": "uint256",
          "name": "timestamp",
          "type": "uint256"
        },
        {
          "internalType": "uint256",
          "name": "expiry",
          "type": "uint256"
        }
      ],
      "stateMutability": "view",
      "type": "function"
    },
    {
      "inputs": [
        {
          "internalType": "bytes32",
          "name": "agentDID",
          "type": "bytes32"
        }
      ],
      "name": "hasValidScore",
      "outputs": [
        {
          "internalType": "bool",
          "name": "",
          "type": "bool"
        }
      ],
      "stateMutability": "view",
      "type": "function"
    },
    {
      "inputs": [
        {
          "internalType": "bytes32",
          "name": "agentDID",
          "type": "bytes32"
        }
      ],
      "name": "invalidateScore",
      "outputs": [],
      "stateMutability": "nonpayable",
      "type": "function"
    },
    {
      "inputs": [],
      "name": "oracleSigner",
      "outputs": [
        {
          "internalType": "address",
          "name": "",
          "type": "address"
        }
      ],
      "stateMutability": "view",
      "type": "function"
    },
    {
      "inputs": [],
      "name": "owner",
      "outputs": [
        {
          "internalType": "address",
          "name": "",
          "type": "address"
        }
      ],
      "stateMutability": "view",
      "type": "function"
    },
    {
      "inputs": [],
      "name": "renounceOwnership",
      "outputs": [],
      "stateMutability": "nonpayable",
      "type": "function"
    },
    {
      "inputs": [
        {
          "internalType": "address",
          "name": "newSigner",
          "type": "address"
        }
      ],
      "name": "setOracleSigner",
      "outputs": [],
      "stateMutability": "nonpayable",
      "type": "function"
    },
    {
      "inputs": [
        {
          "internalType": "bytes32",
          "name": "agentDID",
          "type": "bytes32"
        },
        {
          "internalType": "uint256",
          "name": "score",
          "type": "uint256"
        },
        {
          "internalType": "uint256",
          "name": "timestamp",
          "type": "uint256"
        },
        {
          "internalType": "uint256",
          "name": "expiry",
          "type": "uint256"
        },
        {
          "internalType": "bytes",
          "name": "signature",
          "type": "bytes"
        }
      ],
      "name": "setScore",
      "outputs": [],
      "stateMutability": "nonpayable",
      "type": "function"
    },
    {
      "inputs": [
        {
          "internalType": "address",
          "name": "newOwner",
          "type": "address"
        }
      ],
      "name": "transferOwnership",
      "outputs": [],
      "stateMutability": "nonpayable",
      "type": "function"
    }
  ],
  "bytecode": "0x60803461010e57601f610e3338819003918201601f19168301916001600160401b038311848410176101125780849260209460405283398101031261010e57516001600160a01b038082169182900361010e5733156100f6575f549060018060a01b03199133838216175f55604051913391167f8be0079c531659141344cd1fd0a4f28419497f9722a3daafe3b4186f6b6457e05f80a382156100b457506001541617600155604051610d0c90816101278239f35b62461bcd60e51b815260206004820152601560248201527f496e76616c6964206f7261636c65207369676e657200000000000000000000006044820152606490fd5b604051631e4fbdf760e01b81525f6004820152602490fd5b5f80fd5b634e487b7160e01b5f52604160045260245ffdfe6080604081815260049182361015610015575f80fd5b5f3560e01c9081631709a61b1461094657508063264a88d3146108d357806327ff6223146108b757806328bff9db1461080857806340b89270146107ec57806342527f5b146107535780635d0dfa3914610737578063715018a6146106e05780637ba53285146106a15780638da5cb5b1461067a578063b50e7e4d1461062c578063c11e9958146105af578063ef87f8811461014b5763f2fde38b146100b9575f80fd5b34610147576020366003190112610147576001600160a01b03823581811693919290849003610147576100ea610b61565b83156101315750505f54826bffffffffffffffffffffffff60a01b8216175f55167f8be0079c531659141344cd1fd0a4f28419497f9722a3daafe3b4186f6b6457e05f80a3005b905f6024925191631e4fbdf760e01b8352820152fd5b5f80fd5b5090346101475760a03660031901126101475780359060249283359060449485359360649182359760843567ffffffffffffffff9485821161014757366023830112156101475781850135928684116101475784830192858536920101116101475761012c891015806105a3575b1561056e57428a1161053c57428c111561050b57898c038c81116104f9576104b0106104c957916102739593918995938c8e6102298e61021b8e5193849260209d8e850197889290916080949284526020840152604083015260608201520190565b03601f1981018352826109d1565b5190207f19457468657265756d205369676e6564204d6573736167653a0a3332000000005f52601c5261026a603c5f20610264368787610b1b565b90610b8c565b90999199610bc6565b6001805490986001600160a01b03918216911603610497578c5f5260028752878a5f2001548c111561046b575050899695949392918c6102d16003938b51936102bb856109a1565b8d85528885019b8c528c85019384523691610b1b565b9860608301998a528d5f52600287528a5f2092518355518783015551600282015501955191825195861161045a57505061030b8554610969565b601f8111610421575b5081601f8511600114610393575092807f7e6fb02d2c22a3485a96a0d9dfd2f3855c21e802c30972d597dc4975f488196d999a9593819361038398965f94610388575b50501b915f199060031b1c19161790555b51938493846040919493926060820195825260208201520152565b0390a2005b015192505f80610357565b9190601f949394198416865f52835f20935f905b82821061040a5750509161038397959391857f7e6fb02d2c22a3485a96a0d9dfd2f3855c21e802c30972d597dc4975f488196d9c9d989694106103f2575b505050811b019055610368565b01515f1960f88460031b161c191690555f80806103e5565b8088869782949787015181550196019401906103a7565b61044a90865f52835f20601f870160051c810191858810610450575b601f0160051c0190610b05565b5f610314565b909150819061043d565b604190634e487b7160e01b5f52525ffd5b6a5374616c652073636f726560a81b8691600b878a8e519562461bcd60e51b8752860152840152820152fd5b70496e76616c6964207369676e617475726560781b86916011878a8e519562461bcd60e51b8752860152840152820152fd5b6d22bc3834b93c903a37b7903330b960911b8691600e8760208c519562461bcd60e51b8752860152840152820152fd5b85601188634e487b7160e01b5f52525ffd5b6e105b1c9958591e48195e1c1a5c9959608a1b8691600f8760208c519562461bcd60e51b8752860152840152820152fd5b6f04675747572652074696d657374616d760841b869160108760208c519562461bcd60e51b8752860152840152820152fd5b72496e76616c69642073636f72652072616e676560681b869160138760208c519562461bcd60e51b8752860152840152820152fd5b506103848911156101b9565b5034610147576020366003190112610147576003916105cc610b61565b355f5260026020525f205f81555f60018201555f6002820155016105f08154610969565b90816105f857005b81601f5f9311600114610609575055005b908083918252610628601f60208420940160051c840160018501610b05565b5555005b503461014757608036600319011261014757805191356020838101918252602435604085015260443560608501526064356080850152926106708160a0810161021b565b5190209051908152f35b5034610147575f366003190112610147575f5490516001600160a01b039091168152602090f35b5034610147576020366003190112610147576106c06106dc9235610a95565b9251918252602082015260408101919091529081906060820190565b0390f35b34610147575f366003190112610147576106f8610b61565b5f80546001600160a01b0319811682556001600160a01b03167f8be0079c531659141344cd1fd0a4f28419497f9722a3daafe3b4186f6b6457e08280a3005b5034610147575f36600319011261014757602090516104b08152f35b503461014757602091602060031936011261014757355f526002602052805f209182549060018401549361078e6003600283015492016109f3565b93805195869485526020850152830152608060608301528251908160808401525f935b8285106107d357505060a092505f838284010152601f80199101168101030190f35b84810182015186860160a00152938101938593506107b1565b5034610147575f366003190112610147576020905161012c8152f35b5034610147576020366003190112610147576001600160a01b038235818116939192908490036101475761083a610b61565b8315610883575050600154826bffffffffffffffffffffffff60a01b821617600155167f9275b597b6188dcd901ecae14175fd5b02a5c9dee8bcce5af021f420af6cd1a35f80a3005b906020606492519162461bcd60e51b8352820152600e60248201526d24b73b30b634b21039b4b3b732b960911b6044820152fd5b5034610147575f36600319011261014757602090516103848152f35b503461014757602036600319011261014757602091355f5260028252805f20908051916108ff836109a1565b805483526001810154848401526109236003600283015492848601938452016109f3565b6060840152514210918261093b575b50519015158152f35b51151591505f610932565b34610147575f366003190112610147576001546001600160a01b03168152602090f35b90600182811c92168015610997575b602083101461098357565b634e487b7160e01b5f52602260045260245ffd5b91607f1691610978565b6080810190811067ffffffffffffffff8211176109bd57604052565b634e487b7160e01b5f52604160045260245ffd5b90601f8019910116810190811067ffffffffffffffff8211176109bd57604052565b9060405191825f8254610a0581610969565b908184526020946001916001811690815f14610a735750600114610a35575b505050610a33925003836109d1565b565b5f90815285812095935091905b818310610a5b575050610a3393508201015f8080610a24565b85548884018501529485019487945091830191610a42565b92505050610a3394925060ff191682840152151560051b8201015f8080610a24565b5f52600260205260405f20604051610aac816109a1565b8154815260018201549160208201928352610ad5600360028301549260408501938452016109f3565b6060830152519042821180610afb575b610af4575050505f905f905f90565b5191519192565b5080511515610ae5565b818110610b10575050565b5f8155600101610b05565b92919267ffffffffffffffff82116109bd5760405191610b45601f8201601f1916602001846109d1565b829481845281830111610147578281602093845f960137010152565b5f546001600160a01b03163303610b7457565b60405163118cdaa760e01b8152336004820152602490fd5b8151919060418303610bbc57610bb59250602082015190606060408401519301515f1a90610c49565b9192909190565b50505f9160029190565b6004811015610c355780610bd8575050565b60018103610bf25760405163f645eedf60e01b8152600490fd5b60028103610c135760405163fce698f760e01b815260048101839052602490fd5b600314610c1d5750565b602490604051906335e2f38360e21b82526004820152fd5b634e487b7160e01b5f52602160045260245ffd5b91907f7fffffffffffffffffffffffffffffff5d576e7357a4501ddfe92f46681b20a08411610ccb579160209360809260ff5f9560405194855216868401526040830152606082015282805260015afa15610cc0575f516001600160a01b03811615610cb657905f905f90565b505f906001905f90565b6040513d5f823e3d90fd5b5050505f916003919056fea26469706673582212202c3c94d7aa89d09a4f1dc631999cd8f8a3eda5bb2337c07f036afb59b8608ac664736f6c63430008180033",
  "linkReferences": {},
  "deployedLinkReferences": {}
}