{"contracts/CollateralManager.sol":{"CollateralManager":{"abi":[{"inputs":[],"stateMutability":"nonpayable","type":"constructor"},{"inputs":[{"internalType":"address","name":"owner","type":"address"}],"name":"OwnableInvalidOwner","type":"error"},{"inputs":[{"internalType":"address","name":"account","type":"address"}],"name":"OwnableUnauthorizedAccount","type":"error"},{"inputs":[],"name":"ReentrancyGuardReentrantCall","type":"error"},{"inputs":[{"internalType":"address","name":"token","type":"address"}],"name":"SafeERC20FailedOperation","type":"error"},{"anonymous":false,"inputs":[{"indexed":true,"internalType":"bytes32","name":"agentDID","type":"bytes32"},{"indexed":true,"internalType":"address","name":"token","type":"address"},{"indexed":false,"internalType":"uint256","name":"amount","type":"uint256"}],"name":"CollateralDeposited","type":"event"},{"anonymous":false,"inputs":[{"indexed":true,"internalType":"bytes32","name":"agentDID","type":"bytes32"},{"indexed":true,"internalType":"address","name":"token","type":"address"},{"indexed":false,"internalType":"uint256","name":"amount","type":"uint256"},{"indexed":true,"internalType":"address","name":"liquidator","type":"address"}],"name":"CollateralSeized","type":"event"},{"anonymous":false,"inputs":[{"indexed":true,"internalType":"address","name":"token","type":"address"},{"indexed":false,"internalType":"bool","name":"active","type":"bool"}],"name":"CollateralTokenUpdated","type":"event"},{"anonymous":false,"inputs":[{"indexed":true,"internalType":"bytes32","name":"agentDID","type":"bytes32"},{"indexed":true,"internalType":"address","name":"token","type":"address"},{"indexed":false,"internalType":"uint256","name":"amount","type":"uint256"}],"name":"CollateralWithdrawn","type":"event"},{"anonymous":false,"inputs":[{"indexed":true,"internalType":"address","name":"previousOwner","type":"address"},{"indexed":true,"internalType":"address","name":"newOwner","type":"address"}],"name":"OwnershipTransferred","type":"event"},{"inputs":[],"name":"LIQUIDATION_PENALTY_BPS","outputs":[{"internalType":"uint256","name":"","type":"uint256"}],"stateMutability":"view","type":"function"},{"inputs":[],"name":"MAX_COLLATERAL_TOKENS","outputs":[{"internalType":"uint256","name":"","type":"uint256"}],"stateMutability":"view","type":"function"},{"inputs":[],"name":"activeTokenCount","outputs":[{"internalType":"uint256","name":"","type":"uint256"}],"stateMutability":"view","type":"function"},{"inputs":[{"internalType":"uint256","name":"loanAmount","type":"uint256"},{"internalType":"uint256","name":"score","type":"uint256"}],"name":"calculateRequiredCollateral","outputs":[{"internalType":"uint256","name":"","type":"uint256"}],"stateMutability":"view","type":"function"},{"inputs":[{"internalType":"bytes32","name":"","type":"bytes32"},{"internalType":"address","name":"","type":"address"}],"name":"collateralBalances","outputs":[{"internalType":"uint256","name":"","type":"uint256"}],"stateMutability":"view","type":"function"},{"inputs":[{"internalType":"uint256","name":"","type":"uint256"}],"name":"collateralRatios","outputs":[{"internalType":"uint256","name":"","type":"uint256"}],"stateMutability":"view","type":"function"},{"inputs":[{"internalType":"address","name":"","type":"address"}],"name":"collateralTokens","outputs":[{"internalType":"contract IERC20","name":"token","type":"address"},{"internalType":"bool","name":"active","type":"bool"},{"internalType":"uint256","name":"decimals","type":"uint256"}],"stateMutability":"view","type":"function"},{"inputs":[{"internalType":"bytes32","name":"agentDID","type":"bytes32"},{"internalType":"address","name":"token","type":"address"},{"internalType":"uint256","name":"amount","type":"uint256"}],"name":"depositCollateral","outputs":[],"stateMutability":"nonpayable","type":"function"},{"inputs":[{"internalType":"bytes32","name":"agentDID","type":"bytes32"},{"internalType":"address","name":"token","type":"address"}],"name":"getCollateralBalance","outputs":[{"internalType":"uint256","name":"","type":"uint256"}],"stateMutability":"view","type":"function"},{"inputs":[{"internalType":"uint256","name":"score","type":"uint256"}],"name":"getCollateralRatio","outputs":[{"internalType":"uint256","name":"","type":"uint256"}],"stateMutability":"view","type":"function"},{"inputs":[{"internalType":"address","name":"token","type":"address"}],"name":"getTotalCollateral","outputs":[{"internalType":"uint256","name":"","type":"uint256"}],"stateMutability":"view","type":"function"},{"inputs":[],"name":"lendingPool","outputs":[{"internalType":"address","name":"","type":"address"}],"stateMutability":"view","type":"function"},{"inputs":[],"name":"owner","outputs":[{"internalType":"address","name":"","type":"address"}],"stateMutability":"view","type":"function"},{"inputs":[{"internalType":"bytes32","name":"agentDID","type":"bytes32"},{"internalType":"address","name":"token","type":"address"},{"internalType":"uint256","name":"amount","type":"uint256"},{"internalType":"address","name":"recipient","type":"address"}],"name":"releaseCollateral","outputs":[],"stateMutability":"nonpayable","type":"function"},{"inputs":[],"name":"renounceOwnership","outputs":[],"stateMutability":"nonpayable","type":"function"},{"inputs":[{"internalType":"uint256","name":"","type":"uint256"}],"name":"scoreThresholds","outputs":[{"internalType":"uint256","name":"","type":"uint256"}],"stateMutability":"view","type":"function"},{"inputs":[{"internalType":"bytes32","name":"agentDID","type":"bytes32"},{"internalType":"address","name":"token","type":"address"},{"internalType":"uint256","name":"amount","type":"uint256"},{"internalType":"address","name":"liquidator","type":"address"}],"name":"seizeCollateral","outputs":[],"stateMutability":"nonpayable","type":"function"},{"inputs":[{"internalType":"address","name":"token","type":"address"},{"internalType":"bool","name":"active","type":"bool"}],"name":"setCollateralToken","outputs":[],"stateMutability":"nonpayable","type":"function"},{"inputs":[{"internalType":"address","name":"_lendingPool","type":"address"}],"name":"setLendingPool","outputs":[],"stateMutability":"nonpayable","type":"function"},{"inputs":[{"internalType":"address","name":"","type":"address"}],"name":"totalCollateral","outputs":[{"internalType":"uint256","name":"","type":"uint256"}],"stateMutability":"view","type":"function"},{"inputs":[{"internalType":"address","name":"newOwner","type":"address"}],"name":"transferOwnership","outputs":[],"stateMutability":"nonpayable","type":"function"},{"inputs":[{"internalType":"bytes32","name":"agentDID","type":"bytes32"},{"internalType":"address","name":"token","type":"address"},{"internalType":"uint256","name":"amount","type":"uint256"}],"name":"withdrawCollateral","outputs":[],"stateMutability":"nonpayable","type":"function"}],"evm":{"bytecode":{"linkReferences":{},"object":"6101006040526103e860809081526105dc60a0526109c460c052610fa060e0526200002e906004908162000121565b506040805160808101825261038481526102bc60208201526101f49181019190915261012c60608201526200006890600890600462000121565b5034801562000075575f80fd5b5033806200009c57604051631e4fbdf760e01b81525f600482015260240160405180910390fd5b620000a781620000d2565b5060017f9b779b17422d0df92223018b32b4d1fa46e071723d6817e2486d003becc55f005562000180565b5f80546001600160a01b038381166001600160a01b0319831681178455604051919092169283917f8be0079c531659141344cd1fd0a4f28419497f9722a3daafe3b4186f6b6457e09190a35050565b826004810192821562000158579160200282015b8281111562000158578251829061ffff1690559160200191906001019062000135565b50620001669291506200016a565b5090565b5b8082111562000166575f81556001016200016b565b6112ab806200018e5f395ff3fe608060405234801561000f575f80fd5b506004361061013d575f3560e01c80638722d161116100b4578063cffbc29711610079578063cffbc297146102ba578063db35400d1461031b578063e6d1db8a1461032e578063f2fde38b14610341578063f6f45eba14610354578063fc54ddfb1461035c575f80fd5b80638722d161146102545780638b68e038146102675780638da5cb5b14610270578063a59a997314610294578063b7b22e45146102a7575f80fd5b80635fd1a5f5116101055780635fd1a5f5146101b557806360a98b80146101c8578063618c8a58146101f0578063715018a6146102035780637e059b221461020b578063822370bb1461022a575f80fd5b8063113aa8b11461014157806323a740ae14610156578063283add031461017c5780632d310a371461018f57806352cccdb3146101a2575b5f80fd5b61015461014f366004610fff565b610365565b005b61016961016436600461101f565b6103dc565b6040519081526020015b60405180910390f35b61016961018a366004611036565b6103f2565b61016961019d36600461101f565b61041b565b6101546101b0366004611060565b61048c565b6101696101c3366004611092565b6105e0565b6101696101d6366004610fff565b6001600160a01b03165f9081526003602052604090205490565b6101696101fe36600461101f565b61060c565b61015461061b565b610169610219366004610fff565b60036020525f908152604090205481565b610169610238366004611036565b600260209081525f928352604080842090915290825290205481565b6101546102623660046110b2565b61062e565b610169600c5481565b5f546001600160a01b03165b6040516001600160a01b039091168152602001610173565b600d5461027c906001600160a01b031681565b6101546102b53660046110b2565b61082a565b6102f66102c8366004610fff565b600160208190525f918252604090912080549101546001600160a01b03821691600160a01b900460ff169083565b604080516001600160a01b039094168452911515602084015290820152606001610173565b610154610329366004611060565b610a1f565b61015461033c3660046110f5565b610bbd565b61015461034f366004610fff565b610da8565b610169600581565b6101696103e881565b61036d610de5565b6001600160a01b0381166103ba5760405162461bcd60e51b815260206004820152600f60248201526e496e76616c6964206164647265737360881b60448201526064015b60405180910390fd5b600d80546001600160a01b0319166001600160a01b0392909216919091179055565b600481600481106103eb575f80fd5b0154905081565b5f8281526002602090815260408083206001600160a01b03851684529091529020545b92915050565b5f805b6004811015610466576008816004811061043a5761043a61112e565b0154831061045e57600481600481106104555761045561112e565b01549392505050565b60010161041e565b506004610474600182611156565b600481106104845761048461112e565b015492915050565b610494610e11565b5f81116104b35760405162461bcd60e51b81526004016103b190611169565b6001600160a01b0382165f9081526001602052604090208054600160a01b900460ff166104f25760405162461bcd60e51b81526004016103b190611195565b8054610509906001600160a01b0316333085610e2c565b5f8481526002602090815260408083206001600160a01b03871684529091529020546105369083906111bf565b5f8581526002602090815260408083206001600160a01b038816845282528083209390935560039052205461056c9083906111bf565b6001600160a01b0384165f818152600360205260409081902092909255905185907f1eaa3c7e4504a558b82af8aad514e144b09bc2eca413ceef6d6ba6260f772f16906105bc9086815260200190565b60405180910390a3506105db60015f8051602061125683398151915255565b505050565b5f806105eb8361041b565b90506127106105fa82866111d2565b61060491906111e9565b949350505050565b600881600481106103eb575f80fd5b610623610de5565b61062c5f610e62565b565b610636610e11565b600d546001600160a01b031633146106835760405162461bcd60e51b815260206004820152601060248201526f13db9b1e4813195b991a5b99d41bdbdb60821b60448201526064016103b1565b5f82116106a25760405162461bcd60e51b81526004016103b190611169565b6001600160a01b0383165f9081526001602052604090208054600160a01b900460ff166106e15760405162461bcd60e51b81526004016103b190611195565b5f8581526002602090815260408083206001600160a01b03881684529091529020548381101561075e5760405162461bcd60e51b815260206004820152602260248201527f496e73756666696369656e7420636f6c6c61746572616c20746f2072656c6561604482015261736560f01b60648201526084016103b1565b6107688482611156565b5f8781526002602090815260408083206001600160a01b038a16845282528083209390935560039052205461079e908590611156565b6001600160a01b038087165f9081526003602052604090209190915582546107c891168486610eb1565b846001600160a01b0316867f4efbc29de7c8b1b6c53124af4584e5f62230ba8540d4a1ca32dc458284be9bbe8660405161080491815260200190565b60405180910390a3505061082460015f8051602061125683398151915255565b50505050565b610832610e11565b600d546001600160a01b0316331461087f5760405162461bcd60e51b815260206004820152601060248201526f13db9b1e4813195b991a5b99d41bdbdb60821b60448201526064016103b1565b5f821161089e5760405162461bcd60e51b81526004016103b190611169565b6001600160a01b0383165f9081526001602052604090208054600160a01b900460ff166108dd5760405162461bcd60e51b81526004016103b190611195565b5f8581526002602090815260408083206001600160a01b03881684529091529020548381101561094f5760405162461bcd60e51b815260206004820181905260248201527f496e73756666696369656e7420636f6c6c61746572616c20746f207365697a6560448201526064016103b1565b6109598482611156565b5f8781526002602090815260408083206001600160a01b038a16845282528083209390935560039052205461098f908590611156565b6001600160a01b038087165f9081526003602052604090209190915582546109b991168486610eb1565b826001600160a01b0316856001600160a01b0316877fabd507831c67a08a37e70b677be49c560109868e94da38eada7d15f2269354f6876040516109ff91815260200190565b60405180910390a4505061082460015f8051602061125683398151915255565b610a27610e11565b5f8111610a465760405162461bcd60e51b81526004016103b190611169565b6001600160a01b0382165f9081526001602052604090208054600160a01b900460ff16610a855760405162461bcd60e51b81526004016103b190611195565b5f8481526002602090815260408083206001600160a01b038716845290915290205482811015610af75760405162461bcd60e51b815260206004820152601f60248201527f496e73756666696369656e7420636f6c6c61746572616c2062616c616e63650060448201526064016103b1565b610b018382611156565b5f8681526002602090815260408083206001600160a01b0389168452825280832093909355600390522054610b37908490611156565b6001600160a01b038086165f908152600360205260409020919091558254610b6191163385610eb1565b836001600160a01b0316857f4efbc29de7c8b1b6c53124af4584e5f62230ba8540d4a1ca32dc458284be9bbe85604051610b9d91815260200190565b60405180910390a350506105db60015f8051602061125683398151915255565b610bc5610de5565b6001600160a01b038216610c0b5760405162461bcd60e51b815260206004820152600d60248201526c24b73b30b634b2103a37b5b2b760991b60448201526064016103b1565b6001600160a01b0382165f908152600160205260409020818015610c3857508054600160a01b900460ff16155b15610d23576005600c5410610c845760405162461bcd60e51b815260206004820152601260248201527113585e081d1bdad95b9cc81c995858da195960721b60448201526064016103b1565b80546001600160a81b0319166001600160a01b038416908117600160a01b1782556040805163313ce56760e01b8152905163313ce567916004808201926020929091908290030181865afa158015610cde573d5f803e3d5ffd5b505050506040513d601f19601f82011682018060405250810190610d029190611208565b60ff166001820155600c8054905f610d1983611228565b9190505550610d5e565b81158015610d3957508054600160a01b900460ff165b15610d5e57805460ff60a01b19168155600c8054905f610d5883611240565b91905055505b826001600160a01b03167fa8465fce7714e145603abc61f76c96665912ca5d2f9b7dd67f27349d83294d6283604051610d9b911515815260200190565b60405180910390a2505050565b610db0610de5565b6001600160a01b038116610dd957604051631e4fbdf760e01b81525f60048201526024016103b1565b610de281610e62565b50565b5f546001600160a01b0316331461062c5760405163118cdaa760e01b81523360048201526024016103b1565b610e19610ee6565b60025f8051602061125683398151915255565b610e3a848484846001610f15565b61082457604051635274afe760e01b81526001600160a01b03851660048201526024016103b1565b5f80546001600160a01b038381166001600160a01b0319831681178455604051919092169283917f8be0079c531659141344cd1fd0a4f28419497f9722a3daafe3b4186f6b6457e09190a35050565b610ebe8383836001610f82565b6105db57604051635274afe760e01b81526001600160a01b03841660048201526024016103b1565b5f805160206112568339815191525460020361062c57604051633ee5aeb560e01b815260040160405180910390fd5b6040516323b872dd60e01b5f8181526001600160a01b038781166004528616602452604485905291602083606481808c5af1925060015f51148316610f71578383151615610f65573d5f823e3d81fd5b5f883b113d1516831692505b604052505f60605295945050505050565b60405163a9059cbb60e01b5f8181526001600160a01b038616600452602485905291602083604481808b5af1925060015f51148316610fd8578383151615610fcc573d5f823e3d81fd5b5f873b113d1516831692505b60405250949350505050565b80356001600160a01b0381168114610ffa575f80fd5b919050565b5f6020828403121561100f575f80fd5b61101882610fe4565b9392505050565b5f6020828403121561102f575f80fd5b5035919050565b5f8060408385031215611047575f80fd5b8235915061105760208401610fe4565b90509250929050565b5f805f60608486031215611072575f80fd5b8335925061108260208501610fe4565b9150604084013590509250925092565b5f80604083850312156110a3575f80fd5b50508035926020909101359150565b5f805f80608085870312156110c5575f80fd5b843593506110d560208601610fe4565b9250604085013591506110ea60608601610fe4565b905092959194509250565b5f8060408385031215611106575f80fd5b61110f83610fe4565b915060208301358015158114611123575f80fd5b809150509250929050565b634e487b7160e01b5f52603260045260245ffd5b634e487b7160e01b5f52601160045260245ffd5b8181038181111561041557610415611142565b6020808252601290820152710416d6f756e74206d757374206265203e20360741b604082015260600190565b60208082526010908201526f546f6b656e206e6f742061637469766560801b604082015260600190565b8082018082111561041557610415611142565b808202811582820484141761041557610415611142565b5f8261120357634e487b7160e01b5f52601260045260245ffd5b500490565b5f60208284031215611218575f80fd5b815160ff81168114611018575f80fd5b5f6001820161123957611239611142565b5060010190565b5f8161124e5761124e611142565b505f19019056fe9b779b17422d0df92223018b32b4d1fa46e071723d6817e2486d003becc55f00a26469706673582212205d495e45d97a64b2aa84e8cf421aa0af0fb00b1de3ca7d8e5f605d5d852eb6dd64736f6c63430008180033","opcodes":"PUSH2 0x100 PUSH1 0x40 MSTORE PUSH2 0x3E8 PUSH1 0x80 SWAP1 DUP2 MSTORE PUSH2 0x5DC PUSH1 0xA0 MSTORE PUSH2 0x9C4 PUSH1 0xC0 MSTORE PUSH2 0xFA0 PUSH1 0xE0 MSTORE PUSH3 0x2E SWAP1 PUSH1 0x4 SWAP1 DUP2 PUSH3 0x121 JUMP JUMPDEST POP PUSH1 0x40 DUP1 MLOAD PUSH1 0x80 DUP2 ADD DUP3 MSTORE PUSH2 0x384 DUP2 MSTORE PUSH2 0x2BC PUSH1 0x20 DUP3 ADD MSTORE PUSH2 0x1F4 SWAP2 DUP2 ADD SWAP2 SWAP1 SWAP2 MSTORE PUSH2 0x12C PUSH1 0x60 DUP3 ADD MSTORE PUSH3 0x68 SWAP1 PUSH1 0x8 SWAP1 PUSH1 0x4 PUSH3 0x121 JUMP JUMPDEST POP CALLVALUE DUP1 ISZERO PUSH3 0x75 JUMPI PUSH0 DUP1 REVERT JUMPDEST POP CALLER DUP1 PUSH3 0x9C JUMPI PUSH1 0x40 MLOAD PUSH4 0x1E4FBDF7 PUSH1 0xE0 SHL DUP2 MSTORE PUSH0 PUSH1 0x4 DUP3 ADD MSTORE PUSH1 0x24 ADD PUSH1 0x40 MLOAD DUP1 SWAP2 SUB SWAP1 REVERT JUMPDEST PUSH3 0xA7 DUP2 PUSH3 0xD2 JUMP JUMPDEST POP PUSH1 0x1 PUSH32 0x9B779B17422D0DF92223018B32B4D1FA46E071723D6817E2486D003BECC55F00 SSTORE PUSH3 0x180 JUMP JUMPDEST PUSH0 DUP1 SLOAD PUSH1 0x1 PUSH1 0x1 PUSH1 0xA0 SHL SUB DUP4 DUP2 AND PUSH1 0x1 PUSH1 0x1 PUSH1 0xA0 SHL SUB NOT DUP4 AND DUP2 OR DUP5 SSTORE PUSH1 0x40 MLOAD SWAP2 SWAP1 SWAP3 AND SWAP3 DUP4 SWAP2 PUSH32 0x8BE0079C531659141344CD1FD0A4F28419497F9722A3DAAFE3B4186F6B6457E0 SWAP2 SWAP1 LOG3 POP POP JUMP JUMPDEST DUP3 PUSH1 0x4 DUP2 ADD SWAP3 DUP3 ISZERO PUSH3 0x158 JUMPI SWAP2 PUSH1 0x20 MUL DUP3 ADD JUMPDEST DUP3 DUP2 GT ISZERO PUSH3 0x158 JUMPI DUP3 MLOAD DUP3 SWAP1 PUSH2 0xFFFF AND SWAP1 SSTORE SWAP2 PUSH1 0x20 ADD SWAP2 SWAP1 PUSH1 0x1 ADD SWAP1 PUSH3 0x135 JUMP JUMPDEST POP PUSH3 0x166 SWAP3 SWAP2 POP PUSH3 0x16A JUMP JUMPDEST POP SWAP1 JUMP JUMPDEST JUMPDEST DUP1 DUP3 GT ISZERO PUSH3 0x166 JUMPI PUSH0 DUP2 SSTORE PUSH1 0x1 ADD PUSH3 0x16B JUMP JUMPDEST PUSH2 0x12AB DUP1 PUSH3 0x18E PUSH0 CODECOPY PUSH0 RETURN INVALID PUSH1 0x80 PUSH1 0x40 MSTORE CALLVALUE DUP1 ISZERO PUSH2 0xF JUMPI PUSH0 DUP1 REVERT JUMPDEST POP PUSH1 0x4 CALLDATASIZE LT PUSH2 0x13D JUMPI PUSH0 CALLDATALOAD PUSH1 0xE0 SHR DUP1 PUSH4 0x8722D161 GT PUSH2 0xB4 JUMPI DUP1 PUSH4 0xCFFBC297 GT PUSH2 0x79 JUMPI DUP1 PUSH4 0xCFFBC297 EQ PUSH2 0x2BA JUMPI DUP1 PUSH4 0xDB35400D EQ PUSH2 0x31B JUMPI DUP1 PUSH4 0xE6D1DB8A EQ PUSH2 0x32E JUMPI DUP1 PUSH4 0xF2FDE38B EQ PUSH2 0x341 JUMPI DUP1 PUSH4 0xF6F45EBA EQ PUSH2 0x354 JUMPI DUP1 PUSH4 0xFC54DDFB EQ PUSH2 0x35C JUMPI PUSH0 DUP1 REVERT JUMPDEST DUP1 PUSH4 0x8722D161 EQ PUSH2 0x254 JUMPI DUP1 PUSH4 0x8B68E038 EQ PUSH2 0x267 JUMPI DUP1 PUSH4 0x8DA5CB5B EQ PUSH2 0x270 JUMPI DUP1 PUSH4 0xA59A9973 EQ PUSH2 0x294 JUMPI DUP1 PUSH4 0xB7B22E45 EQ PUSH2 0x2A7 JUMPI PUSH0 DUP1 REVERT JUMPDEST DUP1 PUSH4 0x5FD1A5F5 GT PUSH2 0x105 JUMPI DUP1 PUSH4 0x5FD1A5F5 EQ PUSH2 0x1B5 JUMPI DUP1 PUSH4 0x60A98B80 EQ PUSH2 0x1C8 JUMPI DUP1 PUSH4 0x618C8A58 EQ PUSH2 0x1F0 JUMPI DUP1 PUSH4 0x715018A6 EQ PUSH2 0x203 JUMPI DUP1 PUSH4 0x7E059B22 EQ PUSH2 0x20B JUMPI DUP1 PUSH4 0x822370BB EQ PUSH2 0x22A JUMPI PUSH0 DUP1 REVERT JUMPDEST DUP1 PUSH4 0x113AA8B1 EQ PUSH2 0x141 JUMPI DUP1 PUSH4 0x23A740AE EQ PUSH2 0x156 JUMPI DUP1 PUSH4 0x283ADD03 EQ PUSH2 0x17C JUMPI DUP1 PUSH4 0x2D310A37 EQ PUSH2 0x18F JUMPI DUP1 PUSH4 0x52CCCDB3 EQ PUSH2 0x1A2 JUMPI JUMPDEST PUSH0 DUP1 REVERT JUMPDEST PUSH2 0x154 PUSH2 0x14F CALLDATASIZE PUSH1 0x4 PUSH2 0xFFF JUMP JUMPDEST PUSH2 0x365 JUMP JUMPDEST STOP JUMPDEST PUSH2 0x169 PUSH2 0x164 CALLDATASIZE PUSH1 0x4 PUSH2 0x101F JUMP JUMPDEST PUSH2 0x3DC JUMP JUMPDEST PUSH1 0x40 MLOAD SWAP1 DUP2 MSTORE PUSH1 0x20 ADD JUMPDEST PUSH1 0x40 MLOAD DUP1 SWAP2 SUB SWAP1 RETURN JUMPDEST PUSH2 0x169 PUSH2 0x18A CALLDATASIZE PUSH1 0x4 PUSH2 0x1036 JUMP JUMPDEST PUSH2 0x3F2 JUMP JUMPDEST PUSH2 0x169 PUSH2 0x19D CALLDATASIZE PUSH1 0x4 PUSH2 0x101F JUMP JUMPDEST PUSH2 0x41B JUMP JUMPDEST PUSH2 0x154 PUSH2 0x1B0 CALLDATASIZE PUSH1 0x4 PUSH2 0x1060 JUMP JUMPDEST PUSH2 0x48C JUMP JUMPDEST PUSH2 0x169 PUSH2 0x1C3 CALLDATASIZE PUSH1 0x4 PUSH2 0x1092 JUMP JUMPDEST PUSH2 0x5E0 JUMP JUMPDEST PUSH2 0x169 PUSH2 0x1D6 CALLDATASIZE PUSH1 0x4 PUSH2 0xFFF JUMP JUMPDEST PUSH1 0x1 PUSH1 0x1 PUSH1 0xA0 SHL SUB AND PUSH0 SWAP1 DUP2 MSTORE PUSH1 0x3 PUSH1 0x20 MSTORE PUSH1 0x40 SWAP1 KECCAK256 SLOAD SWAP1 JUMP JUMPDEST PUSH2 0x169 PUSH2 0x1FE CALLDATASIZE PUSH1 0x4 PUSH2 0x101F JUMP JUMPDEST PUSH2 0x60C JUMP JUMPDEST PUSH2 0x154 PUSH2 0x61B JUMP JUMPDEST PUSH2 0x169 PUSH2 0x219 CALLDATASIZE PUSH1 0x4 PUSH2 0xFFF JUMP JUMPDEST PUSH1 0x3 PUSH1 0x20 MSTORE PUSH0 SWAP1 DUP2 MSTORE PUSH1 0x40 SWAP1 KECCAK256 SLOAD DUP2 JUMP JUMPDEST PUSH2 0x169 PUSH2 0x238 CALLDATASIZE PUSH1 0x4 PUSH2 0x1036 JUMP JUMPDEST PUSH1 0x2 PUSH1 0x20 SWAP1 DUP2 MSTORE PUSH0 SWAP3 DUP4 MSTORE PUSH1 0x40 DUP1 DUP5 KECCAK256 SWAP1 SWAP2 MSTORE SWAP1 DUP3 MSTORE SWAP1 KECCAK256 SLOAD DUP2 JUMP JUMPDEST PUSH2 0x154 PUSH2 0x262 CALLDATASIZE PUSH1 0x4 PUSH2 0x10B2 JUMP JUMPDEST PUSH2 0x62E JUMP JUMPDEST PUSH2 0x169 PUSH1 0xC SLOAD DUP2 JUMP JUMPDEST PUSH0 SLOAD PUSH1 0x1 PUSH1 0x1 PUSH1 0xA0 SHL SUB AND JUMPDEST PUSH1 0x40 MLOAD PUSH1 0x1 PUSH1 0x1 PUSH1 0xA0 SHL SUB SWAP1 SWAP2 AND DUP2 MSTORE PUSH1 0x20 ADD PUSH2 0x173 JUMP JUMPDEST PUSH1 0xD SLOAD PUSH2 0x27C SWAP1 PUSH1 0x1 PUSH1 0x1 PUSH1 0xA0 SHL SUB AND DUP2 JUMP JUMPDEST PUSH2 0x154 PUSH2 0x2B5 CALLDATASIZE PUSH1 0x4 PUSH2 0x10B2 JUMP JUMPDEST PUSH2 0x82A JUMP JUMPDEST PUSH2 0x2F6 PUSH2 0x2C8 CALLDATASIZE PUSH1 0x4 PUSH2 0xFFF JUMP JUMPDEST PUSH1 0x1 PUSH1 0x20 DUP2 SWAP1 MSTORE PUSH0 SWAP2 DUP3 MSTORE PUSH1 0x40 SWAP1 SWAP2 KECCAK256 DUP1 SLOAD SWAP2 ADD SLOAD PUSH1 0x1 PUSH1 0x1 PUSH1 0xA0 SHL SUB DUP3 AND SWAP2 PUSH1 0x1 PUSH1 0xA0 SHL SWAP1 DIV PUSH1 0xFF AND SWAP1 DUP4 JUMP JUMPDEST PUSH1 0x40 DUP1 MLOAD PUSH1 0x1 PUSH1 0x1 PUSH1 0xA0 SHL SUB SWAP1 SWAP5 AND DUP5 MSTORE SWAP2 ISZERO ISZERO PUSH1 0x20 DUP5 ADD MSTORE SWAP1 DUP3 ADD MSTORE PUSH1 0x60 ADD PUSH2 0x173 JUMP JUMPDEST PUSH2 0x154 PUSH2 0x329 CALLDATASIZE PUSH1 0x4 PUSH2 0x1060 JUMP JUMPDEST PUSH2 0xA1F JUMP JUMPDEST PUSH2 0x154 PUSH2 0x33C CALLDATASIZE PUSH1 0x4 PUSH2 0x10F5 JUMP JUMPDEST PUSH2 0xBBD JUMP JUMPDEST PUSH2 0x154 PUSH2 0x34F CALLDATASIZE PUSH1 0x4 PUSH2 0xFFF JUMP JUMPDEST PUSH2 0xDA8 JUMP JUMPDEST PUSH2 0x169 PUSH1 0x5 DUP2 JUMP JUMPDEST PUSH2 0x169 PUSH2 0x3E8 DUP2 JUMP JUMPDEST PUSH2 0x36D PUSH2 0xDE5 JUMP JUMPDEST PUSH1 0x1 PUSH1 0x1 PUSH1 0xA0 SHL SUB DUP2 AND PUSH2 0x3BA JUMPI PUSH1 0x40 MLOAD PUSH3 0x461BCD PUSH1 0xE5 SHL DUP2 MSTORE PUSH1 0x20 PUSH1 0x4 DUP3 ADD MSTORE PUSH1 0xF PUSH1 0x24 DUP3 ADD MSTORE PUSH15 0x496E76616C69642061646472657373 PUSH1 0x88 SHL PUSH1 0x44 DUP3 ADD MSTORE PUSH1 0x64 ADD JUMPDEST PUSH1 0x40 MLOAD DUP1 SWAP2 SUB SWAP1 REVERT JUMPDEST PUSH1 0xD DUP1 SLOAD PUSH1 0x1 PUSH1 0x1 PUSH1 0xA0 SHL SUB NOT AND PUSH1 0x1 PUSH1 0x1 PUSH1 0xA0 SHL SUB SWAP3 SWAP1 SWAP3 AND SWAP2 SWAP1 SWAP2 OR SWAP1 SSTORE JUMP JUMPDEST PUSH1 0x4 DUP2 PUSH1 0x4 DUP2 LT PUSH2 0x3EB JUMPI PUSH0 DUP1 REVERT JUMPDEST ADD SLOAD SWAP1 POP DUP2 JUMP JUMPDEST PUSH0 DUP3 DUP2 MSTORE PUSH1 0x2 PUSH1 0x20 SWAP1 DUP2 MSTORE PUSH1 0x40 DUP1 DUP4 KECCAK256 PUSH1 0x1 PUSH1 0x1 PUSH1 0xA0 SHL SUB DUP6 AND DUP5 MSTORE SWAP1 SWAP2 MSTORE SWAP1 KECCAK256 SLOAD JUMPDEST SWAP3 SWAP2 POP POP JUMP JUMPDEST PUSH0 DUP1 JUMPDEST PUSH1 0x4 DUP2 LT ISZERO PUSH2 0x466 JUMPI PUSH1 0x8 DUP2 PUSH1 0x4 DUP2 LT PUSH2 0x43A JUMPI PUSH2 0x43A PUSH2 0x112E JUMP JUMPDEST ADD SLOAD DUP4 LT PUSH2 0x45E JUMPI PUSH1 0x4 DUP2 PUSH1 0x4 DUP2 LT PUSH2 0x455 JUMPI PUSH2 0x455 PUSH2 0x112E JUMP JUMPDEST ADD SLOAD SWAP4 SWAP3 POP POP POP JUMP JUMPDEST PUSH1 0x1 ADD PUSH2 0x41E JUMP JUMPDEST POP PUSH1 0x4 PUSH2 0x474 PUSH1 0x1 DUP3 PUSH2 0x1156 JUMP JUMPDEST PUSH1 0x4 DUP2 LT PUSH2 0x484 JUMPI PUSH2 0x484 PUSH2 0x112E JUMP JUMPDEST ADD SLOAD SWAP3 SWAP2 POP POP JUMP JUMPDEST PUSH2 0x494 PUSH2 0xE11 JUMP JUMPDEST PUSH0 DUP2 GT PUSH2 0x4B3 JUMPI PUSH1 0x40 MLOAD PUSH3 0x461BCD PUSH1 0xE5 SHL DUP2 MSTORE PUSH1 0x4 ADD PUSH2 0x3B1 SWAP1 PUSH2 0x1169 JUMP JUMPDEST PUSH1 0x1 PUSH1 0x1 PUSH1 0xA0 SHL SUB DUP3 AND PUSH0 SWAP1 DUP2 MSTORE PUSH1 0x1 PUSH1 0x20 MSTORE PUSH1 0x40 SWAP1 KECCAK256 DUP1 SLOAD PUSH1 0x1 PUSH1 0xA0 SHL SWAP1 DIV PUSH1 0xFF AND PUSH2 0x4F2 JUMPI PUSH1 0x40 MLOAD PUSH3 0x461BCD PUSH1 0xE5 SHL DUP2 MSTORE PUSH1 0x4 ADD PUSH2 0x3B1 SWAP1 PUSH2 0x1195 JUMP JUMPDEST DUP1 SLOAD PUSH2 0x509 SWAP1 PUSH1 0x1 PUSH1 0x1 PUSH1 0xA0 SHL SUB AND CALLER ADDRESS DUP6 PUSH2 0xE2C JUMP JUMPDEST PUSH0 DUP5 DUP2 MSTORE PUSH1 0x2 PUSH1 0x20 SWAP1 DUP2 MSTORE PUSH1 0x40 DUP1 DUP4 KECCAK256 PUSH1 0x1 PUSH1 0x1 PUSH1 0xA0 SHL SUB DUP8 AND DUP5 MSTORE SWAP1 SWAP2 MSTORE SWAP1 KECCAK256 SLOAD PUSH2 0x536 SWAP1 DUP4 SWAP1 PUSH2 0x11BF JUMP JUMPDEST PUSH0 DUP6 DUP2 MSTORE PUSH1 0x2 PUSH1 0x20 SWAP1 DUP2 MSTORE PUSH1 0x40 DUP1 DUP4 KECCAK256 PUSH1 0x1 PUSH1 0x1 PUSH1 0xA0 SHL SUB DUP9 AND DUP5 MSTORE DUP3 MSTORE DUP1 DUP4 KECCAK256 SWAP4 SWAP1 SWAP4 SSTORE PUSH1 0x3 SWAP1 MSTORE KECCAK256 SLOAD PUSH2 0x56C SWAP1 DUP4 SWAP1 PUSH2 0x11BF JUMP JUMPDEST PUSH1 0x1 PUSH1 0x1 PUSH1 0xA0 SHL SUB DUP5 AND PUSH0 DUP2 DUP2 MSTORE PUSH1 0x3 PUSH1 0x20 MSTORE PUSH1 0x40 SWAP1 DUP2 SWAP1 KECCAK256 SWAP3 SWAP1 SWAP3 SSTORE SWAP1 MLOAD DUP6 SWAP1 PUSH32 0x1EAA3C7E4504A558B82AF8AAD514E144B09BC2ECA413CEEF6D6BA6260F772F16 SWAP1 PUSH2 0x5BC SWAP1 DUP7 DUP2 MSTORE PUSH1 0x20 ADD SWAP1 JUMP JUMPDEST PUSH1 0x40 MLOAD DUP1 SWAP2 SUB SWAP1 LOG3 POP PUSH2 0x5DB PUSH1 0x1 PUSH0 DUP1 MLOAD PUSH1 0x20 PUSH2 0x1256 DUP4 CODECOPY DUP2 MLOAD SWAP2 MSTORE SSTORE JUMP JUMPDEST POP POP POP JUMP JUMPDEST PUSH0 DUP1 PUSH2 0x5EB DUP4 PUSH2 0x41B JUMP JUMPDEST SWAP1 POP PUSH2 0x2710 PUSH2 0x5FA DUP3 DUP7 PUSH2 0x11D2 JUMP JUMPDEST PUSH2 0x604 SWAP2 SWAP1 PUSH2 0x11E9 JUMP JUMPDEST SWAP5 SWAP4 POP POP POP POP JUMP JUMPDEST PUSH1 0x8 DUP2 PUSH1 0x4 DUP2 LT PUSH2 0x3EB JUMPI PUSH0 DUP1 REVERT JUMPDEST PUSH2 0x623 PUSH2 0xDE5 JUMP JUMPDEST PUSH2 0x62C PUSH0 PUSH2 0xE62 JUMP JUMPDEST JUMP JUMPDEST PUSH2 0x636 PUSH2 0xE11 JUMP JUMPDEST PUSH1 0xD SLOAD PUSH1 0x1 PUSH1 0x1 PUSH1 0xA0 SHL SUB AND CALLER EQ PUSH2 0x683 JUMPI PUSH1 0x40 MLOAD PUSH3 0x461BCD PUSH1 0xE5 SHL DUP2 MSTORE PUSH1 0x20 PUSH1 0x4 DUP3 ADD MSTORE PUSH1 0x10 PUSH1 0x24 DUP3 ADD MSTORE PUSH16 0x13DB9B1E4813195B991A5B99D41BDBDB PUSH1 0x82 SHL PUSH1 0x44 DUP3 ADD MSTORE PUSH1 0x64 ADD PUSH2 0x3B1 JUMP JUMPDEST PUSH0 DUP3 GT PUSH2 0x6A2 JUMPI PUSH1 0x40 MLOAD PUSH3 0x461BCD PUSH1 0xE5 SHL DUP2 MSTORE PUSH1 0x4 ADD PUSH2 0x3B1 SWAP1 PUSH2 0x1169 JUMP JUMPDEST PUSH1 0x1 PUSH1 0x1 PUSH1 0xA0 SHL SUB DUP4 AND PUSH0 SWAP1 DUP2 MSTORE PUSH1 0x1 PUSH1 0x20 MSTORE PUSH1 0x40 SWAP1 KECCAK256 DUP1 SLOAD PUSH1 0x1 PUSH1 0xA0 SHL SWAP1 DIV PUSH1 0xFF AND PUSH2 0x6E1 JUMPI PUSH1 0x40 MLOAD PUSH3 0x461BCD PUSH1 0xE5 SHL DUP2 MSTORE PUSH1 0x4 ADD PUSH2 0x3B1 SWAP1 PUSH2 0x1195 JUMP JUMPDEST PUSH0 DUP6 DUP2 MSTORE PUSH1 0x2 PUSH1 0x20 SWAP1 DUP2 MSTORE PUSH1 0x40 DUP1 DUP4 KECCAK256 PUSH1 0x1 PUSH1 0x1 PUSH1 0xA0 SHL SUB DUP9 AND DUP5 MSTORE SWAP1 SWAP2 MSTORE SWAP1 KECCAK256 SLOAD DUP4 DUP2 LT ISZERO PUSH2 0x75E JUMPI PUSH1 0x40 MLOAD PUSH3 0x461BCD PUSH1 0xE5 SHL DUP2 MSTORE PUSH1 0x20 PUSH1 0x4 DUP3 ADD MSTORE PUSH1 0x22 PUSH1 0x24 DUP3 ADD MSTORE PUSH32 0x496E73756666696369656E7420636F6C6C61746572616C20746F2072656C6561 PUSH1 0x44 DUP3 ADD MSTORE PUSH2 0x7365 PUSH1 0xF0 SHL PUSH1 0x64 DUP3 ADD MSTORE PUSH1 0x84 ADD PUSH2 0x3B1 JUMP JUMPDEST PUSH2 0x768 DUP5 DUP3 PUSH2 0x1156 JUMP JUMPDEST PUSH0 DUP8 DUP2 MSTORE PUSH1 0x2 PUSH1 0x20 SWAP1 DUP2 MSTORE PUSH1 0x40 DUP1 DUP4 KECCAK256 PUSH1 0x1 PUSH1 0x1 PUSH1 0xA0 SHL SUB DUP11 AND DUP5 MSTORE DUP3 MSTORE DUP1 DUP4 KECCAK256 SWAP4 SWAP1 SWAP4 SSTORE PUSH1 0x3 SWAP1 MSTORE KECCAK256 SLOAD PUSH2 0x79E SWAP1 DUP6 SWAP1 PUSH2 0x1156 JUMP JUMPDEST PUSH1 0x1 PUSH1 0x1 PUSH1 0xA0 SHL SUB DUP1 DUP8 AND PUSH0 SWAP1 DUP2 MSTORE PUSH1 0x3 PUSH1 0x20 MSTORE PUSH1 0x40 SWAP1 KECCAK256 SWAP2 SWAP1 SWAP2 SSTORE DUP3 SLOAD PUSH2 0x7C8 SWAP2 AND DUP5 DUP7 PUSH2 0xEB1 JUMP JUMPDEST DUP5 PUSH1 0x1 PUSH1 0x1 PUSH1 0xA0 SHL SUB AND DUP7 PUSH32 0x4EFBC29DE7C8B1B6C53124AF4584E5F62230BA8540D4A1CA32DC458284BE9BBE DUP7 PUSH1 0x40 MLOAD PUSH2 0x804 SWAP2 DUP2 MSTORE PUSH1 0x20 ADD SWAP1 JUMP JUMPDEST PUSH1 0x40 MLOAD DUP1 SWAP2 SUB SWAP1 LOG3 POP POP PUSH2 0x824 PUSH1 0x1 PUSH0 DUP1 MLOAD PUSH1 0x20 PUSH2 0x1256 DUP4 CODECOPY DUP2 MLOAD SWAP2 MSTORE SSTORE JUMP JUMPDEST POP POP POP POP JUMP JUMPDEST PUSH2 0x832 PUSH2 0xE11 JUMP JUMPDEST PUSH1 0xD SLOAD PUSH1 0x1 PUSH1 0x1 PUSH1 0xA0 SHL SUB AND CALLER EQ PUSH2 0x87F JUMPI PUSH1 0x40 MLOAD PUSH3 0x461BCD PUSH1 0xE5 SHL DUP2 MSTORE PUSH1 0x20 PUSH1 0x4 DUP3 ADD MSTORE PUSH1 0x10 PUSH1 0x24 DUP3 ADD MSTORE PUSH16 0x13DB9B1E4813195B991A5B99D41BDBDB PUSH1 0x82 SHL PUSH1 0x44 DUP3 ADD MSTORE PUSH1 0x64 ADD PUSH2 0x3B1 JUMP JUMPDEST PUSH0 DUP3 GT PUSH2 0x89E JUMPI PUSH1 0x40 MLOAD PUSH3 0x461BCD PUSH1 0xE5 SHL DUP2 MSTORE PUSH1 0x4 ADD PUSH2 0x3B1 SWAP1 PUSH2 0x1169 JUMP JUMPDEST PUSH1 0x1 PUSH1 0x1 PUSH1 0xA0 SHL SUB DUP4 AND PUSH0 SWAP1 DUP2 MSTORE PUSH1 0x1 PUSH1 0x20 MSTORE PUSH1 0x40 SWAP1 KECCAK256 DUP1 SLOAD PUSH1 0x1 PUSH1 0xA0 SHL SWAP1 DIV PUSH1 0xFF AND PUSH2 0x8DD JUMPI PUSH1 0x40 MLOAD PUSH3 0x461BCD PUSH1 0xE5 SHL DUP2 MSTORE PUSH1 0x4 ADD PUSH2 0x3B1 SWAP1 PUSH2 0x1195 JUMP JUMPDEST PUSH0 DUP6 DUP2 MSTORE PUSH1 0x2 PUSH1 0x20 SWAP1 DUP2 MSTORE PUSH1 0x40 DUP1 DUP4 KECCAK256 PUSH1 0x1 PUSH1 0x1 PUSH1 0xA0 SHL SUB DUP9 AND DUP5 MSTORE SWAP1 SWAP2 MSTORE SWAP1 KECCAK256 SLOAD DUP4 DUP2 LT ISZERO PUSH2 0x94F JUMPI PUSH1 0x40 MLOAD PUSH3 0x461BCD PUSH1 0xE5 SHL DUP2 MSTORE PUSH1 0x20 PUSH1 0x4 DUP3 ADD DUP2 SWAP1 MSTORE PUSH1 0x24 DUP3 ADD MSTORE PUSH32 0x496E73756666696369656E7420636F6C6C61746572616C20746F207365697A65 PUSH1 0x44 DUP3 ADD MSTORE PUSH1 0x64 ADD PUSH2 0x3B1 JUMP JUMPDEST PUSH2 0x959 DUP5 DUP3 PUSH2 0x1156 JUMP JUMPDEST PUSH0 DUP8 DUP2 MSTORE PUSH1 0x2 PUSH1 0x20 SWAP1 DUP2 MSTORE PUSH1 0x40 DUP1 DUP4 KECCAK256 PUSH1 0x1 PUSH1 0x1 PUSH1 0xA0 SHL SUB DUP11 AND DUP5 MSTORE DUP3 MSTORE DUP1 DUP4 KECCAK256 SWAP4 SWAP1 SWAP4 SSTORE PUSH1 0x3 SWAP1 MSTORE KECCAK256 SLOAD PUSH2 0x98F SWAP1 DUP6 SWAP1 PUSH2 0x1156 JUMP JUMPDEST PUSH1 0x1 PUSH1 0x1 PUSH1 0xA0 SHL SUB DUP1 DUP8 AND PUSH0 SWAP1 DUP2 MSTORE PUSH1 0x3 PUSH1 0x20 MSTORE PUSH1 0x40 SWAP1 KECCAK256 SWAP2 SWAP1 SWAP2 SSTORE DUP3 SLOAD PUSH2 0x9B9 SWAP2 AND DUP5 DUP7 PUSH2 0xEB1 JUMP JUMPDEST DUP3 PUSH1 0x1 PUSH1 0x1 PUSH1 0xA0 SHL SUB AND DUP6 PUSH1 0x1 PUSH1 0x1 PUSH1 0xA0 SHL SUB AND DUP8 PUSH32 0xABD507831C67A08A37E70B677BE49C560109868E94DA38EADA7D15F2269354F6 DUP8 PUSH1 0x40 MLOAD PUSH2 0x9FF SWAP2 DUP2 MSTORE PUSH1 0x20 ADD SWAP1 JUMP JUMPDEST PUSH1 0x40 MLOAD DUP1 SWAP2 SUB SWAP1 LOG4 POP POP PUSH2 0x824 PUSH1 0x1 PUSH0 DUP1 MLOAD PUSH1 0x20 PUSH2 0x1256 DUP4 CODECOPY DUP2 MLOAD SWAP2 MSTORE SSTORE JUMP JUMPDEST PUSH2 0xA27 PUSH2 0xE11 JUMP JUMPDEST PUSH0 DUP2 GT PUSH2 0xA46 JUMPI PUSH1 0x40 MLOAD PUSH3 0x461BCD PUSH1 0xE5 SHL DUP2 MSTORE PUSH1 0x4 ADD PUSH2 0x3B1 SWAP1 PUSH2 0x1169 JUMP JUMPDEST PUSH1 0x1 PUSH1 0x1 PUSH1 0xA0 SHL SUB DUP3 AND PUSH0 SWAP1 DUP2 MSTORE PUSH1 0x1 PUSH1 0x20 MSTORE PUSH1 0x40 SWAP1 KECCAK256 DUP1 SLOAD PUSH1 0x1 PUSH1 0xA0 SHL SWAP1 DIV PUSH1 0xFF AND PUSH2 0xA85 JUMPI PUSH1 0x40 MLOAD PUSH3 0x461BCD PUSH1 0xE5 SHL DUP2 MSTORE PUSH1 0x4 ADD PUSH2 0x3B1 SWAP1 PUSH2 0x1195 JUMP JUMPDEST PUSH0 DUP5 DUP2 MSTORE PUSH1 0x2 PUSH1 0x20 SWAP1 DUP2 MSTORE PUSH1 0x40 DUP1 DUP4 KECCAK256 PUSH1 0x1 PUSH1 0x1 PUSH1 0xA0 SHL SUB DUP8 AND DUP5 MSTORE SWAP1 SWAP2 MSTORE SWAP1 KECCAK256 SLOAD DUP3 DUP2 LT ISZERO PUSH2 0xAF7 JUMPI PUSH1 0x40 MLOAD PUSH3 0x461BCD PUSH1 0xE5 SHL DUP2 MSTORE PUSH1 0x20 PUSH1 0x4 DUP3 ADD MSTORE PUSH1 0x1F PUSH1 0x24 DUP3 ADD MSTORE PUSH32 0x496E73756666696369656E7420636F6C6C61746572616C2062616C616E636500 PUSH1 0x44 DUP3 ADD MSTORE PUSH1 0x64 ADD PUSH2 0x3B1 JUMP JUMPDEST PUSH2 0xB01 DUP4 DUP3 PUSH2 0x1156 JUMP JUMPDEST PUSH0 DUP7 DUP2 MSTORE PUSH1 0x2 PUSH1 0x20 SWAP1 DUP2 MSTORE PUSH1 0x40 DUP1 DUP4 KECCAK256 PUSH1 0x1 PUSH1 0x1 PUSH1 0xA0 SHL SUB DUP10 AND DUP5 MSTORE DUP3 MSTORE DUP1 DUP4 KECCAK256 SWAP4 SWAP1 SWAP4 SSTORE PUSH1 0x3 SWAP1 MSTORE KECCAK256 SLOAD PUSH2 0xB37 SWAP1 DUP5 SWAP1 PUSH2 0x1156 JUMP JUMPDEST PUSH1 0x1 PUSH1 0x1 PUSH1 0xA0 SHL SUB DUP1 DUP7 AND PUSH0 SWAP1 DUP2 MSTORE PUSH1 0x3 PUSH1 0x20 MSTORE PUSH1 0x40 SWAP1 KECCAK256 SWAP2 SWAP1 SWAP2 SSTORE DUP3 SLOAD PUSH2 0xB61 SWAP2 AND CALLER DUP6 PUSH2 0xEB1 JUMP JUMPDEST DUP4 PUSH1 0x1 PUSH1 0x1 PUSH1 0xA0 SHL SUB AND DUP6 PUSH32 0x4EFBC29DE7C8B1B6C53124AF4584E5F62230BA8540D4A1CA32DC458284BE9BBE DUP6 PUSH1 0x40 MLOAD PUSH2 0xB9D SWAP2 DUP2 MSTORE PUSH1 0x20 ADD SWAP1 JUMP JUMPDEST PUSH1 0x40 MLOAD DUP1 SWAP2 SUB SWAP1 LOG3 POP POP PUSH2 0x5DB PUSH1 0x1 PUSH0 DUP1 MLOAD PUSH1 0x20 PUSH2 0x1256 DUP4 CODECOPY DUP2 MLOAD SWAP2 MSTORE SSTORE JUMP JUMPDEST PUSH2 0xBC5 PUSH2 0xDE5 JUMP JUMPDEST PUSH1 0x1 PUSH1 0x1 PUSH1 0xA0 SHL SUB DUP3 AND PUSH2 0xC0B JUMPI PUSH1 0x40 MLOAD PUSH3 0x461BCD PUSH1 0xE5 SHL DUP2 MSTORE PUSH1 0x20 PUSH1 0x4 DUP3 ADD MSTORE PUSH1 0xD PUSH1 0x24 DUP3 ADD MSTORE PUSH13 0x24B73B30B634B2103A37B5B2B7 PUSH1 0x99 SHL PUSH1 0x44 DUP3 ADD MSTORE PUSH1 0x64 ADD PUSH2 0x3B1 JUMP JUMPDEST PUSH1 0x1 PUSH1 0x1 PUSH1 0xA0 SHL SUB DUP3 AND PUSH0 SWAP1 DUP2 MSTORE PUSH1 0x1 PUSH1 0x20 MSTORE PUSH1 0x40 SWAP1 KECCAK256 DUP2 DUP1 ISZERO PUSH2 0xC38 JUMPI POP DUP1 SLOAD PUSH1 0x1 PUSH1 0xA0 SHL SWAP1 DIV PUSH1 0xFF AND ISZERO JUMPDEST ISZERO PUSH2 0xD23 JUMPI PUSH1 0x5 PUSH1 0xC SLOAD LT PUSH2 0xC84 JUMPI PUSH1 0x40 MLOAD PUSH3 0x461BCD PUSH1 0xE5 SHL DUP2 MSTORE PUSH1 0x20 PUSH1 0x4 DUP3 ADD MSTORE PUSH1 0x12 PUSH1 0x24 DUP3 ADD MSTORE PUSH18 0x13585E081D1BDAD95B9CC81C995858DA1959 PUSH1 0x72 SHL PUSH1 0x44 DUP3 ADD MSTORE PUSH1 0x64 ADD PUSH2 0x3B1 JUMP JUMPDEST DUP1 SLOAD PUSH1 0x1 PUSH1 0x1 PUSH1 0xA8 SHL SUB NOT AND PUSH1 0x1 PUSH1 0x1 PUSH1 0xA0 SHL SUB DUP5 AND SWAP1 DUP2 OR PUSH1 0x1 PUSH1 0xA0 SHL OR DUP3 SSTORE PUSH1 0x40 DUP1 MLOAD PUSH4 0x313CE567 PUSH1 0xE0 SHL DUP2 MSTORE SWAP1 MLOAD PUSH4 0x313CE567 SWAP2 PUSH1 0x4 DUP1 DUP3 ADD SWAP3 PUSH1 0x20 SWAP3 SWAP1 SWAP2 SWAP1 DUP3 SWAP1 SUB ADD DUP2 DUP7 GAS STATICCALL ISZERO DUP1 ISZERO PUSH2 0xCDE JUMPI RETURNDATASIZE PUSH0 DUP1 RETURNDATACOPY RETURNDATASIZE PUSH0 REVERT JUMPDEST POP POP POP POP PUSH1 0x40 MLOAD RETURNDATASIZE PUSH1 0x1F NOT PUSH1 0x1F DUP3 ADD AND DUP3 ADD DUP1 PUSH1 0x40 MSTORE POP DUP2 ADD SWAP1 PUSH2 0xD02 SWAP2 SWAP1 PUSH2 0x1208 JUMP JUMPDEST PUSH1 0xFF AND PUSH1 0x1 DUP3 ADD SSTORE PUSH1 0xC DUP1 SLOAD SWAP1 PUSH0 PUSH2 0xD19 DUP4 PUSH2 0x1228 JUMP JUMPDEST SWAP2 SWAP1 POP SSTORE POP PUSH2 0xD5E JUMP JUMPDEST DUP2 ISZERO DUP1 ISZERO PUSH2 0xD39 JUMPI POP DUP1 SLOAD PUSH1 0x1 PUSH1 0xA0 SHL SWAP1 DIV PUSH1 0xFF AND JUMPDEST ISZERO PUSH2 0xD5E JUMPI DUP1 SLOAD PUSH1 0xFF PUSH1 0xA0 SHL NOT AND DUP2 SSTORE PUSH1 0xC DUP1 SLOAD SWAP1 PUSH0 PUSH2 0xD58 DUP4 PUSH2 0x1240 JUMP JUMPDEST SWAP2 SWAP1 POP SSTORE POP JUMPDEST DUP3 PUSH1 0x1 PUSH1 0x1 PUSH1 0xA0 SHL SUB AND PUSH32 0xA8465FCE7714E145603ABC61F76C96665912CA5D2F9B7DD67F27349D83294D62 DUP4 PUSH1 0x40 MLOAD PUSH2 0xD9B SWAP2 ISZERO ISZERO DUP2 MSTORE PUSH1 0x20 ADD SWAP1 JUMP JUMPDEST PUSH1 0x40 MLOAD DUP1 SWAP2 SUB SWAP1 LOG2 POP POP POP JUMP JUMPDEST PUSH2 0xDB0 PUSH2 0xDE5 JUMP JUMPDEST PUSH1 0x1 PUSH1 0x1 PUSH1 0xA0 SHL SUB DUP2 AND PUSH2 0xDD9 JUMPI PUSH1 0x40 MLOAD PUSH4 0x1E4FBDF7 PUSH1 0xE0 SHL DUP2 MSTORE PUSH0 PUSH1 0x4 DUP3 ADD MSTORE PUSH1 0x24 ADD PUSH2 0x3B1 JUMP JUMPDEST PUSH2 0xDE2 DUP2 PUSH2 0xE62 JUMP JUMPDEST POP JUMP JUMPDEST PUSH0 SLOAD PUSH1 0x1 PUSH1 0x1 PUSH1 0xA0 SHL SUB AND CALLER EQ PUSH2 0x62C JUMPI PUSH1 0x40 MLOAD PUSH4 0x118CDAA7 PUSH1 0xE0 SHL DUP2 MSTORE CALLER PUSH1 0x4 DUP3 ADD MSTORE PUSH1 0x24 ADD PUSH2 0x3B1 JUMP JUMPDEST PUSH2 0xE19 PUSH2 0xEE6 JUMP JUMPDEST PUSH1 0x2 PUSH0 DUP1 MLOAD PUSH1 0x20 PUSH2 0x1256 DUP4 CODECOPY DUP2 MLOAD SWAP2 MSTORE SSTORE JUMP JUMPDEST PUSH2 0xE3A DUP5 DUP5 DUP5 DUP5 PUSH1 0x1 PUSH2 0xF15 JUMP JUMPDEST PUSH2 0x824 JUMPI PUSH1 0x40 MLOAD PUSH4 0x5274AFE7 PUSH1 0xE0 SHL DUP2 MSTORE PUSH1 0x1 PUSH1 0x1 PUSH1 0xA0 SHL SUB DUP6 AND PUSH1 0x4 DUP3 ADD MSTORE PUSH1 0x24 ADD PUSH2 0x3B1 JUMP JUMPDEST PUSH0 DUP1 SLOAD PUSH1 0x1 PUSH1 0x1 PUSH1 0xA0 SHL SUB DUP4 DUP2 AND PUSH1 0x1 PUSH1 0x1 PUSH1 0xA0 SHL SUB NOT DUP4 AND DUP2 OR DUP5 SSTORE PUSH1 0x40 MLOAD SWAP2 SWAP1 SWAP3 AND SWAP3 DUP4 SWAP2 PUSH32 0x8BE0079C531659141344CD1FD0A4F28419497F9722A3DAAFE3B4186F6B6457E0 SWAP2 SWAP1 LOG3 POP POP JUMP JUMPDEST PUSH2 0xEBE DUP4 DUP4 DUP4 PUSH1 0x1 PUSH2 0xF82 JUMP JUMPDEST PUSH2 0x5DB JUMPI PUSH1 0x40 MLOAD PUSH4 0x5274AFE7 PUSH1 0xE0 SHL DUP2 MSTORE PUSH1 0x1 PUSH1 0x1 PUSH1 0xA0 SHL SUB DUP5 AND PUSH1 0x4 DUP3 ADD MSTORE PUSH1 0x24 ADD PUSH2 0x3B1 JUMP JUMPDEST PUSH0 DUP1 MLOAD PUSH1 0x20 PUSH2 0x1256 DUP4 CODECOPY DUP2 MLOAD SWAP2 MSTORE SLOAD PUSH1 0x2 SUB PUSH2 0x62C JUMPI PUSH1 0x40 MLOAD PUSH4 0x3EE5AEB5 PUSH1 0xE0 SHL DUP2 MSTORE PUSH1 0x4 ADD PUSH1 0x40 MLOAD DUP1 SWAP2 SUB SWAP1 REVERT JUMPDEST PUSH1 0x40 MLOAD PUSH4 0x23B872DD PUSH1 0xE0 SHL PUSH0 DUP2 DUP2 MSTORE PUSH1 0x1 PUSH1 0x1 PUSH1 0xA0 SHL SUB DUP8 DUP2 AND PUSH1 0x4 MSTORE DUP7 AND PUSH1 0x24 MSTORE PUSH1 0x44 DUP6 SWAP1 MSTORE SWAP2 PUSH1 0x20 DUP4 PUSH1 0x64 DUP2 DUP1 DUP13 GAS CALL SWAP3 POP PUSH1 0x1 PUSH0 MLOAD EQ DUP4 AND PUSH2 0xF71 JUMPI DUP4 DUP4 ISZERO AND ISZERO PUSH2 0xF65 JUMPI RETURNDATASIZE PUSH0 DUP3 RETURNDATACOPY RETURNDATASIZE DUP2 REVERT JUMPDEST PUSH0 DUP9 EXTCODESIZE GT RETURNDATASIZE ISZERO AND DUP4 AND SWAP3 POP JUMPDEST PUSH1 0x40 MSTORE POP PUSH0 PUSH1 0x60 MSTORE SWAP6 SWAP5 POP POP POP POP POP JUMP JUMPDEST PUSH1 0x40 MLOAD PUSH4 0xA9059CBB PUSH1 0xE0 SHL PUSH0 DUP2 DUP2 MSTORE PUSH1 0x1 PUSH1 0x1 PUSH1 0xA0 SHL SUB DUP7 AND PUSH1 0x4 MSTORE PUSH1 0x24 DUP6 SWAP1 MSTORE SWAP2 PUSH1 0x20 DUP4 PUSH1 0x44 DUP2 DUP1 DUP12 GAS CALL SWAP3 POP PUSH1 0x1 PUSH0 MLOAD EQ DUP4 AND PUSH2 0xFD8 JUMPI DUP4 DUP4 ISZERO AND ISZERO PUSH2 0xFCC JUMPI RETURNDATASIZE PUSH0 DUP3 RETURNDATACOPY RETURNDATASIZE DUP2 REVERT JUMPDEST PUSH0 DUP8 EXTCODESIZE GT RETURNDATASIZE ISZERO AND DUP4 AND SWAP3 POP JUMPDEST PUSH1 0x40 MSTORE POP SWAP5 SWAP4 POP POP POP POP JUMP JUMPDEST DUP1 CALLDATALOAD PUSH1 0x1 PUSH1 0x1 PUSH1 0xA0 SHL SUB DUP2 AND DUP2 EQ PUSH2 0xFFA JUMPI PUSH0 DUP1 REVERT JUMPDEST SWAP2 SWAP1 POP JUMP JUMPDEST PUSH0 PUSH1 0x20 DUP3 DUP5 SUB SLT ISZERO PUSH2 0x100F JUMPI PUSH0 DUP1 REVERT JUMPDEST PUSH2 0x1018 DUP3 PUSH2 0xFE4 JUMP JUMPDEST SWAP4 SWAP3 POP POP POP JUMP JUMPDEST PUSH0 PUSH1 0x20 DUP3 DUP5 SUB SLT ISZERO PUSH2 0x102F JUMPI PUSH0 DUP1 REVERT JUMPDEST POP CALLDATALOAD SWAP2 SWAP1 POP JUMP JUMPDEST PUSH0 DUP1 PUSH1 0x40 DUP4 DUP6 SUB SLT ISZERO PUSH2 0x1047 JUMPI PUSH0 DUP1 REVERT JUMPDEST DUP3 CALLDATALOAD SWAP2 POP PUSH2 0x1057 PUSH1 0x20 DUP5 ADD PUSH2 0xFE4 JUMP JUMPDEST SWAP1 POP SWAP3 POP SWAP3 SWAP1 POP JUMP JUMPDEST PUSH0 DUP1 PUSH0 PUSH1 0x60 DUP5 DUP7 SUB SLT ISZERO PUSH2 0x1072 JUMPI PUSH0 DUP1 REVERT JUMPDEST DUP4 CALLDATALOAD SWAP3 POP PUSH2 0x1082 PUSH1 0x20 DUP6 ADD PUSH2 0xFE4 JUMP JUMPDEST SWAP2 POP PUSH1 0x40 DUP5 ADD CALLDATALOAD SWAP1 POP SWAP3 POP SWAP3 POP SWAP3 JUMP JUMPDEST PUSH0 DUP1 PUSH1 0x40 DUP4 DUP6 SUB SLT ISZERO PUSH2 0x10A3 JUMPI PUSH0 DUP1 REVERT JUMPDEST POP POP DUP1 CALLDATALOAD SWAP3 PUSH1 0x20 SWAP1 SWAP2 ADD CALLDATALOAD SWAP2 POP JUMP JUMPDEST PUSH0 DUP1 PUSH0 DUP1 PUSH1 0x80 DUP6 DUP8 SUB SLT ISZERO PUSH2 0x10C5 JUMPI PUSH0 DUP1 REVERT JUMPDEST DUP5 CALLDATALOAD SWAP4 POP PUSH2 0x10D5 PUSH1 0x20 DUP7 ADD PUSH2 0xFE4 JUMP JUMPDEST SWAP3 POP PUSH1 0x40 DUP6 ADD CALLDATALOAD SWAP2 POP PUSH2 0x10EA PUSH1 0x60 DUP7 ADD PUSH2 0xFE4 JUMP JUMPDEST SWAP1 POP SWAP3 SWAP6 SWAP2 SWAP5 POP SWAP3 POP JUMP JUMPDEST PUSH0 DUP1 PUSH1 0x40 DUP4 DUP6 SUB SLT ISZERO PUSH2 0x1106 JUMPI PUSH0 DUP1 REVERT JUMPDEST PUSH2 0x110F DUP4 PUSH2 0xFE4 JUMP JUMPDEST SWAP2 POP PUSH1 0x20 DUP4 ADD CALLDATALOAD DUP1 ISZERO ISZERO DUP2 EQ PUSH2 0x1123 JUMPI PUSH0 DUP1 REVERT JUMPDEST DUP1 SWAP2 POP POP SWAP3 POP SWAP3 SWAP1 POP JUMP JUMPDEST PUSH4 0x4E487B71 PUSH1 0xE0 SHL PUSH0 MSTORE PUSH1 0x32 PUSH1 0x4 MSTORE PUSH1 0x24 PUSH0 REVERT JUMPDEST PUSH4 0x4E487B71 PUSH1 0xE0 SHL PUSH0 MSTORE PUSH1 0x11 PUSH1 0x4 MSTORE PUSH1 0x24 PUSH0 REVERT JUMPDEST DUP2 DUP2 SUB DUP2 DUP2 GT ISZERO PUSH2 0x415 JUMPI PUSH2 0x415 PUSH2 0x1142 JUMP JUMPDEST PUSH1 0x20 DUP1 DUP3 MSTORE PUSH1 0x12 SWAP1 DUP3 ADD MSTORE PUSH18 0x416D6F756E74206D757374206265203E203 PUSH1 0x74 SHL PUSH1 0x40 DUP3 ADD MSTORE PUSH1 0x60 ADD SWAP1 JUMP JUMPDEST PUSH1 0x20 DUP1 DUP3 MSTORE PUSH1 0x10 SWAP1 DUP3 ADD MSTORE PUSH16 0x546F6B656E206E6F7420616374697665 PUSH1 0x80 SHL PUSH1 0x40 DUP3 ADD MSTORE PUSH1 0x60 ADD SWAP1 JUMP JUMPDEST DUP1 DUP3 ADD DUP1 DUP3 GT ISZERO PUSH2 0x415 JUMPI PUSH2 0x415 PUSH2 0x1142 JUMP JUMPDEST DUP1 DUP3 MUL DUP2 ISZERO DUP3 DUP3 DIV DUP5 EQ OR PUSH2 0x415 JUMPI PUSH2 0x415 PUSH2 0x1142 JUMP JUMPDEST PUSH0 DUP3 PUSH2 0x1203 JUMPI PUSH4 0x4E487B71 PUSH1 0xE0 SHL PUSH0 MSTORE PUSH1 0x12 PUSH1 0x4 MSTORE PUSH1 0x24 PUSH0 REVERT JUMPDEST POP DIV SWAP1 JUMP JUMPDEST PUSH0 PUSH1 0x20 DUP3 DUP5 SUB SLT ISZERO PUSH2 0x1218 JUMPI PUSH0 DUP1 REVERT JUMPDEST DUP2 MLOAD PUSH1 0xFF DUP2 AND DUP2 EQ PUSH2 0x1018 JUMPI PUSH0 DUP1 REVERT JUMPDEST PUSH0 PUSH1 0x1 DUP3 ADD PUSH2 0x1239 JUMPI PUSH2 0x1239 PUSH2 0x1142 JUMP JUMPDEST POP PUSH1 0x1 ADD SWAP1 JUMP JUMPDEST PUSH0 DUP2 PUSH2 0x124E JUMPI PUSH2 0x124E PUSH2 0x1142 JUMP JUMPDEST POP PUSH0 NOT ADD SWAP1 JUMP INVALID SWAP12 PUSH24 0x9B17422D0DF92223018B32B4D1FA46E071723D6817E2486D STOP EXTCODESIZE 0xEC 0xC5 PUSH0 STOP LOG2 PUSH5 0x6970667358 0x22 SLT KECCAK256 TSTORE BLOBHASH MCOPY GASLIMIT 0xD9 PUSH27 0x64B2AA84E8CF421AA0AF0FB00B1DE3CA7D8E5F605D5D852EB6DD64 PUSH20 0x6F6C634300081800330000000000000000000000 "},"methodIdentifiers":{"LIQUIDATION_PENALTY_BPS()":"fc54ddfb","MAX_COLLATERAL_TOKENS()":"f6f45eba","activeTokenCount()":"8b68e038","calculateRequiredCollateral(uint256,uint256)":"5fd1a5f5","collateralBalances(bytes32,address)":"822370bb","collateralRatios(uint256)":"23a740ae","collateralTokens(address)":"cffbc297","depositCollateral(bytes32,address,uint256)":"52cccdb3","getCollateralBalance(bytes32,address)":"283add03","getCollateralRatio(uint256)":"2d310a37","getTotalCollateral(address)":"60a98b80","lendingPool()":"a59a9973","owner()":"8da5cb5b","releaseCollateral(bytes32,address,uint256,address)":"8722d161","renounceOwnership()":"715018a6","scoreThresholds(uint256)":"618c8a58","seizeCollateral(bytes32,address,uint256,address)":"b7b22e45","setCollateralToken(address,bool)":"e6d1db8a","setLendingPool(address)":"113aa8b1","totalCollateral(address)":"7e059b22","transferOwnership(address)":"f2fde38b","withdrawCollateral(bytes32,address,uint256)":"db35400d"}}}}}