{"contracts/LendingPool.sol":{"LendingPool":{"abi":[{"inputs":[{"internalType":"address","name":"_baseToken","type":"address"},{"internalType":"address","name":"_acsOracle","type":"address"},{"internalType":"address","name":"_collateralManager","type":"address"}],"stateMutability":"nonpayable","type":"constructor"},{"inputs":[{"internalType":"uint256","name":"required","type":"uint256"},{"internalType":"uint256","name":"available","type":"uint256"}],"name":"InsufficientBalance","type":"error"},{"inputs":[{"internalType":"uint256","name":"required","type":"uint256"},{"internalType":"uint256","name":"provided","type":"uint256"}],"name":"InsufficientCollateral","type":"error"},{"inputs":[{"internalType":"uint256","name":"score","type":"uint256"}],"name":"InvalidACSScore","type":"error"},{"inputs":[{"internalType":"string","name":"reason","type":"string"}],"name":"InvalidLoanParameters","type":"error"},{"inputs":[],"name":"LoanAlreadyRepaid","type":"error"},{"inputs":[{"internalType":"uint256","name":"loanId","type":"uint256"}],"name":"LoanNotActive","type":"error"},{"inputs":[{"internalType":"uint256","name":"maturity","type":"uint256"}],"name":"LoanNotDue","type":"error"},{"inputs":[{"internalType":"uint256","name":"loanId","type":"uint256"}],"name":"LoanNotFound","type":"error"},{"inputs":[{"internalType":"address","name":"owner","type":"address"}],"name":"OwnableInvalidOwner","type":"error"},{"inputs":[{"internalType":"address","name":"account","type":"address"}],"name":"OwnableUnauthorizedAccount","type":"error"},{"inputs":[],"name":"PoolIsPaused","type":"error"},{"inputs":[],"name":"ReentrancyGuardReentrantCall","type":"error"},{"inputs":[{"internalType":"address","name":"token","type":"address"}],"name":"SafeERC20FailedOperation","type":"error"},{"inputs":[],"name":"ScoreExpired","type":"error"},{"inputs":[],"name":"UnauthorizedLiquidator","type":"error"},{"anonymous":false,"inputs":[{"indexed":true,"internalType":"uint256","name":"loanId","type":"uint256"},{"indexed":true,"internalType":"bytes32","name":"borrowerDID","type":"bytes32"},{"indexed":true,"internalType":"address","name":"lender","type":"address"},{"indexed":false,"internalType":"address","name":"principalToken","type":"address"},{"indexed":false,"internalType":"uint256","name":"principalAmount","type":"uint256"},{"indexed":false,"internalType":"uint256","name":"interestRateBps","type":"uint256"},{"indexed":false,"internalType":"uint256","name":"maturity","type":"uint256"},{"indexed":false,"internalType":"address","name":"collateralToken","type":"address"},{"indexed":false,"internalType":"uint256","name":"collateralAmount","type":"uint256"}],"name":"LoanCreated","type":"event"},{"anonymous":false,"inputs":[{"indexed":true,"internalType":"uint256","name":"loanId","type":"uint256"},{"indexed":true,"internalType":"bytes32","name":"borrowerDID","type":"bytes32"},{"indexed":false,"internalType":"uint256","name":"outstandingDebt","type":"uint256"}],"name":"LoanDefaulted","type":"event"},{"anonymous":false,"inputs":[{"indexed":true,"internalType":"uint256","name":"loanId","type":"uint256"},{"indexed":true,"internalType":"bytes32","name":"borrowerDID","type":"bytes32"},{"indexed":true,"internalType":"address","name":"liquidator","type":"address"},{"indexed":false,"internalType":"uint256","name":"collateralSeized","type":"uint256"},{"indexed":false,"internalType":"uint256","name":"debtCovered","type":"uint256"}],"name":"LoanLiquidated","type":"event"},{"anonymous":false,"inputs":[{"indexed":true,"internalType":"uint256","name":"loanId","type":"uint256"},{"indexed":true,"internalType":"bytes32","name":"borrowerDID","type":"bytes32"},{"indexed":false,"internalType":"uint256","name":"principalAmount","type":"uint256"},{"indexed":false,"internalType":"uint256","name":"interestAmount","type":"uint256"},{"indexed":false,"internalType":"uint256","name":"protocolFee","type":"uint256"}],"name":"LoanRepaid","type":"event"},{"anonymous":false,"inputs":[{"indexed":true,"internalType":"address","name":"previousOwner","type":"address"},{"indexed":true,"internalType":"address","name":"newOwner","type":"address"}],"name":"OwnershipTransferred","type":"event"},{"anonymous":false,"inputs":[{"indexed":false,"internalType":"bool","name":"paused","type":"bool"}],"name":"PoolPaused","type":"event"},{"anonymous":false,"inputs":[{"indexed":true,"internalType":"uint256","name":"loanId","type":"uint256"},{"indexed":true,"internalType":"bytes32","name":"borrowerDID","type":"bytes32"},{"indexed":true,"internalType":"address","name":"borrower","type":"address"},{"indexed":false,"internalType":"uint256","name":"amount","type":"uint256"}],"name":"PrincipalClaimed","type":"event"},{"anonymous":false,"inputs":[{"indexed":true,"internalType":"uint256","name":"loanId","type":"uint256"},{"indexed":false,"internalType":"uint256","name":"feeAmount","type":"uint256"}],"name":"ProtocolFeeCollected","type":"event"},{"inputs":[],"name":"LIQUIDATION_PENALTY_BPS","outputs":[{"internalType":"uint256","name":"","type":"uint256"}],"stateMutability":"view","type":"function"},{"inputs":[],"name":"LIQUIDATION_THRESHOLD_BPS","outputs":[{"internalType":"uint256","name":"","type":"uint256"}],"stateMutability":"view","type":"function"},{"inputs":[],"name":"MAX_INTEREST_RATE_BPS","outputs":[{"internalType":"uint256","name":"","type":"uint256"}],"stateMutability":"view","type":"function"},{"inputs":[],"name":"MAX_LOAN_DURATION","outputs":[{"internalType":"uint256","name":"","type":"uint256"}],"stateMutability":"view","type":"function"},{"inputs":[],"name":"MIN_INTEREST_RATE_BPS","outputs":[{"internalType":"uint256","name":"","type":"uint256"}],"stateMutability":"view","type":"function"},{"inputs":[],"name":"MIN_LOAN_DURATION","outputs":[{"internalType":"uint256","name":"","type":"uint256"}],"stateMutability":"view","type":"function"},{"inputs":[],"name":"PROTOCOL_FEE_BPS","outputs":[{"internalType":"uint256","name":"","type":"uint256"}],"stateMutability":"view","type":"function"},{"inputs":[],"name":"acsOracle","outputs":[{"internalType":"contract ACSOracle","name":"","type":"address"}],"stateMutability":"view","type":"function"},{"inputs":[],"name":"baseToken","outputs":[{"internalType":"contract IERC20","name":"","type":"address"}],"stateMutability":"view","type":"function"},{"inputs":[{"internalType":"bytes32","name":"","type":"bytes32"}],"name":"borrowerAddresses","outputs":[{"internalType":"address","name":"","type":"address"}],"stateMutability":"view","type":"function"},{"inputs":[{"internalType":"bytes32","name":"","type":"bytes32"},{"internalType":"uint256","name":"","type":"uint256"}],"name":"borrowerLoans","outputs":[{"internalType":"uint256","name":"","type":"uint256"}],"stateMutability":"view","type":"function"},{"inputs":[{"internalType":"uint256","name":"loanId","type":"uint256"}],"name":"claimPrincipal","outputs":[],"stateMutability":"nonpayable","type":"function"},{"inputs":[],"name":"collateralManager","outputs":[{"internalType":"contract CollateralManager","name":"","type":"address"}],"stateMutability":"view","type":"function"},{"inputs":[{"internalType":"bytes32","name":"borrowerDID","type":"bytes32"},{"internalType":"address","name":"borrowerAddress","type":"address"},{"internalType":"uint256","name":"principalAmount","type":"uint256"},{"internalType":"uint256","name":"interestRateBps","type":"uint256"},{"internalType":"uint256","name":"duration","type":"uint256"},{"internalType":"address","name":"collateralToken","type":"address"}],"name":"createLoan","outputs":[{"internalType":"uint256","name":"loanId","type":"uint256"}],"stateMutability":"nonpayable","type":"function"},{"inputs":[{"internalType":"bytes32","name":"borrowerDID","type":"bytes32"},{"internalType":"address","name":"borrowerAddress","type":"address"},{"internalType":"uint256","name":"principalAmount","type":"uint256"},{"internalType":"uint256","name":"interestRateBps","type":"uint256"},{"internalType":"uint256","name":"duration","type":"uint256"},{"internalType":"address","name":"collateralToken","type":"address"},{"internalType":"uint256","name":"collateralAmount","type":"uint256"}],"name":"createLoanWithCollateral","outputs":[{"internalType":"uint256","name":"loanId","type":"uint256"}],"stateMutability":"nonpayable","type":"function"},{"inputs":[{"internalType":"address","name":"token","type":"address"},{"internalType":"uint256","name":"amount","type":"uint256"}],"name":"emergencyWithdraw","outputs":[],"stateMutability":"nonpayable","type":"function"},{"inputs":[],"name":"getBaseTokenBalance","outputs":[{"internalType":"uint256","name":"","type":"uint256"}],"stateMutability":"view","type":"function"},{"inputs":[{"internalType":"bytes32","name":"borrowerDID","type":"bytes32"}],"name":"getBorrowerAddress","outputs":[{"internalType":"address","name":"","type":"address"}],"stateMutability":"view","type":"function"},{"inputs":[{"internalType":"bytes32","name":"borrowerDID","type":"bytes32"}],"name":"getBorrowerLoans","outputs":[{"internalType":"uint256[]","name":"","type":"uint256[]"}],"stateMutability":"view","type":"function"},{"inputs":[{"internalType":"address","name":"lender","type":"address"}],"name":"getLenderLoans","outputs":[{"internalType":"uint256[]","name":"","type":"uint256[]"}],"stateMutability":"view","type":"function"},{"inputs":[{"internalType":"uint256","name":"loanId","type":"uint256"}],"name":"getLoan","outputs":[{"components":[{"internalType":"uint256","name":"id","type":"uint256"},{"internalType":"bytes32","name":"borrowerDID","type":"bytes32"},{"internalType":"address","name":"lender","type":"address"},{"internalType":"address","name":"principalToken","type":"address"},{"internalType":"uint256","name":"principalAmount","type":"uint256"},{"internalType":"uint256","name":"interestRateBps","type":"uint256"},{"internalType":"uint256","name":"startTime","type":"uint256"},{"internalType":"uint256","name":"maturity","type":"uint256"},{"internalType":"address","name":"collateralToken","type":"address"},{"internalType":"uint256","name":"collateralAmount","type":"uint256"},{"internalType":"enum LendingPool.LoanStatus","name":"status","type":"uint8"},{"internalType":"uint256","name":"repaidAmount","type":"uint256"},{"internalType":"uint256","name":"liquidatedAmount","type":"uint256"}],"internalType":"struct LendingPool.Loan","name":"","type":"tuple"}],"stateMutability":"view","type":"function"},{"inputs":[{"internalType":"uint256","name":"loanId","type":"uint256"}],"name":"getOutstanding","outputs":[{"internalType":"uint256","name":"","type":"uint256"}],"stateMutability":"view","type":"function"},{"inputs":[{"internalType":"uint256","name":"loanId","type":"uint256"}],"name":"handleDefault","outputs":[],"stateMutability":"nonpayable","type":"function"},{"inputs":[{"internalType":"address","name":"","type":"address"},{"internalType":"uint256","name":"","type":"uint256"}],"name":"lenderLoans","outputs":[{"internalType":"uint256","name":"","type":"uint256"}],"stateMutability":"view","type":"function"},{"inputs":[{"internalType":"uint256","name":"loanId","type":"uint256"}],"name":"liquidateLoan","outputs":[],"stateMutability":"nonpayable","type":"function"},{"inputs":[],"name":"loanCounter","outputs":[{"internalType":"uint256","name":"","type":"uint256"}],"stateMutability":"view","type":"function"},{"inputs":[{"internalType":"uint256","name":"","type":"uint256"}],"name":"loans","outputs":[{"internalType":"uint256","name":"id","type":"uint256"},{"internalType":"bytes32","name":"borrowerDID","type":"bytes32"},{"internalType":"address","name":"lender","type":"address"},{"internalType":"address","name":"principalToken","type":"address"},{"internalType":"uint256","name":"principalAmount","type":"uint256"},{"internalType":"uint256","name":"interestRateBps","type":"uint256"},{"internalType":"uint256","name":"startTime","type":"uint256"},{"internalType":"uint256","name":"maturity","type":"uint256"},{"internalType":"address","name":"collateralToken","type":"address"},{"internalType":"uint256","name":"collateralAmount","type":"uint256"},{"internalType":"enum LendingPool.LoanStatus","name":"status","type":"uint8"},{"internalType":"uint256","name":"repaidAmount","type":"uint256"},{"internalType":"uint256","name":"liquidatedAmount","type":"uint256"}],"stateMutability":"view","type":"function"},{"inputs":[],"name":"owner","outputs":[{"internalType":"address","name":"","type":"address"}],"stateMutability":"view","type":"function"},{"inputs":[],"name":"paused","outputs":[{"internalType":"bool","name":"","type":"bool"}],"stateMutability":"view","type":"function"},{"inputs":[],"name":"renounceOwnership","outputs":[],"stateMutability":"nonpayable","type":"function"},{"inputs":[{"internalType":"uint256","name":"loanId","type":"uint256"}],"name":"repayLoan","outputs":[],"stateMutability":"nonpayable","type":"function"},{"inputs":[{"internalType":"address","name":"newOracle","type":"address"}],"name":"setACSOracle","outputs":[],"stateMutability":"nonpayable","type":"function"},{"inputs":[{"internalType":"address","name":"newManager","type":"address"}],"name":"setCollateralManager","outputs":[],"stateMutability":"nonpayable","type":"function"},{"inputs":[{"internalType":"bool","name":"_paused","type":"bool"}],"name":"setPaused","outputs":[],"stateMutability":"nonpayable","type":"function"},{"inputs":[{"internalType":"address","name":"newOwner","type":"address"}],"name":"transferOwnership","outputs":[],"stateMutability":"nonpayable","type":"function"}],"evm":{"bytecode":{"linkReferences":{},"object":"60a060405234801562000010575f80fd5b5060405162002f7138038062002f7183398101604081905262000033916200021e565b33806200005a57604051631e4fbdf760e01b81525f60048201526024015b60405180910390fd5b6200006581620001b3565b5060017f9b779b17422d0df92223018b32b4d1fa46e071723d6817e2486d003becc55f00556001600160a01b038316620000d75760405162461bcd60e51b815260206004820152601260248201527124b73b30b634b2103130b9b2903a37b5b2b760711b604482015260640162000051565b6001600160a01b038216620001245760405162461bcd60e51b8152602060048201526012602482015271496e76616c696420414353204f7261636c6560701b604482015260640162000051565b6001600160a01b0381166200017c5760405162461bcd60e51b815260206004820152601a60248201527f496e76616c696420436f6c6c61746572616c204d616e61676572000000000000604482015260640162000051565b6001600160a01b03928316608052600180549284166001600160a01b03199384161790556002805491909316911617905562000265565b5f80546001600160a01b038381166001600160a01b0319831681178455604051919092169283917f8be0079c531659141344cd1fd0a4f28419497f9722a3daafe3b4186f6b6457e09190a35050565b80516001600160a01b038116811462000219575f80fd5b919050565b5f805f6060848603121562000231575f80fd5b6200023c8462000202565b92506200024c6020850162000202565b91506200025c6040850162000202565b90509250925092565b608051612c91620002e05f395f81816103ee0152818161086501528181610ccd01528181610d2901528181610d7601528181611231015281816116c5015281816117630152818161197901528181611d5201528181611df001528181612006015281816120810152818161237e01526124500152612c915ff3fe608060405234801561000f575f80fd5b5060043610610208575f3560e01c806395ccea671161011f578063e1ec3c68116100a9578063eeeb0c1711610079578063eeeb0c1714610505578063f1d0ef8114610518578063f2fde38b1461052b578063f9af05791461053e578063fc54ddfb14610551575f80fd5b8063e1ec3c6814610436578063e2460477146104d7578063e8cf681b146104ea578063ea7db131146104fd575f80fd5b8063be378228116100ef578063be378228146103c1578063be5c6a64146103c9578063c55dae63146103e9578063ccc855f614610410578063ccdd9f5d14610423575f80fd5b806395ccea671461036b578063ab7b1c891461037e578063b71aa4d514610391578063bc6829b114610399575f80fd5b80634af37b23116101a0578063715018a611610170578063715018a61461032357806374a499971461032b578063842a05d41461033e57806389d99a05146103515780638da5cb5b1461035b575f80fd5b80634af37b23146102ca578063504006ca146102dd5780635c975abb146102fd578063709ae4411461031a575f80fd5b806323be345c116101db57806323be345c1461028857806334d9289e1461029b5780633cdb72f1146102a4578063467bdc04146102b7575f80fd5b8063035b209d1461020c5780630c6d5a58146102515780630d0b2ca61461026857806316c38b3c14610273575b5f80fd5b61023461021a36600461276c565b5f908152600760205260409020546001600160a01b031690565b6040516001600160a01b0390911681526020015b60405180910390f35b61025a611f4081565b604051908152602001610248565b61025a6301e1338081565b610286610281366004612783565b61055a565b005b600254610234906001600160a01b031681565b61025a60035481565b61025a6102b23660046127bd565b6105a9565b600154610234906001600160a01b031681565b6102866102d836600461276c565b6105d4565b6102f06102eb36600461276c565b610904565b6040516102489190612819565b60085461030a9060ff1681565b6040519015158152602001610248565b61025a61138881565b610286610a6f565b61025a6103393660046128e7565b610a82565b61028661034c366004612907565b610a9b565b61025a6201518081565b5f546001600160a01b0316610234565b6102866103793660046127bd565b610b0d565b61028661038c36600461276c565b610b3e565b61025a606481565b6102346103a736600461276c565b60076020525f90815260409020546001600160a01b031681565b61025a603281565b6103dc6103d736600461276c565b610ed1565b6040516102489190612920565b6102347f000000000000000000000000000000000000000000000000000000000000000081565b61028661041e366004612907565b610f30565b61028661043136600461276c565b610fa1565b6104be61044436600461276c565b600460208190525f918252604090912080546001820154600283015460038401549484015460058501546006860154600787015460088801546009890154600a8a0154600b8b0154600c909b0154999b989a6001600160a01b039889169a9989169997989697959694959490931693919260ff909116918d565b6040516102489d9c9b9a99989796959493929190612963565b61025a6104e53660046129e1565b6112b9565b61025a6104f8366004612a3f565b6119dd565b61025a61206a565b6103dc610513366004612907565b6120f7565b61025a61052636600461276c565b61215e565b610286610539366004612907565b612236565b61028661054c36600461276c565b612270565b61025a6103e881565b6105626124de565b6008805460ff19168215159081179091556040519081527fbd466af87c4fabd1fa3d061817020a39c29d7986649f582f9f405c8eb8aa7c0b9060200160405180910390a150565b6006602052815f5260405f2081815481106105c2575f80fd5b905f5260205f20015f91509150505481565b6105dc61250a565b60085460ff16156106085760405162461bcd60e51b81526004016105ff90612a93565b60405180910390fd5b5f81815260046020526040812080549091036106365760405162461bcd60e51b81526004016105ff90612ab8565b5f600a82015460ff166003811115610650576106506127e5565b1461066d5760405162461bcd60e51b81526004016105ff90612ae0565b80600701544210156106b85760405162461bcd60e51b8152602060048201526014602482015273131bd85b881b9bdd081e595d081b585d1d5c995960621b60448201526064016105ff565b604080516101a081018252825481526001830154602082015260028301546001600160a01b03908116928201929092526003808401548316606083015260048401546080830152600584015460a0830152600684015460c0830152600784015460e083015260088401549092166101008201526009830154610120820152600a8301545f9261078b9291859161014084019160ff169081111561075d5761075d6127e5565b600381111561076e5761076e6127e5565b8152602001600b8201548152602001600c82015481525050612525565b600983015490915080156108905760025460018401546008850154600986015460405163b7b22e4560e01b81526001600160a01b039485169463b7b22e45946107dd9490939116913390600401612b09565b5f604051808303815f87803b1580156107f4575f80fd5b505af1158015610806573d5f803e3d5ffd5b505050505f6127106103e861271061081e9190612b44565b6108289084612b5d565b6108329190612b74565b90508281116108415780610843565b825b600c85018190559050801561088e57600284015461088e906001600160a01b037f000000000000000000000000000000000000000000000000000000000000000081169116836125a9565b505b600a8301805460ff191660031790556001830154600c84015485907fc919e789b9f532c4a0731fa10b5d5af1ccb639d94d9c968cc62354356327027d906108d79086612b44565b60405190815260200160405180910390a350505061090160015f80516020612c3c83398151915255565b50565b61096f604080516101a0810182525f80825260208201819052918101829052606081018290526080810182905260a0810182905260c0810182905260e08101829052610100810182905261012081018290529061014082019081526020015f81526020015f81525090565b5f828152600460205260408120805490910361099d5760405162461bcd60e51b81526004016105ff90612ab8565b604080516101a081018252825481526001830154602082015260028301546001600160a01b03908116928201929092526003808401548316606083015260048401546080830152600584015460a0830152600684015460c0830152600784015460e083015260088401549092166101008201526009830154610120820152600a8301549091839161014084019160ff90911690811115610a3f57610a3f6127e5565b6003811115610a5057610a506127e5565b8152600b8201546020820152600c909101546040909101529392505050565b610a776124de565b610a805f6125e3565b565b6005602052815f5260405f2081815481106105c2575f80fd5b610aa36124de565b6001600160a01b038116610aeb5760405162461bcd60e51b815260206004820152600f60248201526e24b73b30b634b21036b0b730b3b2b960891b60448201526064016105ff565b600280546001600160a01b0319166001600160a01b0392909216919091179055565b610b156124de565b610b3a610b295f546001600160a01b031690565b6001600160a01b03841690836125a9565b5050565b610b4661250a565b60085460ff1615610b695760405162461bcd60e51b81526004016105ff90612a93565b5f8181526004602052604081208054909103610b975760405162461bcd60e51b81526004016105ff90612ab8565b5f600a82015460ff166003811115610bb157610bb16127e5565b14610bce5760405162461bcd60e51b81526004016105ff90612ae0565b604080516101a081018252825481526001830154602082015260028301546001600160a01b03908116928201929092526003808401548316606083015260048401546080830152600584015460a0830152600684015460c0830152600784015460e083015260088401549092166101008201526009830154610120820152600a8301545f92610c739291859161014084019160ff169081111561075d5761075d6127e5565b90505f82600401548211610c87575f610c96565b6004830154610c969083612b44565b90505f612710610ca7603284612b5d565b610cb19190612b74565b90505f610cbe8285612b93565b9050610cf56001600160a01b037f000000000000000000000000000000000000000000000000000000000000000016333084612632565b5f610d008385612b44565b90505f818760040154610d139190612b93565b6002880154909150610d52906001600160a01b037f000000000000000000000000000000000000000000000000000000000000000081169116836125a9565b8315610dd857610d9d610d6c5f546001600160a01b031690565b6001600160a01b037f00000000000000000000000000000000000000000000000000000000000000001690866125a9565b877f8b33e5d3f2111dbe0069093632772b6795dfdaa7282cb1d39582c0ca4127edbb85604051610dcf91815260200190565b60405180910390a25b600a8701805460ff19166001908117909155600b8801849055600280549189015460088a015460098b0154928b0154604051638722d16160e01b81526001600160a01b0395861695638722d16195610e3b95948216939092911690600401612b09565b5f604051808303815f87803b158015610e52575f80fd5b505af1158015610e64573d5f803e3d5ffd5b50505050600187015460048801546040805191825260208201889052810186905289907f4d5043f65d3a5ab9159e17c198ff42bd524b479356907797e7da43411f088dee9060600160405180910390a35050505050505061090160015f80516020612c3c83398151915255565b5f81815260056020908152604091829020805483518184028101840190945280845260609392830182828015610f2457602002820191905f5260205f20905b815481526020019060010190808311610f10575b50505050509050919050565b610f386124de565b6001600160a01b038116610f7f5760405162461bcd60e51b815260206004820152600e60248201526d496e76616c6964206f7261636c6560901b60448201526064016105ff565b600180546001600160a01b0319166001600160a01b0392909216919091179055565b610fa961250a565b60085460ff1615610fcc5760405162461bcd60e51b81526004016105ff90612a93565b5f8181526004602052604081208054909103610ffa5760405162461bcd60e51b81526004016105ff90612ab8565b5f600a82015460ff166003811115611014576110146127e5565b146110315760405162461bcd60e51b81526004016105ff90612ae0565b604080516101a081018252825481526001830154602082015260028301546001600160a01b03908116928201929092526003808401548316606083015260048401546080830152600584015460a0830152600684015460c0830152600784015460e083015260088401549092166101008201526009830154610120820152600a8301545f926110d69291859161014084019160ff169081111561075d5761075d6127e5565b60098301549091505f6127106110ee611f4085612b5d565b6110f89190612b74565b90508082106111545760405162461bcd60e51b815260206004820152602260248201527f506f736974696f6e2061646571756174656c7920636f6c6c61746572616c697a604482015261195960f21b60648201526084016105ff565b60098401546002546001860154600887015460405163b7b22e4560e01b81526001600160a01b039384169363b7b22e459361119a93909291169086903390600401612b09565b5f604051808303815f87803b1580156111b1575f80fd5b505af11580156111c3573d5f803e3d5ffd5b505050505f6127106103e86127106111db9190612b44565b6111e59084612b5d565b6111ef9190612b74565b90508481116111fe5780611200565b845b600a8701805460ff19166002179055600c87018190559050801561125a57600286015461125a906001600160a01b037f000000000000000000000000000000000000000000000000000000000000000081169116836125a9565b600186015460408051848152602081018490523392918a917fe306c3400e9f025a5c5498cacb828224c0a8047852368d41351ad81a2940208a910160405180910390a450505050505061090160015f80516020612c3c83398151915255565b5f6112c261250a565b60085460ff16156113045760405162461bcd60e51b815260206004820152600c60248201526b141bdbdb125cd4185d5cd95960a21b60448201526064016105ff565b5f861161134b5760405162461bcd60e51b815260206004820152601560248201527405072696e636970616c206d757374206265203e203605c1b60448201526064016105ff565b6064851015801561135e57506113888511155b6113a25760405162461bcd60e51b8152602060048201526015602482015274496e76616c696420696e746572657374207261746560581b60448201526064016105ff565b6201518084101580156113b957506301e133808411155b6113f85760405162461bcd60e51b815260206004820152601060248201526f24b73b30b634b210323ab930ba34b7b760811b60448201526064016105ff565b5f82116114405760405162461bcd60e51b81526020600482015260166024820152750436f6c6c61746572616c206d757374206265203e20360541b60448201526064016105ff565b6001600160a01b0387166114915760405162461bcd60e51b8152602060048201526018602482015277496e76616c696420626f72726f776572206164647265737360401b60448201526064016105ff565b600154604051637ba5328560e01b8152600481018a90525f9182916001600160a01b0390911690637ba5328590602401606060405180830381865afa1580156114dc573d5f803e3d5ffd5b505050506040513d601f19601f820116820180604052508101906115009190612ba6565b92505091505f82116115495760405162461bcd60e51b81526020600482015260126024820152714e6f2076616c6964204143532073636f726560701b60448201526064016105ff565b42811161158c5760405162461bcd60e51b81526020600482015260116024820152701050d4c81cd8dbdc9948195e1c1a5c9959607a1b60448201526064016105ff565b600254604051635fd1a5f560e01b8152600481018a9052602481018490525f916001600160a01b031690635fd1a5f590604401602060405180830381865afa1580156115da573d5f803e3d5ffd5b505050506040513d601f19601f820116820180604052508101906115fe9190612bd1565b9050808510156116505760405162461bcd60e51b815260206004820152601760248201527f496e73756666696369656e7420636f6c6c61746572616c00000000000000000060448201526064016105ff565b6002546040516352cccdb360e01b8152600481018d90526001600160a01b03888116602483015260448201889052909116906352cccdb3906064015f604051808303815f87803b1580156116a2575f80fd5b505af11580156116b4573d5f803e3d5ffd5b506116ef9250506001600160a01b037f0000000000000000000000000000000000000000000000000000000000000000169050338c8c612632565b5f8b815260076020526040812080546001600160a01b0319166001600160a01b038d161790556003805490919061172590612be8565b91829055509350425f6117388983612b93565b9050604051806101a001604052808781526020018e8152602001336001600160a01b031681526020017f00000000000000000000000000000000000000000000000000000000000000006001600160a01b031681526020018c81526020018b8152602001838152602001828152602001896001600160a01b031681526020018881526020015f60038111156117cf576117cf6127e5565b81525f602080830182905260409283018290528982526004808252918390208451815590840151600180830191909155928401516002820180546001600160a01b039283166001600160a01b0319918216179091556060860151600380850180549285169284169290921790915560808701519484019490945560a0860151600584015560c0860151600684015560e086015160078401556101008601516008840180549190931691161790556101208401516009820155610140840151600a8201805492949193909260ff1916919084908111156118b0576118b06127e5565b021790555061016082015181600b015561018082015181600c015590505060055f8e81526020019081526020015f2086908060018154018082558091505060019003905f5260205f20015f909190919091505560065f336001600160a01b03166001600160a01b031681526020019081526020015f2086908060018154018082558091505060019003905f5260205f20015f9091909190915055336001600160a01b03168d877f807df2790aa735a9c0345b51179877668a2e45f1b28412f94c73d0d3f57764f47f00000000000000000000000000000000000000000000000000000000000000008f8f878f8f6040516119af96959493929190612c00565b60405180910390a450505050506119d260015f80516020612c3c83398151915255565b979650505050505050565b5f6119e661250a565b60085460ff1615611a285760405162461bcd60e51b815260206004820152600c60248201526b141bdbdb125cd4185d5cd95960a21b60448201526064016105ff565b5f8511611a6f5760405162461bcd60e51b815260206004820152601560248201527405072696e636970616c206d757374206265203e203605c1b60448201526064016105ff565b60648410158015611a8257506113888411155b611ac65760405162461bcd60e51b8152602060048201526015602482015274496e76616c696420696e746572657374207261746560581b60448201526064016105ff565b620151808310158015611add57506301e133808311155b611b1c5760405162461bcd60e51b815260206004820152601060248201526f24b73b30b634b210323ab930ba34b7b760811b60448201526064016105ff565b6001600160a01b038616611b6d5760405162461bcd60e51b8152602060048201526018602482015277496e76616c696420626f72726f776572206164647265737360401b60448201526064016105ff565b600154604051637ba5328560e01b8152600481018990525f91829182916001600160a01b031690637ba5328590602401606060405180830381865afa158015611bb8573d5f803e3d5ffd5b505050506040513d601f19601f82011682018060405250810190611bdc9190612ba6565b9250925092505f8311611c265760405162461bcd60e51b81526020600482015260126024820152714e6f2076616c6964204143532073636f726560701b60448201526064016105ff565b428111611c695760405162461bcd60e51b81526020600482015260116024820152701050d4c81cd8dbdc9948195e1c1a5c9959607a1b60448201526064016105ff565b600254604051635fd1a5f560e01b8152600481018a9052602481018590525f916001600160a01b031690635fd1a5f590604401602060405180830381865afa158015611cb7573d5f803e3d5ffd5b505050506040513d601f19601f82011682018060405250810190611cdb9190612bd1565b6002546040516352cccdb360e01b8152600481018e90526001600160a01b038981166024830152604482018490529293509116906352cccdb3906064015f604051808303815f87803b158015611d2f575f80fd5b505af1158015611d41573d5f803e3d5ffd5b50611d7c9250506001600160a01b037f0000000000000000000000000000000000000000000000000000000000000000169050338c8c612632565b5f8b815260076020526040812080546001600160a01b0319166001600160a01b038d1617905560038054909190611db290612be8565b91829055509450425f611dc58983612b93565b9050604051806101a001604052808881526020018e8152602001336001600160a01b031681526020017f00000000000000000000000000000000000000000000000000000000000000006001600160a01b031681526020018c81526020018b8152602001838152602001828152602001896001600160a01b031681526020018481526020015f6003811115611e5c57611e5c6127e5565b81525f602080830182905260409283018290528a82526004808252918390208451815590840151600180830191909155928401516002820180546001600160a01b039283166001600160a01b0319918216179091556060860151600380850180549285169284169290921790915560808701519484019490945560a0860151600584015560c0860151600684015560e086015160078401556101008601516008840180549190931691161790556101208401516009820155610140840151600a8201805492949193909260ff191691908490811115611f3d57611f3d6127e5565b021790555061016082015181600b015561018082015181600c015590505060055f8e81526020019081526020015f2087908060018154018082558091505060019003905f5260205f20015f909190919091505560065f336001600160a01b03166001600160a01b031681526020019081526020015f2087908060018154018082558091505060019003905f5260205f20015f9091909190915055336001600160a01b03168d887f807df2790aa735a9c0345b51179877668a2e45f1b28412f94c73d0d3f57764f47f00000000000000000000000000000000000000000000000000000000000000008f8f878f8b60405161203c96959493929190612c00565b60405180910390a450505050505061206060015f80516020612c3c83398151915255565b9695505050505050565b6040516370a0823160e01b81523060048201525f907f00000000000000000000000000000000000000000000000000000000000000006001600160a01b0316906370a0823190602401602060405180830381865afa1580156120ce573d5f803e3d5ffd5b505050506040513d601f19601f820116820180604052508101906120f29190612bd1565b905090565b6001600160a01b0381165f90815260066020908152604091829020805483518184028101840190945280845260609392830182828015610f2457602002820191905f5260205f2090815481526020019060010190808311610f105750505050509050919050565b5f8181526004602052604081208054820361218b5760405162461bcd60e51b81526004016105ff90612ab8565b604080516101a081018252825481526001830154602082015260028301546001600160a01b03908116928201929092526003808401548316606083015260048401546080830152600584015460a0830152600684015460c0830152600784015460e083015260088401549092166101008201526009830154610120820152600a83015461222f92849161014084019160ff9091169081111561075d5761075d6127e5565b9392505050565b61223e6124de565b6001600160a01b03811661226757604051631e4fbdf760e01b81525f60048201526024016105ff565b610901816125e3565b61227861250a565b5f81815260046020526040812080549091036122a65760405162461bcd60e51b81526004016105ff90612ab8565b60018101545f908152600760205260409020546001600160a01b03168061230f5760405162461bcd60e51b815260206004820152601860248201527f426f72726f7765722061646472657373206e6f7420736574000000000000000060448201526064016105ff565b336001600160a01b038216146123675760405162461bcd60e51b815260206004820152601760248201527f4f6e6c7920626f72726f7765722063616e20636c61696d00000000000000000060448201526064016105ff565b6040516370a0823160e01b81523060048201525f907f00000000000000000000000000000000000000000000000000000000000000006001600160a01b0316906370a0823190602401602060405180830381865afa1580156123cb573d5f803e3d5ffd5b505050506040513d601f19601f820116820180604052508101906123ef9190612bd1565b9050826004015481101561243d5760405162461bcd60e51b81526020600482015260156024820152744e6f207072696e636970616c20746f20636c61696d60581b60448201526064016105ff565b6004830154612478906001600160a01b037f0000000000000000000000000000000000000000000000000000000000000000169084906125a9565b816001600160a01b03168360010154857f305492c47e905b34c73435bbc694dc56d75e3dc3a26c6a260d123c98108ac03586600401546040516124bd91815260200190565b60405180910390a450505061090160015f80516020612c3c83398151915255565b5f546001600160a01b03163314610a805760405163118cdaa760e01b81523360048201526024016105ff565b61251261266e565b60025f80516020612c3c83398151915255565b5f808260e00151421061254d578260c001518360e001516125469190612b44565b905061255f565b60c083015161255c9042612b44565b90505b5f64496cebb800828560a00151866080015161257b9190612b5d565b6125859190612b5d565b61258f9190612b74565b90508084608001516125a19190612b93565b949350505050565b6125b6838383600161269d565b6125de57604051635274afe760e01b81526001600160a01b03841660048201526024016105ff565b505050565b5f80546001600160a01b038381166001600160a01b0319831681178455604051919092169283917f8be0079c531659141344cd1fd0a4f28419497f9722a3daafe3b4186f6b6457e09190a35050565b6126408484848460016126ff565b61266857604051635274afe760e01b81526001600160a01b03851660048201526024016105ff565b50505050565b5f80516020612c3c83398151915254600203610a8057604051633ee5aeb560e01b815260040160405180910390fd5b60405163a9059cbb60e01b5f8181526001600160a01b038616600452602485905291602083604481808b5af1925060015f511483166126f35783831516156126e7573d5f823e3d81fd5b5f873b113d1516831692505b60405250949350505050565b6040516323b872dd60e01b5f8181526001600160a01b038781166004528616602452604485905291602083606481808c5af1925060015f5114831661275b57838315161561274f573d5f823e3d81fd5b5f883b113d1516831692505b604052505f60605295945050505050565b5f6020828403121561277c575f80fd5b5035919050565b5f60208284031215612793575f80fd5b8135801515811461222f575f80fd5b80356001600160a01b03811681146127b8575f80fd5b919050565b5f80604083850312156127ce575f80fd5b6127d7836127a2565b946020939093013593505050565b634e487b7160e01b5f52602160045260245ffd5b6004811061281557634e487b7160e01b5f52602160045260245ffd5b9052565b5f6101a0820190508251825260208301516020830152604083015161284960408401826001600160a01b03169052565b50606083015161286460608401826001600160a01b03169052565b506080830151608083015260a083015160a083015260c083015160c083015260e083015160e0830152610100808401516128a8828501826001600160a01b03169052565b50506101208381015190830152610140808401516128c8828501826127f9565b5050610160838101519083015261018092830151929091019190915290565b5f80604083850312156128f8575f80fd5b50508035926020909101359150565b5f60208284031215612917575f80fd5b61222f826127a2565b602080825282518282018190525f9190848201906040850190845b818110156129575783518352928401929184019160010161293b565b50909695505050505050565b8d8152602081018d90526001600160a01b038c811660408301528b81166060830152608082018b905260a082018a905260c0820189905260e08201889052861661010082015261012081018590526101a081016129c46101408301866127f9565b61016082019390935261018001529b9a5050505050505050505050565b5f805f805f805f60e0888a0312156129f7575f80fd5b87359650612a07602089016127a2565b9550604088013594506060880135935060808801359250612a2a60a089016127a2565b915060c0880135905092959891949750929550565b5f805f805f8060c08789031215612a54575f80fd5b86359550612a64602088016127a2565b9450604087013593506060870135925060808701359150612a8760a088016127a2565b90509295509295509295565b6020808252600b908201526a141bdbdb081c185d5cd95960aa1b604082015260600190565b6020808252600e908201526d131bd85b881b9bdd08199bdd5b9960921b604082015260600190565b6020808252600f908201526e4c6f616e206e6f742061637469766560881b604082015260600190565b9384526001600160a01b039283166020850152604084019190915216606082015260800190565b634e487b7160e01b5f52601160045260245ffd5b81810381811115612b5757612b57612b30565b92915050565b8082028115828204841417612b5757612b57612b30565b5f82612b8e57634e487b7160e01b5f52601260045260245ffd5b500490565b80820180821115612b5757612b57612b30565b5f805f60608486031215612bb8575f80fd5b8351925060208401519150604084015190509250925092565b5f60208284031215612be1575f80fd5b5051919050565b5f60018201612bf957612bf9612b30565b5060010190565b6001600160a01b039687168152602081019590955260408501939093526060840191909152909216608082015260a081019190915260c0019056fe9b779b17422d0df92223018b32b4d1fa46e071723d6817e2486d003becc55f00a2646970667358221220985dd1d01ebce3f5e1981ffa9f3335a0e398949c59453fe5b8750032b6e6f23e64736f6c63430008180033","opcodes":"PUSH1 0xA0 PUSH1 0x40 MSTORE CALLVALUE DUP1 ISZERO PUSH3 0x10 JUMPI PUSH0 DUP1 REVERT JUMPDEST POP PUSH1 0x40 MLOAD PUSH3 0x2F71 CODESIZE SUB DUP1 PUSH3 0x2F71 DUP4 CODECOPY DUP2 ADD PUSH1 0x40 DUP2 SWAP1 MSTORE PUSH3 0x33 SWAP2 PUSH3 0x21E JUMP JUMPDEST CALLER DUP1 PUSH3 0x5A JUMPI PUSH1 0x40 MLOAD PUSH4 0x1E4FBDF7 PUSH1 0xE0 SHL DUP2 MSTORE PUSH0 PUSH1 0x4 DUP3 ADD MSTORE PUSH1 0x24 ADD JUMPDEST PUSH1 0x40 MLOAD DUP1 SWAP2 SUB SWAP1 REVERT JUMPDEST PUSH3 0x65 DUP2 PUSH3 0x1B3 JUMP JUMPDEST POP PUSH1 0x1 PUSH32 0x9B779B17422D0DF92223018B32B4D1FA46E071723D6817E2486D003BECC55F00 SSTORE PUSH1 0x1 PUSH1 0x1 PUSH1 0xA0 SHL SUB DUP4 AND PUSH3 0xD7 JUMPI PUSH1 0x40 MLOAD PUSH3 0x461BCD PUSH1 0xE5 SHL DUP2 MSTORE PUSH1 0x20 PUSH1 0x4 DUP3 ADD MSTORE PUSH1 0x12 PUSH1 0x24 DUP3 ADD MSTORE PUSH18 0x24B73B30B634B2103130B9B2903A37B5B2B7 PUSH1 0x71 SHL PUSH1 0x44 DUP3 ADD MSTORE PUSH1 0x64 ADD PUSH3 0x51 JUMP JUMPDEST PUSH1 0x1 PUSH1 0x1 PUSH1 0xA0 SHL SUB DUP3 AND PUSH3 0x124 JUMPI PUSH1 0x40 MLOAD PUSH3 0x461BCD PUSH1 0xE5 SHL DUP2 MSTORE PUSH1 0x20 PUSH1 0x4 DUP3 ADD MSTORE PUSH1 0x12 PUSH1 0x24 DUP3 ADD MSTORE PUSH18 0x496E76616C696420414353204F7261636C65 PUSH1 0x70 SHL PUSH1 0x44 DUP3 ADD MSTORE PUSH1 0x64 ADD PUSH3 0x51 JUMP JUMPDEST PUSH1 0x1 PUSH1 0x1 PUSH1 0xA0 SHL SUB DUP2 AND PUSH3 0x17C JUMPI PUSH1 0x40 MLOAD PUSH3 0x461BCD PUSH1 0xE5 SHL DUP2 MSTORE PUSH1 0x20 PUSH1 0x4 DUP3 ADD MSTORE PUSH1 0x1A PUSH1 0x24 DUP3 ADD MSTORE PUSH32 0x496E76616C696420436F6C6C61746572616C204D616E61676572000000000000 PUSH1 0x44 DUP3 ADD MSTORE PUSH1 0x64 ADD PUSH3 0x51 JUMP JUMPDEST PUSH1 0x1 PUSH1 0x1 PUSH1 0xA0 SHL SUB SWAP3 DUP4 AND PUSH1 0x80 MSTORE PUSH1 0x1 DUP1 SLOAD SWAP3 DUP5 AND PUSH1 0x1 PUSH1 0x1 PUSH1 0xA0 SHL SUB NOT SWAP4 DUP5 AND OR SWAP1 SSTORE PUSH1 0x2 DUP1 SLOAD SWAP2 SWAP1 SWAP4 AND SWAP2 AND OR SWAP1 SSTORE PUSH3 0x265 JUMP JUMPDEST PUSH0 DUP1 SLOAD PUSH1 0x1 PUSH1 0x1 PUSH1 0xA0 SHL SUB DUP4 DUP2 AND PUSH1 0x1 PUSH1 0x1 PUSH1 0xA0 SHL SUB NOT DUP4 AND DUP2 OR DUP5 SSTORE PUSH1 0x40 MLOAD SWAP2 SWAP1 SWAP3 AND SWAP3 DUP4 SWAP2 PUSH32 0x8BE0079C531659141344CD1FD0A4F28419497F9722A3DAAFE3B4186F6B6457E0 SWAP2 SWAP1 LOG3 POP POP JUMP JUMPDEST DUP1 MLOAD PUSH1 0x1 PUSH1 0x1 PUSH1 0xA0 SHL SUB DUP2 AND DUP2 EQ PUSH3 0x219 JUMPI PUSH0 DUP1 REVERT JUMPDEST SWAP2 SWAP1 POP JUMP JUMPDEST PUSH0 DUP1 PUSH0 PUSH1 0x60 DUP5 DUP7 SUB SLT ISZERO PUSH3 0x231 JUMPI PUSH0 DUP1 REVERT JUMPDEST PUSH3 0x23C DUP5 PUSH3 0x202 JUMP JUMPDEST SWAP3 POP PUSH3 0x24C PUSH1 0x20 DUP6 ADD PUSH3 0x202 JUMP JUMPDEST SWAP2 POP PUSH3 0x25C PUSH1 0x40 DUP6 ADD PUSH3 0x202 JUMP JUMPDEST SWAP1 POP SWAP3 POP SWAP3 POP SWAP3 JUMP JUMPDEST PUSH1 0x80 MLOAD PUSH2 0x2C91 PUSH3 0x2E0 PUSH0 CODECOPY PUSH0 DUP2 DUP2 PUSH2 0x3EE ADD MSTORE DUP2 DUP2 PUSH2 0x865 ADD MSTORE DUP2 DUP2 PUSH2 0xCCD ADD MSTORE DUP2 DUP2 PUSH2 0xD29 ADD MSTORE DUP2 DUP2 PUSH2 0xD76 ADD MSTORE DUP2 DUP2 PUSH2 0x1231 ADD MSTORE DUP2 DUP2 PUSH2 0x16C5 ADD MSTORE DUP2 DUP2 PUSH2 0x1763 ADD MSTORE DUP2 DUP2 PUSH2 0x1979 ADD MSTORE DUP2 DUP2 PUSH2 0x1D52 ADD MSTORE DUP2 DUP2 PUSH2 0x1DF0 ADD MSTORE DUP2 DUP2 PUSH2 0x2006 ADD MSTORE DUP2 DUP2 PUSH2 0x2081 ADD MSTORE DUP2 DUP2 PUSH2 0x237E ADD MSTORE PUSH2 0x2450 ADD MSTORE PUSH2 0x2C91 PUSH0 RETURN INVALID PUSH1 0x80 PUSH1 0x40 MSTORE CALLVALUE DUP1 ISZERO PUSH2 0xF JUMPI PUSH0 DUP1 REVERT JUMPDEST POP PUSH1 0x4 CALLDATASIZE LT PUSH2 0x208 JUMPI PUSH0 CALLDATALOAD PUSH1 0xE0 SHR DUP1 PUSH4 0x95CCEA67 GT PUSH2 0x11F JUMPI DUP1 PUSH4 0xE1EC3C68 GT PUSH2 0xA9 JUMPI DUP1 PUSH4 0xEEEB0C17 GT PUSH2 0x79 JUMPI DUP1 PUSH4 0xEEEB0C17 EQ PUSH2 0x505 JUMPI DUP1 PUSH4 0xF1D0EF81 EQ PUSH2 0x518 JUMPI DUP1 PUSH4 0xF2FDE38B EQ PUSH2 0x52B JUMPI DUP1 PUSH4 0xF9AF0579 EQ PUSH2 0x53E JUMPI DUP1 PUSH4 0xFC54DDFB EQ PUSH2 0x551 JUMPI PUSH0 DUP1 REVERT JUMPDEST DUP1 PUSH4 0xE1EC3C68 EQ PUSH2 0x436 JUMPI DUP1 PUSH4 0xE2460477 EQ PUSH2 0x4D7 JUMPI DUP1 PUSH4 0xE8CF681B EQ PUSH2 0x4EA JUMPI DUP1 PUSH4 0xEA7DB131 EQ PUSH2 0x4FD JUMPI PUSH0 DUP1 REVERT JUMPDEST DUP1 PUSH4 0xBE378228 GT PUSH2 0xEF JUMPI DUP1 PUSH4 0xBE378228 EQ PUSH2 0x3C1 JUMPI DUP1 PUSH4 0xBE5C6A64 EQ PUSH2 0x3C9 JUMPI DUP1 PUSH4 0xC55DAE63 EQ PUSH2 0x3E9 JUMPI DUP1 PUSH4 0xCCC855F6 EQ PUSH2 0x410 JUMPI DUP1 PUSH4 0xCCDD9F5D EQ PUSH2 0x423 JUMPI PUSH0 DUP1 REVERT JUMPDEST DUP1 PUSH4 0x95CCEA67 EQ PUSH2 0x36B JUMPI DUP1 PUSH4 0xAB7B1C89 EQ PUSH2 0x37E JUMPI DUP1 PUSH4 0xB71AA4D5 EQ PUSH2 0x391 JUMPI DUP1 PUSH4 0xBC6829B1 EQ PUSH2 0x399 JUMPI PUSH0 DUP1 REVERT JUMPDEST DUP1 PUSH4 0x4AF37B23 GT PUSH2 0x1A0 JUMPI DUP1 PUSH4 0x715018A6 GT PUSH2 0x170 JUMPI DUP1 PUSH4 0x715018A6 EQ PUSH2 0x323 JUMPI DUP1 PUSH4 0x74A49997 EQ PUSH2 0x32B JUMPI DUP1 PUSH4 0x842A05D4 EQ PUSH2 0x33E JUMPI DUP1 PUSH4 0x89D99A05 EQ PUSH2 0x351 JUMPI DUP1 PUSH4 0x8DA5CB5B EQ PUSH2 0x35B JUMPI PUSH0 DUP1 REVERT JUMPDEST DUP1 PUSH4 0x4AF37B23 EQ PUSH2 0x2CA JUMPI DUP1 PUSH4 0x504006CA EQ PUSH2 0x2DD JUMPI DUP1 PUSH4 0x5C975ABB EQ PUSH2 0x2FD JUMPI DUP1 PUSH4 0x709AE441 EQ PUSH2 0x31A JUMPI PUSH0 DUP1 REVERT JUMPDEST DUP1 PUSH4 0x23BE345C GT PUSH2 0x1DB JUMPI DUP1 PUSH4 0x23BE345C EQ PUSH2 0x288 JUMPI DUP1 PUSH4 0x34D9289E EQ PUSH2 0x29B JUMPI DUP1 PUSH4 0x3CDB72F1 EQ PUSH2 0x2A4 JUMPI DUP1 PUSH4 0x467BDC04 EQ PUSH2 0x2B7 JUMPI PUSH0 DUP1 REVERT JUMPDEST DUP1 PUSH4 0x35B209D EQ PUSH2 0x20C JUMPI DUP1 PUSH4 0xC6D5A58 EQ PUSH2 0x251 JUMPI DUP1 PUSH4 0xD0B2CA6 EQ PUSH2 0x268 JUMPI DUP1 PUSH4 0x16C38B3C EQ PUSH2 0x273 JUMPI JUMPDEST PUSH0 DUP1 REVERT JUMPDEST PUSH2 0x234 PUSH2 0x21A CALLDATASIZE PUSH1 0x4 PUSH2 0x276C JUMP JUMPDEST PUSH0 SWAP1 DUP2 MSTORE PUSH1 0x7 PUSH1 0x20 MSTORE PUSH1 0x40 SWAP1 KECCAK256 SLOAD PUSH1 0x1 PUSH1 0x1 PUSH1 0xA0 SHL SUB AND SWAP1 JUMP JUMPDEST PUSH1 0x40 MLOAD PUSH1 0x1 PUSH1 0x1 PUSH1 0xA0 SHL SUB SWAP1 SWAP2 AND DUP2 MSTORE PUSH1 0x20 ADD JUMPDEST PUSH1 0x40 MLOAD DUP1 SWAP2 SUB SWAP1 RETURN JUMPDEST PUSH2 0x25A PUSH2 0x1F40 DUP2 JUMP JUMPDEST PUSH1 0x40 MLOAD SWAP1 DUP2 MSTORE PUSH1 0x20 ADD PUSH2 0x248 JUMP JUMPDEST PUSH2 0x25A PUSH4 0x1E13380 DUP2 JUMP JUMPDEST PUSH2 0x286 PUSH2 0x281 CALLDATASIZE PUSH1 0x4 PUSH2 0x2783 JUMP JUMPDEST PUSH2 0x55A JUMP JUMPDEST STOP JUMPDEST PUSH1 0x2 SLOAD PUSH2 0x234 SWAP1 PUSH1 0x1 PUSH1 0x1 PUSH1 0xA0 SHL SUB AND DUP2 JUMP JUMPDEST PUSH2 0x25A PUSH1 0x3 SLOAD DUP2 JUMP JUMPDEST PUSH2 0x25A PUSH2 0x2B2 CALLDATASIZE PUSH1 0x4 PUSH2 0x27BD JUMP JUMPDEST PUSH2 0x5A9 JUMP JUMPDEST PUSH1 0x1 SLOAD PUSH2 0x234 SWAP1 PUSH1 0x1 PUSH1 0x1 PUSH1 0xA0 SHL SUB AND DUP2 JUMP JUMPDEST PUSH2 0x286 PUSH2 0x2D8 CALLDATASIZE PUSH1 0x4 PUSH2 0x276C JUMP JUMPDEST PUSH2 0x5D4 JUMP JUMPDEST PUSH2 0x2F0 PUSH2 0x2EB CALLDATASIZE PUSH1 0x4 PUSH2 0x276C JUMP JUMPDEST PUSH2 0x904 JUMP JUMPDEST PUSH1 0x40 MLOAD PUSH2 0x248 SWAP2 SWAP1 PUSH2 0x2819 JUMP JUMPDEST PUSH1 0x8 SLOAD PUSH2 0x30A SWAP1 PUSH1 0xFF AND DUP2 JUMP JUMPDEST PUSH1 0x40 MLOAD SWAP1 ISZERO ISZERO DUP2 MSTORE PUSH1 0x20 ADD PUSH2 0x248 JUMP JUMPDEST PUSH2 0x25A PUSH2 0x1388 DUP2 JUMP JUMPDEST PUSH2 0x286 PUSH2 0xA6F JUMP JUMPDEST PUSH2 0x25A PUSH2 0x339 CALLDATASIZE PUSH1 0x4 PUSH2 0x28E7 JUMP JUMPDEST PUSH2 0xA82 JUMP JUMPDEST PUSH2 0x286 PUSH2 0x34C CALLDATASIZE PUSH1 0x4 PUSH2 0x2907 JUMP JUMPDEST PUSH2 0xA9B JUMP JUMPDEST PUSH2 0x25A PUSH3 0x15180 DUP2 JUMP JUMPDEST PUSH0 SLOAD PUSH1 0x1 PUSH1 0x1 PUSH1 0xA0 SHL SUB AND PUSH2 0x234 JUMP JUMPDEST PUSH2 0x286 PUSH2 0x379 CALLDATASIZE PUSH1 0x4 PUSH2 0x27BD JUMP JUMPDEST PUSH2 0xB0D JUMP JUMPDEST PUSH2 0x286 PUSH2 0x38C CALLDATASIZE PUSH1 0x4 PUSH2 0x276C JUMP JUMPDEST PUSH2 0xB3E JUMP JUMPDEST PUSH2 0x25A PUSH1 0x64 DUP2 JUMP JUMPDEST PUSH2 0x234 PUSH2 0x3A7 CALLDATASIZE PUSH1 0x4 PUSH2 0x276C JUMP JUMPDEST PUSH1 0x7 PUSH1 0x20 MSTORE PUSH0 SWAP1 DUP2 MSTORE PUSH1 0x40 SWAP1 KECCAK256 SLOAD PUSH1 0x1 PUSH1 0x1 PUSH1 0xA0 SHL SUB AND DUP2 JUMP JUMPDEST PUSH2 0x25A PUSH1 0x32 DUP2 JUMP JUMPDEST PUSH2 0x3DC PUSH2 0x3D7 CALLDATASIZE PUSH1 0x4 PUSH2 0x276C JUMP JUMPDEST PUSH2 0xED1 JUMP JUMPDEST PUSH1 0x40 MLOAD PUSH2 0x248 SWAP2 SWAP1 PUSH2 0x2920 JUMP JUMPDEST PUSH2 0x234 PUSH32 0x0 DUP2 JUMP JUMPDEST PUSH2 0x286 PUSH2 0x41E CALLDATASIZE PUSH1 0x4 PUSH2 0x2907 JUMP JUMPDEST PUSH2 0xF30 JUMP JUMPDEST PUSH2 0x286 PUSH2 0x431 CALLDATASIZE PUSH1 0x4 PUSH2 0x276C JUMP JUMPDEST PUSH2 0xFA1 JUMP JUMPDEST PUSH2 0x4BE PUSH2 0x444 CALLDATASIZE PUSH1 0x4 PUSH2 0x276C JUMP JUMPDEST PUSH1 0x4 PUSH1 0x20 DUP2 SWAP1 MSTORE PUSH0 SWAP2 DUP3 MSTORE PUSH1 0x40 SWAP1 SWAP2 KECCAK256 DUP1 SLOAD PUSH1 0x1 DUP3 ADD SLOAD PUSH1 0x2 DUP4 ADD SLOAD PUSH1 0x3 DUP5 ADD SLOAD SWAP5 DUP5 ADD SLOAD PUSH1 0x5 DUP6 ADD SLOAD PUSH1 0x6 DUP7 ADD SLOAD PUSH1 0x7 DUP8 ADD SLOAD PUSH1 0x8 DUP9 ADD SLOAD PUSH1 0x9 DUP10 ADD SLOAD PUSH1 0xA DUP11 ADD SLOAD PUSH1 0xB DUP12 ADD SLOAD PUSH1 0xC SWAP1 SWAP12 ADD SLOAD SWAP10 SWAP12 SWAP9 SWAP11 PUSH1 0x1 PUSH1 0x1 PUSH1 0xA0 SHL SUB SWAP9 DUP10 AND SWAP11 SWAP10 DUP10 AND SWAP10 SWAP8 SWAP9 SWAP7 SWAP8 SWAP6 SWAP7 SWAP5 SWAP6 SWAP5 SWAP1 SWAP4 AND SWAP4 SWAP2 SWAP3 PUSH1 0xFF SWAP1 SWAP2 AND SWAP2 DUP14 JUMP JUMPDEST PUSH1 0x40 MLOAD PUSH2 0x248 SWAP14 SWAP13 SWAP12 SWAP11 SWAP10 SWAP9 SWAP8 SWAP7 SWAP6 SWAP5 SWAP4 SWAP3 SWAP2 SWAP1 PUSH2 0x2963 JUMP JUMPDEST PUSH2 0x25A PUSH2 0x4E5 CALLDATASIZE PUSH1 0x4 PUSH2 0x29E1 JUMP JUMPDEST PUSH2 0x12B9 JUMP JUMPDEST PUSH2 0x25A PUSH2 0x4F8 CALLDATASIZE PUSH1 0x4 PUSH2 0x2A3F JUMP JUMPDEST PUSH2 0x19DD JUMP JUMPDEST PUSH2 0x25A PUSH2 0x206A JUMP JUMPDEST PUSH2 0x3DC PUSH2 0x513 CALLDATASIZE PUSH1 0x4 PUSH2 0x2907 JUMP JUMPDEST PUSH2 0x20F7 JUMP JUMPDEST PUSH2 0x25A PUSH2 0x526 CALLDATASIZE PUSH1 0x4 PUSH2 0x276C JUMP JUMPDEST PUSH2 0x215E JUMP JUMPDEST PUSH2 0x286 PUSH2 0x539 CALLDATASIZE PUSH1 0x4 PUSH2 0x2907 JUMP JUMPDEST PUSH2 0x2236 JUMP JUMPDEST PUSH2 0x286 PUSH2 0x54C CALLDATASIZE PUSH1 0x4 PUSH2 0x276C JUMP JUMPDEST PUSH2 0x2270 JUMP JUMPDEST PUSH2 0x25A PUSH2 0x3E8 DUP2 JUMP JUMPDEST PUSH2 0x562 PUSH2 0x24DE JUMP JUMPDEST PUSH1 0x8 DUP1 SLOAD PUSH1 0xFF NOT AND DUP3 ISZERO ISZERO SWAP1 DUP2 OR SWAP1 SWAP2 SSTORE PUSH1 0x40 MLOAD SWAP1 DUP2 MSTORE PUSH32 0xBD466AF87C4FABD1FA3D061817020A39C29D7986649F582F9F405C8EB8AA7C0B SWAP1 PUSH1 0x20 ADD PUSH1 0x40 MLOAD DUP1 SWAP2 SUB SWAP1 LOG1 POP JUMP JUMPDEST PUSH1 0x6 PUSH1 0x20 MSTORE DUP2 PUSH0 MSTORE PUSH1 0x40 PUSH0 KECCAK256 DUP2 DUP2 SLOAD DUP2 LT PUSH2 0x5C2 JUMPI PUSH0 DUP1 REVERT JUMPDEST SWAP1 PUSH0 MSTORE PUSH1 0x20 PUSH0 KECCAK256 ADD PUSH0 SWAP2 POP SWAP2 POP POP SLOAD DUP2 JUMP JUMPDEST PUSH2 0x5DC PUSH2 0x250A JUMP JUMPDEST PUSH1 0x8 SLOAD PUSH1 0xFF AND ISZERO PUSH2 0x608 JUMPI PUSH1 0x40 MLOAD PUSH3 0x461BCD PUSH1 0xE5 SHL DUP2 MSTORE PUSH1 0x4 ADD PUSH2 0x5FF SWAP1 PUSH2 0x2A93 JUMP JUMPDEST PUSH1 0x40 MLOAD DUP1 SWAP2 SUB SWAP1 REVERT JUMPDEST PUSH0 DUP2 DUP2 MSTORE PUSH1 0x4 PUSH1 0x20 MSTORE PUSH1 0x40 DUP2 KECCAK256 DUP1 SLOAD SWAP1 SWAP2 SUB PUSH2 0x636 JUMPI PUSH1 0x40 MLOAD PUSH3 0x461BCD PUSH1 0xE5 SHL DUP2 MSTORE PUSH1 0x4 ADD PUSH2 0x5FF SWAP1 PUSH2 0x2AB8 JUMP JUMPDEST PUSH0 PUSH1 0xA DUP3 ADD SLOAD PUSH1 0xFF AND PUSH1 0x3 DUP2 GT ISZERO PUSH2 0x650 JUMPI PUSH2 0x650 PUSH2 0x27E5 JUMP JUMPDEST EQ PUSH2 0x66D JUMPI PUSH1 0x40 MLOAD PUSH3 0x461BCD PUSH1 0xE5 SHL DUP2 MSTORE PUSH1 0x4 ADD PUSH2 0x5FF SWAP1 PUSH2 0x2AE0 JUMP JUMPDEST DUP1 PUSH1 0x7 ADD SLOAD TIMESTAMP LT ISZERO PUSH2 0x6B8 JUMPI PUSH1 0x40 MLOAD PUSH3 0x461BCD PUSH1 0xE5 SHL DUP2 MSTORE PUSH1 0x20 PUSH1 0x4 DUP3 ADD MSTORE PUSH1 0x14 PUSH1 0x24 DUP3 ADD MSTORE PUSH20 0x131BD85B881B9BDD081E595D081B585D1D5C9959 PUSH1 0x62 SHL PUSH1 0x44 DUP3 ADD MSTORE PUSH1 0x64 ADD PUSH2 0x5FF JUMP JUMPDEST PUSH1 0x40 DUP1 MLOAD PUSH2 0x1A0 DUP2 ADD DUP3 MSTORE DUP3 SLOAD DUP2 MSTORE PUSH1 0x1 DUP4 ADD SLOAD PUSH1 0x20 DUP3 ADD MSTORE PUSH1 0x2 DUP4 ADD SLOAD PUSH1 0x1 PUSH1 0x1 PUSH1 0xA0 SHL SUB SWAP1 DUP2 AND SWAP3 DUP3 ADD SWAP3 SWAP1 SWAP3 MSTORE PUSH1 0x3 DUP1 DUP5 ADD SLOAD DUP4 AND PUSH1 0x60 DUP4 ADD MSTORE PUSH1 0x4 DUP5 ADD SLOAD PUSH1 0x80 DUP4 ADD MSTORE PUSH1 0x5 DUP5 ADD SLOAD PUSH1 0xA0 DUP4 ADD MSTORE PUSH1 0x6 DUP5 ADD SLOAD PUSH1 0xC0 DUP4 ADD MSTORE PUSH1 0x7 DUP5 ADD SLOAD PUSH1 0xE0 DUP4 ADD MSTORE PUSH1 0x8 DUP5 ADD SLOAD SWAP1 SWAP3 AND PUSH2 0x100 DUP3 ADD MSTORE PUSH1 0x9 DUP4 ADD SLOAD PUSH2 0x120 DUP3 ADD MSTORE PUSH1 0xA DUP4 ADD SLOAD PUSH0 SWAP3 PUSH2 0x78B SWAP3 SWAP2 DUP6 SWAP2 PUSH2 0x140 DUP5 ADD SWAP2 PUSH1 0xFF AND SWAP1 DUP2 GT ISZERO PUSH2 0x75D JUMPI PUSH2 0x75D PUSH2 0x27E5 JUMP JUMPDEST PUSH1 0x3 DUP2 GT ISZERO PUSH2 0x76E JUMPI PUSH2 0x76E PUSH2 0x27E5 JUMP JUMPDEST DUP2 MSTORE PUSH1 0x20 ADD PUSH1 0xB DUP3 ADD SLOAD DUP2 MSTORE PUSH1 0x20 ADD PUSH1 0xC DUP3 ADD SLOAD DUP2 MSTORE POP POP PUSH2 0x2525 JUMP JUMPDEST PUSH1 0x9 DUP4 ADD SLOAD SWAP1 SWAP2 POP DUP1 ISZERO PUSH2 0x890 JUMPI PUSH1 0x2 SLOAD PUSH1 0x1 DUP5 ADD SLOAD PUSH1 0x8 DUP6 ADD SLOAD PUSH1 0x9 DUP7 ADD SLOAD PUSH1 0x40 MLOAD PUSH4 0xB7B22E45 PUSH1 0xE0 SHL DUP2 MSTORE PUSH1 0x1 PUSH1 0x1 PUSH1 0xA0 SHL SUB SWAP5 DUP6 AND SWAP5 PUSH4 0xB7B22E45 SWAP5 PUSH2 0x7DD SWAP5 SWAP1 SWAP4 SWAP2 AND SWAP2 CALLER SWAP1 PUSH1 0x4 ADD PUSH2 0x2B09 JUMP JUMPDEST PUSH0 PUSH1 0x40 MLOAD DUP1 DUP4 SUB DUP2 PUSH0 DUP8 DUP1 EXTCODESIZE ISZERO DUP1 ISZERO PUSH2 0x7F4 JUMPI PUSH0 DUP1 REVERT JUMPDEST POP GAS CALL ISZERO DUP1 ISZERO PUSH2 0x806 JUMPI RETURNDATASIZE PUSH0 DUP1 RETURNDATACOPY RETURNDATASIZE PUSH0 REVERT JUMPDEST POP POP POP POP PUSH0 PUSH2 0x2710 PUSH2 0x3E8 PUSH2 0x2710 PUSH2 0x81E SWAP2 SWAP1 PUSH2 0x2B44 JUMP JUMPDEST PUSH2 0x828 SWAP1 DUP5 PUSH2 0x2B5D JUMP JUMPDEST PUSH2 0x832 SWAP2 SWAP1 PUSH2 0x2B74 JUMP JUMPDEST SWAP1 POP DUP3 DUP2 GT PUSH2 0x841 JUMPI DUP1 PUSH2 0x843 JUMP JUMPDEST DUP3 JUMPDEST PUSH1 0xC DUP6 ADD DUP2 SWAP1 SSTORE SWAP1 POP DUP1 ISZERO PUSH2 0x88E JUMPI PUSH1 0x2 DUP5 ADD SLOAD PUSH2 0x88E SWAP1 PUSH1 0x1 PUSH1 0x1 PUSH1 0xA0 SHL SUB PUSH32 0x0 DUP2 AND SWAP2 AND DUP4 PUSH2 0x25A9 JUMP JUMPDEST POP JUMPDEST PUSH1 0xA DUP4 ADD DUP1 SLOAD PUSH1 0xFF NOT AND PUSH1 0x3 OR SWAP1 SSTORE PUSH1 0x1 DUP4 ADD SLOAD PUSH1 0xC DUP5 ADD SLOAD DUP6 SWAP1 PUSH32 0xC919E789B9F532C4A0731FA10B5D5AF1CCB639D94D9C968CC62354356327027D SWAP1 PUSH2 0x8D7 SWAP1 DUP7 PUSH2 0x2B44 JUMP JUMPDEST PUSH1 0x40 MLOAD SWAP1 DUP2 MSTORE PUSH1 0x20 ADD PUSH1 0x40 MLOAD DUP1 SWAP2 SUB SWAP1 LOG3 POP POP POP PUSH2 0x901 PUSH1 0x1 PUSH0 DUP1 MLOAD PUSH1 0x20 PUSH2 0x2C3C DUP4 CODECOPY DUP2 MLOAD SWAP2 MSTORE SSTORE JUMP JUMPDEST POP JUMP JUMPDEST PUSH2 0x96F PUSH1 0x40 DUP1 MLOAD PUSH2 0x1A0 DUP2 ADD DUP3 MSTORE PUSH0 DUP1 DUP3 MSTORE PUSH1 0x20 DUP3 ADD DUP2 SWAP1 MSTORE SWAP2 DUP2 ADD DUP3 SWAP1 MSTORE PUSH1 0x60 DUP2 ADD DUP3 SWAP1 MSTORE PUSH1 0x80 DUP2 ADD DUP3 SWAP1 MSTORE PUSH1 0xA0 DUP2 ADD DUP3 SWAP1 MSTORE PUSH1 0xC0 DUP2 ADD DUP3 SWAP1 MSTORE PUSH1 0xE0 DUP2 ADD DUP3 SWAP1 MSTORE PUSH2 0x100 DUP2 ADD DUP3 SWAP1 MSTORE PUSH2 0x120 DUP2 ADD DUP3 SWAP1 MSTORE SWAP1 PUSH2 0x140 DUP3 ADD SWAP1 DUP2 MSTORE PUSH1 0x20 ADD PUSH0 DUP2 MSTORE PUSH1 0x20 ADD PUSH0 DUP2 MSTORE POP SWAP1 JUMP JUMPDEST PUSH0 DUP3 DUP2 MSTORE PUSH1 0x4 PUSH1 0x20 MSTORE PUSH1 0x40 DUP2 KECCAK256 DUP1 SLOAD SWAP1 SWAP2 SUB PUSH2 0x99D JUMPI PUSH1 0x40 MLOAD PUSH3 0x461BCD PUSH1 0xE5 SHL DUP2 MSTORE PUSH1 0x4 ADD PUSH2 0x5FF SWAP1 PUSH2 0x2AB8 JUMP JUMPDEST PUSH1 0x40 DUP1 MLOAD PUSH2 0x1A0 DUP2 ADD DUP3 MSTORE DUP3 SLOAD DUP2 MSTORE PUSH1 0x1 DUP4 ADD SLOAD PUSH1 0x20 DUP3 ADD MSTORE PUSH1 0x2 DUP4 ADD SLOAD PUSH1 0x1 PUSH1 0x1 PUSH1 0xA0 SHL SUB SWAP1 DUP2 AND SWAP3 DUP3 ADD SWAP3 SWAP1 SWAP3 MSTORE PUSH1 0x3 DUP1 DUP5 ADD SLOAD DUP4 AND PUSH1 0x60 DUP4 ADD MSTORE PUSH1 0x4 DUP5 ADD SLOAD PUSH1 0x80 DUP4 ADD MSTORE PUSH1 0x5 DUP5 ADD SLOAD PUSH1 0xA0 DUP4 ADD MSTORE PUSH1 0x6 DUP5 ADD SLOAD PUSH1 0xC0 DUP4 ADD MSTORE PUSH1 0x7 DUP5 ADD SLOAD PUSH1 0xE0 DUP4 ADD MSTORE PUSH1 0x8 DUP5 ADD SLOAD SWAP1 SWAP3 AND PUSH2 0x100 DUP3 ADD MSTORE PUSH1 0x9 DUP4 ADD SLOAD PUSH2 0x120 DUP3 ADD MSTORE PUSH1 0xA DUP4 ADD SLOAD SWAP1 SWAP2 DUP4 SWAP2 PUSH2 0x140 DUP5 ADD SWAP2 PUSH1 0xFF SWAP1 SWAP2 AND SWAP1 DUP2 GT ISZERO PUSH2 0xA3F JUMPI PUSH2 0xA3F PUSH2 0x27E5 JUMP JUMPDEST PUSH1 0x3 DUP2 GT ISZERO PUSH2 0xA50 JUMPI PUSH2 0xA50 PUSH2 0x27E5 JUMP JUMPDEST DUP2 MSTORE PUSH1 0xB DUP3 ADD SLOAD PUSH1 0x20 DUP3 ADD MSTORE PUSH1 0xC SWAP1 SWAP2 ADD SLOAD PUSH1 0x40 SWAP1 SWAP2 ADD MSTORE SWAP4 SWAP3 POP POP POP JUMP JUMPDEST PUSH2 0xA77 PUSH2 0x24DE JUMP JUMPDEST PUSH2 0xA80 PUSH0 PUSH2 0x25E3 JUMP JUMPDEST JUMP JUMPDEST PUSH1 0x5 PUSH1 0x20 MSTORE DUP2 PUSH0 MSTORE PUSH1 0x40 PUSH0 KECCAK256 DUP2 DUP2 SLOAD DUP2 LT PUSH2 0x5C2 JUMPI PUSH0 DUP1 REVERT JUMPDEST PUSH2 0xAA3 PUSH2 0x24DE JUMP JUMPDEST PUSH1 0x1 PUSH1 0x1 PUSH1 0xA0 SHL SUB DUP2 AND PUSH2 0xAEB JUMPI PUSH1 0x40 MLOAD PUSH3 0x461BCD PUSH1 0xE5 SHL DUP2 MSTORE PUSH1 0x20 PUSH1 0x4 DUP3 ADD MSTORE PUSH1 0xF PUSH1 0x24 DUP3 ADD MSTORE PUSH15 0x24B73B30B634B21036B0B730B3B2B9 PUSH1 0x89 SHL PUSH1 0x44 DUP3 ADD MSTORE PUSH1 0x64 ADD PUSH2 0x5FF JUMP JUMPDEST PUSH1 0x2 DUP1 SLOAD PUSH1 0x1 PUSH1 0x1 PUSH1 0xA0 SHL SUB NOT AND PUSH1 0x1 PUSH1 0x1 PUSH1 0xA0 SHL SUB SWAP3 SWAP1 SWAP3 AND SWAP2 SWAP1 SWAP2 OR SWAP1 SSTORE JUMP JUMPDEST PUSH2 0xB15 PUSH2 0x24DE JUMP JUMPDEST PUSH2 0xB3A PUSH2 0xB29 PUSH0 SLOAD PUSH1 0x1 PUSH1 0x1 PUSH1 0xA0 SHL SUB AND SWAP1 JUMP JUMPDEST PUSH1 0x1 PUSH1 0x1 PUSH1 0xA0 SHL SUB DUP5 AND SWAP1 DUP4 PUSH2 0x25A9 JUMP JUMPDEST POP POP JUMP JUMPDEST PUSH2 0xB46 PUSH2 0x250A JUMP JUMPDEST PUSH1 0x8 SLOAD PUSH1 0xFF AND ISZERO PUSH2 0xB69 JUMPI PUSH1 0x40 MLOAD PUSH3 0x461BCD PUSH1 0xE5 SHL DUP2 MSTORE PUSH1 0x4 ADD PUSH2 0x5FF SWAP1 PUSH2 0x2A93 JUMP JUMPDEST PUSH0 DUP2 DUP2 MSTORE PUSH1 0x4 PUSH1 0x20 MSTORE PUSH1 0x40 DUP2 KECCAK256 DUP1 SLOAD SWAP1 SWAP2 SUB PUSH2 0xB97 JUMPI PUSH1 0x40 MLOAD PUSH3 0x461BCD PUSH1 0xE5 SHL DUP2 MSTORE PUSH1 0x4 ADD PUSH2 0x5FF SWAP1 PUSH2 0x2AB8 JUMP JUMPDEST PUSH0 PUSH1 0xA DUP3 ADD SLOAD PUSH1 0xFF AND PUSH1 0x3 DUP2 GT ISZERO PUSH2 0xBB1 JUMPI PUSH2 0xBB1 PUSH2 0x27E5 JUMP JUMPDEST EQ PUSH2 0xBCE JUMPI PUSH1 0x40 MLOAD PUSH3 0x461BCD PUSH1 0xE5 SHL DUP2 MSTORE PUSH1 0x4 ADD PUSH2 0x5FF SWAP1 PUSH2 0x2AE0 JUMP JUMPDEST PUSH1 0x40 DUP1 MLOAD PUSH2 0x1A0 DUP2 ADD DUP3 MSTORE DUP3 SLOAD DUP2 MSTORE PUSH1 0x1 DUP4 ADD SLOAD PUSH1 0x20 DUP3 ADD MSTORE PUSH1 0x2 DUP4 ADD SLOAD PUSH1 0x1 PUSH1 0x1 PUSH1 0xA0 SHL SUB SWAP1 DUP2 AND SWAP3 DUP3 ADD SWAP3 SWAP1 SWAP3 MSTORE PUSH1 0x3 DUP1 DUP5 ADD SLOAD DUP4 AND PUSH1 0x60 DUP4 ADD MSTORE PUSH1 0x4 DUP5 ADD SLOAD PUSH1 0x80 DUP4 ADD MSTORE PUSH1 0x5 DUP5 ADD SLOAD PUSH1 0xA0 DUP4 ADD MSTORE PUSH1 0x6 DUP5 ADD SLOAD PUSH1 0xC0 DUP4 ADD MSTORE PUSH1 0x7 DUP5 ADD SLOAD PUSH1 0xE0 DUP4 ADD MSTORE PUSH1 0x8 DUP5 ADD SLOAD SWAP1 SWAP3 AND PUSH2 0x100 DUP3 ADD MSTORE PUSH1 0x9 DUP4 ADD SLOAD PUSH2 0x120 DUP3 ADD MSTORE PUSH1 0xA DUP4 ADD SLOAD PUSH0 SWAP3 PUSH2 0xC73 SWAP3 SWAP2 DUP6 SWAP2 PUSH2 0x140 DUP5 ADD SWAP2 PUSH1 0xFF AND SWAP1 DUP2 GT ISZERO PUSH2 0x75D JUMPI PUSH2 0x75D PUSH2 0x27E5 JUMP JUMPDEST SWAP1 POP PUSH0 DUP3 PUSH1 0x4 ADD SLOAD DUP3 GT PUSH2 0xC87 JUMPI PUSH0 PUSH2 0xC96 JUMP JUMPDEST PUSH1 0x4 DUP4 ADD SLOAD PUSH2 0xC96 SWAP1 DUP4 PUSH2 0x2B44 JUMP JUMPDEST SWAP1 POP PUSH0 PUSH2 0x2710 PUSH2 0xCA7 PUSH1 0x32 DUP5 PUSH2 0x2B5D JUMP JUMPDEST PUSH2 0xCB1 SWAP2 SWAP1 PUSH2 0x2B74 JUMP JUMPDEST SWAP1 POP PUSH0 PUSH2 0xCBE DUP3 DUP6 PUSH2 0x2B93 JUMP JUMPDEST SWAP1 POP PUSH2 0xCF5 PUSH1 0x1 PUSH1 0x1 PUSH1 0xA0 SHL SUB PUSH32 0x0 AND CALLER ADDRESS DUP5 PUSH2 0x2632 JUMP JUMPDEST PUSH0 PUSH2 0xD00 DUP4 DUP6 PUSH2 0x2B44 JUMP JUMPDEST SWAP1 POP PUSH0 DUP2 DUP8 PUSH1 0x4 ADD SLOAD PUSH2 0xD13 SWAP2 SWAP1 PUSH2 0x2B93 JUMP JUMPDEST PUSH1 0x2 DUP9 ADD SLOAD SWAP1 SWAP2 POP PUSH2 0xD52 SWAP1 PUSH1 0x1 PUSH1 0x1 PUSH1 0xA0 SHL SUB PUSH32 0x0 DUP2 AND SWAP2 AND DUP4 PUSH2 0x25A9 JUMP JUMPDEST DUP4 ISZERO PUSH2 0xDD8 JUMPI PUSH2 0xD9D PUSH2 0xD6C PUSH0 SLOAD PUSH1 0x1 PUSH1 0x1 PUSH1 0xA0 SHL SUB AND SWAP1 JUMP JUMPDEST PUSH1 0x1 PUSH1 0x1 PUSH1 0xA0 SHL SUB PUSH32 0x0 AND SWAP1 DUP7 PUSH2 0x25A9 JUMP JUMPDEST DUP8 PUSH32 0x8B33E5D3F2111DBE0069093632772B6795DFDAA7282CB1D39582C0CA4127EDBB DUP6 PUSH1 0x40 MLOAD PUSH2 0xDCF SWAP2 DUP2 MSTORE PUSH1 0x20 ADD SWAP1 JUMP JUMPDEST PUSH1 0x40 MLOAD DUP1 SWAP2 SUB SWAP1 LOG2 JUMPDEST PUSH1 0xA DUP8 ADD DUP1 SLOAD PUSH1 0xFF NOT AND PUSH1 0x1 SWAP1 DUP2 OR SWAP1 SWAP2 SSTORE PUSH1 0xB DUP9 ADD DUP5 SWAP1 SSTORE PUSH1 0x2 DUP1 SLOAD SWAP2 DUP10 ADD SLOAD PUSH1 0x8 DUP11 ADD SLOAD PUSH1 0x9 DUP12 ADD SLOAD SWAP3 DUP12 ADD SLOAD PUSH1 0x40 MLOAD PUSH4 0x8722D161 PUSH1 0xE0 SHL DUP2 MSTORE PUSH1 0x1 PUSH1 0x1 PUSH1 0xA0 SHL SUB SWAP6 DUP7 AND SWAP6 PUSH4 0x8722D161 SWAP6 PUSH2 0xE3B SWAP6 SWAP5 DUP3 AND SWAP4 SWAP1 SWAP3 SWAP2 AND SWAP1 PUSH1 0x4 ADD PUSH2 0x2B09 JUMP JUMPDEST PUSH0 PUSH1 0x40 MLOAD DUP1 DUP4 SUB DUP2 PUSH0 DUP8 DUP1 EXTCODESIZE ISZERO DUP1 ISZERO PUSH2 0xE52 JUMPI PUSH0 DUP1 REVERT JUMPDEST POP GAS CALL ISZERO DUP1 ISZERO PUSH2 0xE64 JUMPI RETURNDATASIZE PUSH0 DUP1 RETURNDATACOPY RETURNDATASIZE PUSH0 REVERT JUMPDEST POP POP POP POP PUSH1 0x1 DUP8 ADD SLOAD PUSH1 0x4 DUP9 ADD SLOAD PUSH1 0x40 DUP1 MLOAD SWAP2 DUP3 MSTORE PUSH1 0x20 DUP3 ADD DUP9 SWAP1 MSTORE DUP2 ADD DUP7 SWAP1 MSTORE DUP10 SWAP1 PUSH32 0x4D5043F65D3A5AB9159E17C198FF42BD524B479356907797E7DA43411F088DEE SWAP1 PUSH1 0x60 ADD PUSH1 0x40 MLOAD DUP1 SWAP2 SUB SWAP1 LOG3 POP POP POP POP POP POP POP PUSH2 0x901 PUSH1 0x1 PUSH0 DUP1 MLOAD PUSH1 0x20 PUSH2 0x2C3C DUP4 CODECOPY DUP2 MLOAD SWAP2 MSTORE SSTORE JUMP JUMPDEST PUSH0 DUP2 DUP2 MSTORE PUSH1 0x5 PUSH1 0x20 SWAP1 DUP2 MSTORE PUSH1 0x40 SWAP2 DUP3 SWAP1 KECCAK256 DUP1 SLOAD DUP4 MLOAD DUP2 DUP5 MUL DUP2 ADD DUP5 ADD SWAP1 SWAP5 MSTORE DUP1 DUP5 MSTORE PUSH1 0x60 SWAP4 SWAP3 DUP4 ADD DUP3 DUP3 DUP1 ISZERO PUSH2 0xF24 JUMPI PUSH1 0x20 MUL DUP3 ADD SWAP2 SWAP1 PUSH0 MSTORE PUSH1 0x20 PUSH0 KECCAK256 SWAP1 JUMPDEST DUP2 SLOAD DUP2 MSTORE PUSH1 0x20 ADD SWAP1 PUSH1 0x1 ADD SWAP1 DUP1 DUP4 GT PUSH2 0xF10 JUMPI JUMPDEST POP POP POP POP POP SWAP1 POP SWAP2 SWAP1 POP JUMP JUMPDEST PUSH2 0xF38 PUSH2 0x24DE JUMP JUMPDEST PUSH1 0x1 PUSH1 0x1 PUSH1 0xA0 SHL SUB DUP2 AND PUSH2 0xF7F JUMPI PUSH1 0x40 MLOAD PUSH3 0x461BCD PUSH1 0xE5 SHL DUP2 MSTORE PUSH1 0x20 PUSH1 0x4 DUP3 ADD MSTORE PUSH1 0xE PUSH1 0x24 DUP3 ADD MSTORE PUSH14 0x496E76616C6964206F7261636C65 PUSH1 0x90 SHL PUSH1 0x44 DUP3 ADD MSTORE PUSH1 0x64 ADD PUSH2 0x5FF JUMP JUMPDEST PUSH1 0x1 DUP1 SLOAD PUSH1 0x1 PUSH1 0x1 PUSH1 0xA0 SHL SUB NOT AND PUSH1 0x1 PUSH1 0x1 PUSH1 0xA0 SHL SUB SWAP3 SWAP1 SWAP3 AND SWAP2 SWAP1 SWAP2 OR SWAP1 SSTORE JUMP JUMPDEST PUSH2 0xFA9 PUSH2 0x250A JUMP JUMPDEST PUSH1 0x8 SLOAD PUSH1 0xFF AND ISZERO PUSH2 0xFCC JUMPI PUSH1 0x40 MLOAD PUSH3 0x461BCD PUSH1 0xE5 SHL DUP2 MSTORE PUSH1 0x4 ADD PUSH2 0x5FF SWAP1 PUSH2 0x2A93 JUMP JUMPDEST PUSH0 DUP2 DUP2 MSTORE PUSH1 0x4 PUSH1 0x20 MSTORE PUSH1 0x40 DUP2 KECCAK256 DUP1 SLOAD SWAP1 SWAP2 SUB PUSH2 0xFFA JUMPI PUSH1 0x40 MLOAD PUSH3 0x461BCD PUSH1 0xE5 SHL DUP2 MSTORE PUSH1 0x4 ADD PUSH2 0x5FF SWAP1 PUSH2 0x2AB8 JUMP JUMPDEST PUSH0 PUSH1 0xA DUP3 ADD SLOAD PUSH1 0xFF AND PUSH1 0x3 DUP2 GT ISZERO PUSH2 0x1014 JUMPI PUSH2 0x1014 PUSH2 0x27E5 JUMP JUMPDEST EQ PUSH2 0x1031 JUMPI PUSH1 0x40 MLOAD PUSH3 0x461BCD PUSH1 0xE5 SHL DUP2 MSTORE PUSH1 0x4 ADD PUSH2 0x5FF SWAP1 PUSH2 0x2AE0 JUMP JUMPDEST PUSH1 0x40 DUP1 MLOAD PUSH2 0x1A0 DUP2 ADD DUP3 MSTORE DUP3 SLOAD DUP2 MSTORE PUSH1 0x1 DUP4 ADD SLOAD PUSH1 0x20 DUP3 ADD MSTORE PUSH1 0x2 DUP4 ADD SLOAD PUSH1 0x1 PUSH1 0x1 PUSH1 0xA0 SHL SUB SWAP1 DUP2 AND SWAP3 DUP3 ADD SWAP3 SWAP1 SWAP3 MSTORE PUSH1 0x3 DUP1 DUP5 ADD SLOAD DUP4 AND PUSH1 0x60 DUP4 ADD MSTORE PUSH1 0x4 DUP5 ADD SLOAD PUSH1 0x80 DUP4 ADD MSTORE PUSH1 0x5 DUP5 ADD SLOAD PUSH1 0xA0 DUP4 ADD MSTORE PUSH1 0x6 DUP5 ADD SLOAD PUSH1 0xC0 DUP4 ADD MSTORE PUSH1 0x7 DUP5 ADD SLOAD PUSH1 0xE0 DUP4 ADD MSTORE PUSH1 0x8 DUP5 ADD SLOAD SWAP1 SWAP3 AND PUSH2 0x100 DUP3 ADD MSTORE PUSH1 0x9 DUP4 ADD SLOAD PUSH2 0x120 DUP3 ADD MSTORE PUSH1 0xA DUP4 ADD SLOAD PUSH0 SWAP3 PUSH2 0x10D6 SWAP3 SWAP2 DUP6 SWAP2 PUSH2 0x140 DUP5 ADD SWAP2 PUSH1 0xFF AND SWAP1 DUP2 GT ISZERO PUSH2 0x75D JUMPI PUSH2 0x75D PUSH2 0x27E5 JUMP JUMPDEST PUSH1 0x9 DUP4 ADD SLOAD SWAP1 SWAP2 POP PUSH0 PUSH2 0x2710 PUSH2 0x10EE PUSH2 0x1F40 DUP6 PUSH2 0x2B5D JUMP JUMPDEST PUSH2 0x10F8 SWAP2 SWAP1 PUSH2 0x2B74 JUMP JUMPDEST SWAP1 POP DUP1 DUP3 LT PUSH2 0x1154 JUMPI PUSH1 0x40 MLOAD PUSH3 0x461BCD PUSH1 0xE5 SHL DUP2 MSTORE PUSH1 0x20 PUSH1 0x4 DUP3 ADD MSTORE PUSH1 0x22 PUSH1 0x24 DUP3 ADD MSTORE PUSH32 0x506F736974696F6E2061646571756174656C7920636F6C6C61746572616C697A PUSH1 0x44 DUP3 ADD MSTORE PUSH2 0x1959 PUSH1 0xF2 SHL PUSH1 0x64 DUP3 ADD MSTORE PUSH1 0x84 ADD PUSH2 0x5FF JUMP JUMPDEST PUSH1 0x9 DUP5 ADD SLOAD PUSH1 0x2 SLOAD PUSH1 0x1 DUP7 ADD SLOAD PUSH1 0x8 DUP8 ADD SLOAD PUSH1 0x40 MLOAD PUSH4 0xB7B22E45 PUSH1 0xE0 SHL DUP2 MSTORE PUSH1 0x1 PUSH1 0x1 PUSH1 0xA0 SHL SUB SWAP4 DUP5 AND SWAP4 PUSH4 0xB7B22E45 SWAP4 PUSH2 0x119A SWAP4 SWAP1 SWAP3 SWAP2 AND SWAP1 DUP7 SWAP1 CALLER SWAP1 PUSH1 0x4 ADD PUSH2 0x2B09 JUMP JUMPDEST PUSH0 PUSH1 0x40 MLOAD DUP1 DUP4 SUB DUP2 PUSH0 DUP8 DUP1 EXTCODESIZE ISZERO DUP1 ISZERO PUSH2 0x11B1 JUMPI PUSH0 DUP1 REVERT JUMPDEST POP GAS CALL ISZERO DUP1 ISZERO PUSH2 0x11C3 JUMPI RETURNDATASIZE PUSH0 DUP1 RETURNDATACOPY RETURNDATASIZE PUSH0 REVERT JUMPDEST POP POP POP POP PUSH0 PUSH2 0x2710 PUSH2 0x3E8 PUSH2 0x2710 PUSH2 0x11DB SWAP2 SWAP1 PUSH2 0x2B44 JUMP JUMPDEST PUSH2 0x11E5 SWAP1 DUP5 PUSH2 0x2B5D JUMP JUMPDEST PUSH2 0x11EF SWAP2 SWAP1 PUSH2 0x2B74 JUMP JUMPDEST SWAP1 POP DUP5 DUP2 GT PUSH2 0x11FE JUMPI DUP1 PUSH2 0x1200 JUMP JUMPDEST DUP5 JUMPDEST PUSH1 0xA DUP8 ADD DUP1 SLOAD PUSH1 0xFF NOT AND PUSH1 0x2 OR SWAP1 SSTORE PUSH1 0xC DUP8 ADD DUP2 SWAP1 SSTORE SWAP1 POP DUP1 ISZERO PUSH2 0x125A JUMPI PUSH1 0x2 DUP7 ADD SLOAD PUSH2 0x125A SWAP1 PUSH1 0x1 PUSH1 0x1 PUSH1 0xA0 SHL SUB PUSH32 0x0 DUP2 AND SWAP2 AND DUP4 PUSH2 0x25A9 JUMP JUMPDEST PUSH1 0x1 DUP7 ADD SLOAD PUSH1 0x40 DUP1 MLOAD DUP5 DUP2 MSTORE PUSH1 0x20 DUP2 ADD DUP5 SWAP1 MSTORE CALLER SWAP3 SWAP2 DUP11 SWAP2 PUSH32 0xE306C3400E9F025A5C5498CACB828224C0A8047852368D41351AD81A2940208A SWAP2 ADD PUSH1 0x40 MLOAD DUP1 SWAP2 SUB SWAP1 LOG4 POP POP POP POP POP POP PUSH2 0x901 PUSH1 0x1 PUSH0 DUP1 MLOAD PUSH1 0x20 PUSH2 0x2C3C DUP4 CODECOPY DUP2 MLOAD SWAP2 MSTORE SSTORE JUMP JUMPDEST PUSH0 PUSH2 0x12C2 PUSH2 0x250A JUMP JUMPDEST PUSH1 0x8 SLOAD PUSH1 0xFF AND ISZERO PUSH2 0x1304 JUMPI PUSH1 0x40 MLOAD PUSH3 0x461BCD PUSH1 0xE5 SHL DUP2 MSTORE PUSH1 0x20 PUSH1 0x4 DUP3 ADD MSTORE PUSH1 0xC PUSH1 0x24 DUP3 ADD MSTORE PUSH12 0x141BDBDB125CD4185D5CD959 PUSH1 0xA2 SHL PUSH1 0x44 DUP3 ADD MSTORE PUSH1 0x64 ADD PUSH2 0x5FF JUMP JUMPDEST PUSH0 DUP7 GT PUSH2 0x134B JUMPI PUSH1 0x40 MLOAD PUSH3 0x461BCD PUSH1 0xE5 SHL DUP2 MSTORE PUSH1 0x20 PUSH1 0x4 DUP3 ADD MSTORE PUSH1 0x15 PUSH1 0x24 DUP3 ADD MSTORE PUSH21 0x5072696E636970616C206D757374206265203E203 PUSH1 0x5C SHL PUSH1 0x44 DUP3 ADD MSTORE PUSH1 0x64 ADD PUSH2 0x5FF JUMP JUMPDEST PUSH1 0x64 DUP6 LT ISZERO DUP1 ISZERO PUSH2 0x135E JUMPI POP PUSH2 0x1388 DUP6 GT ISZERO JUMPDEST PUSH2 0x13A2 JUMPI PUSH1 0x40 MLOAD PUSH3 0x461BCD PUSH1 0xE5 SHL DUP2 MSTORE PUSH1 0x20 PUSH1 0x4 DUP3 ADD MSTORE PUSH1 0x15 PUSH1 0x24 DUP3 ADD MSTORE PUSH21 0x496E76616C696420696E7465726573742072617465 PUSH1 0x58 SHL PUSH1 0x44 DUP3 ADD MSTORE PUSH1 0x64 ADD PUSH2 0x5FF JUMP JUMPDEST PUSH3 0x15180 DUP5 LT ISZERO DUP1 ISZERO PUSH2 0x13B9 JUMPI POP PUSH4 0x1E13380 DUP5 GT ISZERO JUMPDEST PUSH2 0x13F8 JUMPI PUSH1 0x40 MLOAD PUSH3 0x461BCD PUSH1 0xE5 SHL DUP2 MSTORE PUSH1 0x20 PUSH1 0x4 DUP3 ADD MSTORE PUSH1 0x10 PUSH1 0x24 DUP3 ADD MSTORE PUSH16 0x24B73B30B634B210323AB930BA34B7B7 PUSH1 0x81 SHL PUSH1 0x44 DUP3 ADD MSTORE PUSH1 0x64 ADD PUSH2 0x5FF JUMP JUMPDEST PUSH0 DUP3 GT PUSH2 0x1440 JUMPI PUSH1 0x40 MLOAD PUSH3 0x461BCD PUSH1 0xE5 SHL DUP2 MSTORE PUSH1 0x20 PUSH1 0x4 DUP3 ADD MSTORE PUSH1 0x16 PUSH1 0x24 DUP3 ADD MSTORE PUSH22 0x436F6C6C61746572616C206D757374206265203E203 PUSH1 0x54 SHL PUSH1 0x44 DUP3 ADD MSTORE PUSH1 0x64 ADD PUSH2 0x5FF JUMP JUMPDEST PUSH1 0x1 PUSH1 0x1 PUSH1 0xA0 SHL SUB DUP8 AND PUSH2 0x1491 JUMPI PUSH1 0x40 MLOAD PUSH3 0x461BCD PUSH1 0xE5 SHL DUP2 MSTORE PUSH1 0x20 PUSH1 0x4 DUP3 ADD MSTORE PUSH1 0x18 PUSH1 0x24 DUP3 ADD MSTORE PUSH24 0x496E76616C696420626F72726F7765722061646472657373 PUSH1 0x40 SHL PUSH1 0x44 DUP3 ADD MSTORE PUSH1 0x64 ADD PUSH2 0x5FF JUMP JUMPDEST PUSH1 0x1 SLOAD PUSH1 0x40 MLOAD PUSH4 0x7BA53285 PUSH1 0xE0 SHL DUP2 MSTORE PUSH1 0x4 DUP2 ADD DUP11 SWAP1 MSTORE PUSH0 SWAP2 DUP3 SWAP2 PUSH1 0x1 PUSH1 0x1 PUSH1 0xA0 SHL SUB SWAP1 SWAP2 AND SWAP1 PUSH4 0x7BA53285 SWAP1 PUSH1 0x24 ADD PUSH1 0x60 PUSH1 0x40 MLOAD DUP1 DUP4 SUB DUP2 DUP7 GAS STATICCALL ISZERO DUP1 ISZERO PUSH2 0x14DC JUMPI RETURNDATASIZE PUSH0 DUP1 RETURNDATACOPY RETURNDATASIZE PUSH0 REVERT JUMPDEST POP POP POP POP PUSH1 0x40 MLOAD RETURNDATASIZE PUSH1 0x1F NOT PUSH1 0x1F DUP3 ADD AND DUP3 ADD DUP1 PUSH1 0x40 MSTORE POP DUP2 ADD SWAP1 PUSH2 0x1500 SWAP2 SWAP1 PUSH2 0x2BA6 JUMP JUMPDEST SWAP3 POP POP SWAP2 POP PUSH0 DUP3 GT PUSH2 0x1549 JUMPI PUSH1 0x40 MLOAD PUSH3 0x461BCD PUSH1 0xE5 SHL DUP2 MSTORE PUSH1 0x20 PUSH1 0x4 DUP3 ADD MSTORE PUSH1 0x12 PUSH1 0x24 DUP3 ADD MSTORE PUSH18 0x4E6F2076616C6964204143532073636F7265 PUSH1 0x70 SHL PUSH1 0x44 DUP3 ADD MSTORE PUSH1 0x64 ADD PUSH2 0x5FF JUMP JUMPDEST TIMESTAMP DUP2 GT PUSH2 0x158C JUMPI PUSH1 0x40 MLOAD PUSH3 0x461BCD PUSH1 0xE5 SHL DUP2 MSTORE PUSH1 0x20 PUSH1 0x4 DUP3 ADD MSTORE PUSH1 0x11 PUSH1 0x24 DUP3 ADD MSTORE PUSH17 0x1050D4C81CD8DBDC9948195E1C1A5C9959 PUSH1 0x7A SHL PUSH1 0x44 DUP3 ADD MSTORE PUSH1 0x64 ADD PUSH2 0x5FF JUMP JUMPDEST PUSH1 0x2 SLOAD PUSH1 0x40 MLOAD PUSH4 0x5FD1A5F5 PUSH1 0xE0 SHL DUP2 MSTORE PUSH1 0x4 DUP2 ADD DUP11 SWAP1 MSTORE PUSH1 0x24 DUP2 ADD DUP5 SWAP1 MSTORE PUSH0 SWAP2 PUSH1 0x1 PUSH1 0x1 PUSH1 0xA0 SHL SUB AND SWAP1 PUSH4 0x5FD1A5F5 SWAP1 PUSH1 0x44 ADD PUSH1 0x20 PUSH1 0x40 MLOAD DUP1 DUP4 SUB DUP2 DUP7 GAS STATICCALL ISZERO DUP1 ISZERO PUSH2 0x15DA JUMPI RETURNDATASIZE PUSH0 DUP1 RETURNDATACOPY RETURNDATASIZE PUSH0 REVERT JUMPDEST POP POP POP POP PUSH1 0x40 MLOAD RETURNDATASIZE PUSH1 0x1F NOT PUSH1 0x1F DUP3 ADD AND DUP3 ADD DUP1 PUSH1 0x40 MSTORE POP DUP2 ADD SWAP1 PUSH2 0x15FE SWAP2 SWAP1 PUSH2 0x2BD1 JUMP JUMPDEST SWAP1 POP DUP1 DUP6 LT ISZERO PUSH2 0x1650 JUMPI PUSH1 0x40 MLOAD PUSH3 0x461BCD PUSH1 0xE5 SHL DUP2 MSTORE PUSH1 0x20 PUSH1 0x4 DUP3 ADD MSTORE PUSH1 0x17 PUSH1 0x24 DUP3 ADD MSTORE PUSH32 0x496E73756666696369656E7420636F6C6C61746572616C000000000000000000 PUSH1 0x44 DUP3 ADD MSTORE PUSH1 0x64 ADD PUSH2 0x5FF JUMP JUMPDEST PUSH1 0x2 SLOAD PUSH1 0x40 MLOAD PUSH4 0x52CCCDB3 PUSH1 0xE0 SHL DUP2 MSTORE PUSH1 0x4 DUP2 ADD DUP14 SWAP1 MSTORE PUSH1 0x1 PUSH1 0x1 PUSH1 0xA0 SHL SUB DUP9 DUP2 AND PUSH1 0x24 DUP4 ADD MSTORE PUSH1 0x44 DUP3 ADD DUP9 SWAP1 MSTORE SWAP1 SWAP2 AND SWAP1 PUSH4 0x52CCCDB3 SWAP1 PUSH1 0x64 ADD PUSH0 PUSH1 0x40 MLOAD DUP1 DUP4 SUB DUP2 PUSH0 DUP8 DUP1 EXTCODESIZE ISZERO DUP1 ISZERO PUSH2 0x16A2 JUMPI PUSH0 DUP1 REVERT JUMPDEST POP GAS CALL ISZERO DUP1 ISZERO PUSH2 0x16B4 JUMPI RETURNDATASIZE PUSH0 DUP1 RETURNDATACOPY RETURNDATASIZE PUSH0 REVERT JUMPDEST POP PUSH2 0x16EF SWAP3 POP POP PUSH1 0x1 PUSH1 0x1 PUSH1 0xA0 SHL SUB PUSH32 0x0 AND SWAP1 POP CALLER DUP13 DUP13 PUSH2 0x2632 JUMP JUMPDEST PUSH0 DUP12 DUP2 MSTORE PUSH1 0x7 PUSH1 0x20 MSTORE PUSH1 0x40 DUP2 KECCAK256 DUP1 SLOAD PUSH1 0x1 PUSH1 0x1 PUSH1 0xA0 SHL SUB NOT AND PUSH1 0x1 PUSH1 0x1 PUSH1 0xA0 SHL SUB DUP14 AND OR SWAP1 SSTORE PUSH1 0x3 DUP1 SLOAD SWAP1 SWAP2 SWAP1 PUSH2 0x1725 SWAP1 PUSH2 0x2BE8 JUMP JUMPDEST SWAP2 DUP3 SWAP1 SSTORE POP SWAP4 POP TIMESTAMP PUSH0 PUSH2 0x1738 DUP10 DUP4 PUSH2 0x2B93 JUMP JUMPDEST SWAP1 POP PUSH1 0x40 MLOAD DUP1 PUSH2 0x1A0 ADD PUSH1 0x40 MSTORE DUP1 DUP8 DUP2 MSTORE PUSH1 0x20 ADD DUP15 DUP2 MSTORE PUSH1 0x20 ADD CALLER PUSH1 0x1 PUSH1 0x1 PUSH1 0xA0 SHL SUB AND DUP2 MSTORE PUSH1 0x20 ADD PUSH32 0x0 PUSH1 0x1 PUSH1 0x1 PUSH1 0xA0 SHL SUB AND DUP2 MSTORE PUSH1 0x20 ADD DUP13 DUP2 MSTORE PUSH1 0x20 ADD DUP12 DUP2 MSTORE PUSH1 0x20 ADD DUP4 DUP2 MSTORE PUSH1 0x20 ADD DUP3 DUP2 MSTORE PUSH1 0x20 ADD DUP10 PUSH1 0x1 PUSH1 0x1 PUSH1 0xA0 SHL SUB AND DUP2 MSTORE PUSH1 0x20 ADD DUP9 DUP2 MSTORE PUSH1 0x20 ADD PUSH0 PUSH1 0x3 DUP2 GT ISZERO PUSH2 0x17CF JUMPI PUSH2 0x17CF PUSH2 0x27E5 JUMP JUMPDEST DUP2 MSTORE PUSH0 PUSH1 0x20 DUP1 DUP4 ADD DUP3 SWAP1 MSTORE PUSH1 0x40 SWAP3 DUP4 ADD DUP3 SWAP1 MSTORE DUP10 DUP3 MSTORE PUSH1 0x4 DUP1 DUP3 MSTORE SWAP2 DUP4 SWAP1 KECCAK256 DUP5 MLOAD DUP2 SSTORE SWAP1 DUP5 ADD MLOAD PUSH1 0x1 DUP1 DUP4 ADD SWAP2 SWAP1 SWAP2 SSTORE SWAP3 DUP5 ADD MLOAD PUSH1 0x2 DUP3 ADD DUP1 SLOAD PUSH1 0x1 PUSH1 0x1 PUSH1 0xA0 SHL SUB SWAP3 DUP4 AND PUSH1 0x1 PUSH1 0x1 PUSH1 0xA0 SHL SUB NOT SWAP2 DUP3 AND OR SWAP1 SWAP2 SSTORE PUSH1 0x60 DUP7 ADD MLOAD PUSH1 0x3 DUP1 DUP6 ADD DUP1 SLOAD SWAP3 DUP6 AND SWAP3 DUP5 AND SWAP3 SWAP1 SWAP3 OR SWAP1 SWAP2 SSTORE PUSH1 0x80 DUP8 ADD MLOAD SWAP5 DUP5 ADD SWAP5 SWAP1 SWAP5 SSTORE PUSH1 0xA0 DUP7 ADD MLOAD PUSH1 0x5 DUP5 ADD SSTORE PUSH1 0xC0 DUP7 ADD MLOAD PUSH1 0x6 DUP5 ADD SSTORE PUSH1 0xE0 DUP7 ADD MLOAD PUSH1 0x7 DUP5 ADD SSTORE PUSH2 0x100 DUP7 ADD MLOAD PUSH1 0x8 DUP5 ADD DUP1 SLOAD SWAP2 SWAP1 SWAP4 AND SWAP2 AND OR SWAP1 SSTORE PUSH2 0x120 DUP5 ADD MLOAD PUSH1 0x9 DUP3 ADD SSTORE PUSH2 0x140 DUP5 ADD MLOAD PUSH1 0xA DUP3 ADD DUP1 SLOAD SWAP3 SWAP5 SWAP2 SWAP4 SWAP1 SWAP3 PUSH1 0xFF NOT AND SWAP2 SWAP1 DUP5 SWAP1 DUP2 GT ISZERO PUSH2 0x18B0 JUMPI PUSH2 0x18B0 PUSH2 0x27E5 JUMP JUMPDEST MUL OR SWAP1 SSTORE POP PUSH2 0x160 DUP3 ADD MLOAD DUP2 PUSH1 0xB ADD SSTORE PUSH2 0x180 DUP3 ADD MLOAD DUP2 PUSH1 0xC ADD SSTORE SWAP1 POP POP PUSH1 0x5 PUSH0 DUP15 DUP2 MSTORE PUSH1 0x20 ADD SWAP1 DUP2 MSTORE PUSH1 0x20 ADD PUSH0 KECCAK256 DUP7 SWAP1 DUP1 PUSH1 0x1 DUP2 SLOAD ADD DUP1 DUP3 SSTORE DUP1 SWAP2 POP POP PUSH1 0x1 SWAP1 SUB SWAP1 PUSH0 MSTORE PUSH1 0x20 PUSH0 KECCAK256 ADD PUSH0 SWAP1 SWAP2 SWAP1 SWAP2 SWAP1 SWAP2 POP SSTORE PUSH1 0x6 PUSH0 CALLER PUSH1 0x1 PUSH1 0x1 PUSH1 0xA0 SHL SUB AND PUSH1 0x1 PUSH1 0x1 PUSH1 0xA0 SHL SUB AND DUP2 MSTORE PUSH1 0x20 ADD SWAP1 DUP2 MSTORE PUSH1 0x20 ADD PUSH0 KECCAK256 DUP7 SWAP1 DUP1 PUSH1 0x1 DUP2 SLOAD ADD DUP1 DUP3 SSTORE DUP1 SWAP2 POP POP PUSH1 0x1 SWAP1 SUB SWAP1 PUSH0 MSTORE PUSH1 0x20 PUSH0 KECCAK256 ADD PUSH0 SWAP1 SWAP2 SWAP1 SWAP2 SWAP1 SWAP2 POP SSTORE CALLER PUSH1 0x1 PUSH1 0x1 PUSH1 0xA0 SHL SUB AND DUP14 DUP8 PUSH32 0x807DF2790AA735A9C0345B51179877668A2E45F1B28412F94C73D0D3F57764F4 PUSH32 0x0 DUP16 DUP16 DUP8 DUP16 DUP16 PUSH1 0x40 MLOAD PUSH2 0x19AF SWAP7 SWAP6 SWAP5 SWAP4 SWAP3 SWAP2 SWAP1 PUSH2 0x2C00 JUMP JUMPDEST PUSH1 0x40 MLOAD DUP1 SWAP2 SUB SWAP1 LOG4 POP POP POP POP POP PUSH2 0x19D2 PUSH1 0x1 PUSH0 DUP1 MLOAD PUSH1 0x20 PUSH2 0x2C3C DUP4 CODECOPY DUP2 MLOAD SWAP2 MSTORE SSTORE JUMP JUMPDEST SWAP8 SWAP7 POP POP POP POP POP POP POP JUMP JUMPDEST PUSH0 PUSH2 0x19E6 PUSH2 0x250A JUMP JUMPDEST PUSH1 0x8 SLOAD PUSH1 0xFF AND ISZERO PUSH2 0x1A28 JUMPI PUSH1 0x40 MLOAD PUSH3 0x461BCD PUSH1 0xE5 SHL DUP2 MSTORE PUSH1 0x20 PUSH1 0x4 DUP3 ADD MSTORE PUSH1 0xC PUSH1 0x24 DUP3 ADD MSTORE PUSH12 0x141BDBDB125CD4185D5CD959 PUSH1 0xA2 SHL PUSH1 0x44 DUP3 ADD MSTORE PUSH1 0x64 ADD PUSH2 0x5FF JUMP JUMPDEST PUSH0 DUP6 GT PUSH2 0x1A6F JUMPI PUSH1 0x40 MLOAD PUSH3 0x461BCD PUSH1 0xE5 SHL DUP2 MSTORE PUSH1 0x20 PUSH1 0x4 DUP3 ADD MSTORE PUSH1 0x15 PUSH1 0x24 DUP3 ADD MSTORE PUSH21 0x5072696E636970616C206D757374206265203E203 PUSH1 0x5C SHL PUSH1 0x44 DUP3 ADD MSTORE PUSH1 0x64 ADD PUSH2 0x5FF JUMP JUMPDEST PUSH1 0x64 DUP5 LT ISZERO DUP1 ISZERO PUSH2 0x1A82 JUMPI POP PUSH2 0x1388 DUP5 GT ISZERO JUMPDEST PUSH2 0x1AC6 JUMPI PUSH1 0x40 MLOAD PUSH3 0x461BCD PUSH1 0xE5 SHL DUP2 MSTORE PUSH1 0x20 PUSH1 0x4 DUP3 ADD MSTORE PUSH1 0x15 PUSH1 0x24 DUP3 ADD MSTORE PUSH21 0x496E76616C696420696E7465726573742072617465 PUSH1 0x58 SHL PUSH1 0x44 DUP3 ADD MSTORE PUSH1 0x64 ADD PUSH2 0x5FF JUMP JUMPDEST PUSH3 0x15180 DUP4 LT ISZERO DUP1 ISZERO PUSH2 0x1ADD JUMPI POP PUSH4 0x1E13380 DUP4 GT ISZERO JUMPDEST PUSH2 0x1B1C JUMPI PUSH1 0x40 MLOAD PUSH3 0x461BCD PUSH1 0xE5 SHL DUP2 MSTORE PUSH1 0x20 PUSH1 0x4 DUP3 ADD MSTORE PUSH1 0x10 PUSH1 0x24 DUP3 ADD MSTORE PUSH16 0x24B73B30B634B210323AB930BA34B7B7 PUSH1 0x81 SHL PUSH1 0x44 DUP3 ADD MSTORE PUSH1 0x64 ADD PUSH2 0x5FF JUMP JUMPDEST PUSH1 0x1 PUSH1 0x1 PUSH1 0xA0 SHL SUB DUP7 AND PUSH2 0x1B6D JUMPI PUSH1 0x40 MLOAD PUSH3 0x461BCD PUSH1 0xE5 SHL DUP2 MSTORE PUSH1 0x20 PUSH1 0x4 DUP3 ADD MSTORE PUSH1 0x18 PUSH1 0x24 DUP3 ADD MSTORE PUSH24 0x496E76616C696420626F72726F7765722061646472657373 PUSH1 0x40 SHL PUSH1 0x44 DUP3 ADD MSTORE PUSH1 0x64 ADD PUSH2 0x5FF JUMP JUMPDEST PUSH1 0x1 SLOAD PUSH1 0x40 MLOAD PUSH4 0x7BA53285 PUSH1 0xE0 SHL DUP2 MSTORE PUSH1 0x4 DUP2 ADD DUP10 SWAP1 MSTORE PUSH0 SWAP2 DUP3 SWAP2 DUP3 SWAP2 PUSH1 0x1 PUSH1 0x1 PUSH1 0xA0 SHL SUB AND SWAP1 PUSH4 0x7BA53285 SWAP1 PUSH1 0x24 ADD PUSH1 0x60 PUSH1 0x40 MLOAD DUP1 DUP4 SUB DUP2 DUP7 GAS STATICCALL ISZERO DUP1 ISZERO PUSH2 0x1BB8 JUMPI RETURNDATASIZE PUSH0 DUP1 RETURNDATACOPY RETURNDATASIZE PUSH0 REVERT JUMPDEST POP POP POP POP PUSH1 0x40 MLOAD RETURNDATASIZE PUSH1 0x1F NOT PUSH1 0x1F DUP3 ADD AND DUP3 ADD DUP1 PUSH1 0x40 MSTORE POP DUP2 ADD SWAP1 PUSH2 0x1BDC SWAP2 SWAP1 PUSH2 0x2BA6 JUMP JUMPDEST SWAP3 POP SWAP3 POP SWAP3 POP PUSH0 DUP4 GT PUSH2 0x1C26 JUMPI PUSH1 0x40 MLOAD PUSH3 0x461BCD PUSH1 0xE5 SHL DUP2 MSTORE PUSH1 0x20 PUSH1 0x4 DUP3 ADD MSTORE PUSH1 0x12 PUSH1 0x24 DUP3 ADD MSTORE PUSH18 0x4E6F2076616C6964204143532073636F7265 PUSH1 0x70 SHL PUSH1 0x44 DUP3 ADD MSTORE PUSH1 0x64 ADD PUSH2 0x5FF JUMP JUMPDEST TIMESTAMP DUP2 GT PUSH2 0x1C69 JUMPI PUSH1 0x40 MLOAD PUSH3 0x461BCD PUSH1 0xE5 SHL DUP2 MSTORE PUSH1 0x20 PUSH1 0x4 DUP3 ADD MSTORE PUSH1 0x11 PUSH1 0x24 DUP3 ADD MSTORE PUSH17 0x1050D4C81CD8DBDC9948195E1C1A5C9959 PUSH1 0x7A SHL PUSH1 0x44 DUP3 ADD MSTORE PUSH1 0x64 ADD PUSH2 0x5FF JUMP JUMPDEST PUSH1 0x2 SLOAD PUSH1 0x40 MLOAD PUSH4 0x5FD1A5F5 PUSH1 0xE0 SHL DUP2 MSTORE PUSH1 0x4 DUP2 ADD DUP11 SWAP1 MSTORE PUSH1 0x24 DUP2 ADD DUP6 SWAP1 MSTORE PUSH0 SWAP2 PUSH1 0x1 PUSH1 0x1 PUSH1 0xA0 SHL SUB AND SWAP1 PUSH4 0x5FD1A5F5 SWAP1 PUSH1 0x44 ADD PUSH1 0x20 PUSH1 0x40 MLOAD DUP1 DUP4 SUB DUP2 DUP7 GAS STATICCALL ISZERO DUP1 ISZERO PUSH2 0x1CB7 JUMPI RETURNDATASIZE PUSH0 DUP1 RETURNDATACOPY RETURNDATASIZE PUSH0 REVERT JUMPDEST POP POP POP POP PUSH1 0x40 MLOAD RETURNDATASIZE PUSH1 0x1F NOT PUSH1 0x1F DUP3 ADD AND DUP3 ADD DUP1 PUSH1 0x40 MSTORE POP DUP2 ADD SWAP1 PUSH2 0x1CDB SWAP2 SWAP1 PUSH2 0x2BD1 JUMP JUMPDEST PUSH1 0x2 SLOAD PUSH1 0x40 MLOAD PUSH4 0x52CCCDB3 PUSH1 0xE0 SHL DUP2 MSTORE PUSH1 0x4 DUP2 ADD DUP15 SWAP1 MSTORE PUSH1 0x1 PUSH1 0x1 PUSH1 0xA0 SHL SUB DUP10 DUP2 AND PUSH1 0x24 DUP4 ADD MSTORE PUSH1 0x44 DUP3 ADD DUP5 SWAP1 MSTORE SWAP3 SWAP4 POP SWAP2 AND SWAP1 PUSH4 0x52CCCDB3 SWAP1 PUSH1 0x64 ADD PUSH0 PUSH1 0x40 MLOAD DUP1 DUP4 SUB DUP2 PUSH0 DUP8 DUP1 EXTCODESIZE ISZERO DUP1 ISZERO PUSH2 0x1D2F JUMPI PUSH0 DUP1 REVERT JUMPDEST POP GAS CALL ISZERO DUP1 ISZERO PUSH2 0x1D41 JUMPI RETURNDATASIZE PUSH0 DUP1 RETURNDATACOPY RETURNDATASIZE PUSH0 REVERT JUMPDEST POP PUSH2 0x1D7C SWAP3 POP POP PUSH1 0x1 PUSH1 0x1 PUSH1 0xA0 SHL SUB PUSH32 0x0 AND SWAP1 POP CALLER DUP13 DUP13 PUSH2 0x2632 JUMP JUMPDEST PUSH0 DUP12 DUP2 MSTORE PUSH1 0x7 PUSH1 0x20 MSTORE PUSH1 0x40 DUP2 KECCAK256 DUP1 SLOAD PUSH1 0x1 PUSH1 0x1 PUSH1 0xA0 SHL SUB NOT AND PUSH1 0x1 PUSH1 0x1 PUSH1 0xA0 SHL SUB DUP14 AND OR SWAP1 SSTORE PUSH1 0x3 DUP1 SLOAD SWAP1 SWAP2 SWAP1 PUSH2 0x1DB2 SWAP1 PUSH2 0x2BE8 JUMP JUMPDEST SWAP2 DUP3 SWAP1 SSTORE POP SWAP5 POP TIMESTAMP PUSH0 PUSH2 0x1DC5 DUP10 DUP4 PUSH2 0x2B93 JUMP JUMPDEST SWAP1 POP PUSH1 0x40 MLOAD DUP1 PUSH2 0x1A0 ADD PUSH1 0x40 MSTORE DUP1 DUP9 DUP2 MSTORE PUSH1 0x20 ADD DUP15 DUP2 MSTORE PUSH1 0x20 ADD CALLER PUSH1 0x1 PUSH1 0x1 PUSH1 0xA0 SHL SUB AND DUP2 MSTORE PUSH1 0x20 ADD PUSH32 0x0 PUSH1 0x1 PUSH1 0x1 PUSH1 0xA0 SHL SUB AND DUP2 MSTORE PUSH1 0x20 ADD DUP13 DUP2 MSTORE PUSH1 0x20 ADD DUP12 DUP2 MSTORE PUSH1 0x20 ADD DUP4 DUP2 MSTORE PUSH1 0x20 ADD DUP3 DUP2 MSTORE PUSH1 0x20 ADD DUP10 PUSH1 0x1 PUSH1 0x1 PUSH1 0xA0 SHL SUB AND DUP2 MSTORE PUSH1 0x20 ADD DUP5 DUP2 MSTORE PUSH1 0x20 ADD PUSH0 PUSH1 0x3 DUP2 GT ISZERO PUSH2 0x1E5C JUMPI PUSH2 0x1E5C PUSH2 0x27E5 JUMP JUMPDEST DUP2 MSTORE PUSH0 PUSH1 0x20 DUP1 DUP4 ADD DUP3 SWAP1 MSTORE PUSH1 0x40 SWAP3 DUP4 ADD DUP3 SWAP1 MSTORE DUP11 DUP3 MSTORE PUSH1 0x4 DUP1 DUP3 MSTORE SWAP2 DUP4 SWAP1 KECCAK256 DUP5 MLOAD DUP2 SSTORE SWAP1 DUP5 ADD MLOAD PUSH1 0x1 DUP1 DUP4 ADD SWAP2 SWAP1 SWAP2 SSTORE SWAP3 DUP5 ADD MLOAD PUSH1 0x2 DUP3 ADD DUP1 SLOAD PUSH1 0x1 PUSH1 0x1 PUSH1 0xA0 SHL SUB SWAP3 DUP4 AND PUSH1 0x1 PUSH1 0x1 PUSH1 0xA0 SHL SUB NOT SWAP2 DUP3 AND OR SWAP1 SWAP2 SSTORE PUSH1 0x60 DUP7 ADD MLOAD PUSH1 0x3 DUP1 DUP6 ADD DUP1 SLOAD SWAP3 DUP6 AND SWAP3 DUP5 AND SWAP3 SWAP1 SWAP3 OR SWAP1 SWAP2 SSTORE PUSH1 0x80 DUP8 ADD MLOAD SWAP5 DUP5 ADD SWAP5 SWAP1 SWAP5 SSTORE PUSH1 0xA0 DUP7 ADD MLOAD PUSH1 0x5 DUP5 ADD SSTORE PUSH1 0xC0 DUP7 ADD MLOAD PUSH1 0x6 DUP5 ADD SSTORE PUSH1 0xE0 DUP7 ADD MLOAD PUSH1 0x7 DUP5 ADD SSTORE PUSH2 0x100 DUP7 ADD MLOAD PUSH1 0x8 DUP5 ADD DUP1 SLOAD SWAP2 SWAP1 SWAP4 AND SWAP2 AND OR SWAP1 SSTORE PUSH2 0x120 DUP5 ADD MLOAD PUSH1 0x9 DUP3 ADD SSTORE PUSH2 0x140 DUP5 ADD MLOAD PUSH1 0xA DUP3 ADD DUP1 SLOAD SWAP3 SWAP5 SWAP2 SWAP4 SWAP1 SWAP3 PUSH1 0xFF NOT AND SWAP2 SWAP1 DUP5 SWAP1 DUP2 GT ISZERO PUSH2 0x1F3D JUMPI PUSH2 0x1F3D PUSH2 0x27E5 JUMP JUMPDEST MUL OR SWAP1 SSTORE POP PUSH2 0x160 DUP3 ADD MLOAD DUP2 PUSH1 0xB ADD SSTORE PUSH2 0x180 DUP3 ADD MLOAD DUP2 PUSH1 0xC ADD SSTORE SWAP1 POP POP PUSH1 0x5 PUSH0 DUP15 DUP2 MSTORE PUSH1 0x20 ADD SWAP1 DUP2 MSTORE PUSH1 0x20 ADD PUSH0 KECCAK256 DUP8 SWAP1 DUP1 PUSH1 0x1 DUP2 SLOAD ADD DUP1 DUP3 SSTORE DUP1 SWAP2 POP POP PUSH1 0x1 SWAP1 SUB SWAP1 PUSH0 MSTORE PUSH1 0x20 PUSH0 KECCAK256 ADD PUSH0 SWAP1 SWAP2 SWAP1 SWAP2 SWAP1 SWAP2 POP SSTORE PUSH1 0x6 PUSH0 CALLER PUSH1 0x1 PUSH1 0x1 PUSH1 0xA0 SHL SUB AND PUSH1 0x1 PUSH1 0x1 PUSH1 0xA0 SHL SUB AND DUP2 MSTORE PUSH1 0x20 ADD SWAP1 DUP2 MSTORE PUSH1 0x20 ADD PUSH0 KECCAK256 DUP8 SWAP1 DUP1 PUSH1 0x1 DUP2 SLOAD ADD DUP1 DUP3 SSTORE DUP1 SWAP2 POP POP PUSH1 0x1 SWAP1 SUB SWAP1 PUSH0 MSTORE PUSH1 0x20 PUSH0 KECCAK256 ADD PUSH0 SWAP1 SWAP2 SWAP1 SWAP2 SWAP1 SWAP2 POP SSTORE CALLER PUSH1 0x1 PUSH1 0x1 PUSH1 0xA0 SHL SUB AND DUP14 DUP9 PUSH32 0x807DF2790AA735A9C0345B51179877668A2E45F1B28412F94C73D0D3F57764F4 PUSH32 0x0 DUP16 DUP16 DUP8 DUP16 DUP12 PUSH1 0x40 MLOAD PUSH2 0x203C SWAP7 SWAP6 SWAP5 SWAP4 SWAP3 SWAP2 SWAP1 PUSH2 0x2C00 JUMP JUMPDEST PUSH1 0x40 MLOAD DUP1 SWAP2 SUB SWAP1 LOG4 POP POP POP POP POP POP PUSH2 0x2060 PUSH1 0x1 PUSH0 DUP1 MLOAD PUSH1 0x20 PUSH2 0x2C3C DUP4 CODECOPY DUP2 MLOAD SWAP2 MSTORE SSTORE JUMP JUMPDEST SWAP7 SWAP6 POP POP POP POP POP POP JUMP JUMPDEST PUSH1 0x40 MLOAD PUSH4 0x70A08231 PUSH1 0xE0 SHL DUP2 MSTORE ADDRESS PUSH1 0x4 DUP3 ADD MSTORE PUSH0 SWAP1 PUSH32 0x0 PUSH1 0x1 PUSH1 0x1 PUSH1 0xA0 SHL SUB AND SWAP1 PUSH4 0x70A08231 SWAP1 PUSH1 0x24 ADD PUSH1 0x20 PUSH1 0x40 MLOAD DUP1 DUP4 SUB DUP2 DUP7 GAS STATICCALL ISZERO DUP1 ISZERO PUSH2 0x20CE JUMPI RETURNDATASIZE PUSH0 DUP1 RETURNDATACOPY RETURNDATASIZE PUSH0 REVERT JUMPDEST POP POP POP POP PUSH1 0x40 MLOAD RETURNDATASIZE PUSH1 0x1F NOT PUSH1 0x1F DUP3 ADD AND DUP3 ADD DUP1 PUSH1 0x40 MSTORE POP DUP2 ADD SWAP1 PUSH2 0x20F2 SWAP2 SWAP1 PUSH2 0x2BD1 JUMP JUMPDEST SWAP1 POP SWAP1 JUMP JUMPDEST PUSH1 0x1 PUSH1 0x1 PUSH1 0xA0 SHL SUB DUP2 AND PUSH0 SWAP1 DUP2 MSTORE PUSH1 0x6 PUSH1 0x20 SWAP1 DUP2 MSTORE PUSH1 0x40 SWAP2 DUP3 SWAP1 KECCAK256 DUP1 SLOAD DUP4 MLOAD DUP2 DUP5 MUL DUP2 ADD DUP5 ADD SWAP1 SWAP5 MSTORE DUP1 DUP5 MSTORE PUSH1 0x60 SWAP4 SWAP3 DUP4 ADD DUP3 DUP3 DUP1 ISZERO PUSH2 0xF24 JUMPI PUSH1 0x20 MUL DUP3 ADD SWAP2 SWAP1 PUSH0 MSTORE PUSH1 0x20 PUSH0 KECCAK256 SWAP1 DUP2 SLOAD DUP2 MSTORE PUSH1 0x20 ADD SWAP1 PUSH1 0x1 ADD SWAP1 DUP1 DUP4 GT PUSH2 0xF10 JUMPI POP POP POP POP POP SWAP1 POP SWAP2 SWAP1 POP JUMP JUMPDEST PUSH0 DUP2 DUP2 MSTORE PUSH1 0x4 PUSH1 0x20 MSTORE PUSH1 0x40 DUP2 KECCAK256 DUP1 SLOAD DUP3 SUB PUSH2 0x218B JUMPI PUSH1 0x40 MLOAD PUSH3 0x461BCD PUSH1 0xE5 SHL DUP2 MSTORE PUSH1 0x4 ADD PUSH2 0x5FF SWAP1 PUSH2 0x2AB8 JUMP JUMPDEST PUSH1 0x40 DUP1 MLOAD PUSH2 0x1A0 DUP2 ADD DUP3 MSTORE DUP3 SLOAD DUP2 MSTORE PUSH1 0x1 DUP4 ADD SLOAD PUSH1 0x20 DUP3 ADD MSTORE PUSH1 0x2 DUP4 ADD SLOAD PUSH1 0x1 PUSH1 0x1 PUSH1 0xA0 SHL SUB SWAP1 DUP2 AND SWAP3 DUP3 ADD SWAP3 SWAP1 SWAP3 MSTORE PUSH1 0x3 DUP1 DUP5 ADD SLOAD DUP4 AND PUSH1 0x60 DUP4 ADD MSTORE PUSH1 0x4 DUP5 ADD SLOAD PUSH1 0x80 DUP4 ADD MSTORE PUSH1 0x5 DUP5 ADD SLOAD PUSH1 0xA0 DUP4 ADD MSTORE PUSH1 0x6 DUP5 ADD SLOAD PUSH1 0xC0 DUP4 ADD MSTORE PUSH1 0x7 DUP5 ADD SLOAD PUSH1 0xE0 DUP4 ADD MSTORE PUSH1 0x8 DUP5 ADD SLOAD SWAP1 SWAP3 AND PUSH2 0x100 DUP3 ADD MSTORE PUSH1 0x9 DUP4 ADD SLOAD PUSH2 0x120 DUP3 ADD MSTORE PUSH1 0xA DUP4 ADD SLOAD PUSH2 0x222F SWAP3 DUP5 SWAP2 PUSH2 0x140 DUP5 ADD SWAP2 PUSH1 0xFF SWAP1 SWAP2 AND SWAP1 DUP2 GT ISZERO PUSH2 0x75D JUMPI PUSH2 0x75D PUSH2 0x27E5 JUMP JUMPDEST SWAP4 SWAP3 POP POP POP JUMP JUMPDEST PUSH2 0x223E PUSH2 0x24DE JUMP JUMPDEST PUSH1 0x1 PUSH1 0x1 PUSH1 0xA0 SHL SUB DUP2 AND PUSH2 0x2267 JUMPI PUSH1 0x40 MLOAD PUSH4 0x1E4FBDF7 PUSH1 0xE0 SHL DUP2 MSTORE PUSH0 PUSH1 0x4 DUP3 ADD MSTORE PUSH1 0x24 ADD PUSH2 0x5FF JUMP JUMPDEST PUSH2 0x901 DUP2 PUSH2 0x25E3 JUMP JUMPDEST PUSH2 0x2278 PUSH2 0x250A JUMP JUMPDEST PUSH0 DUP2 DUP2 MSTORE PUSH1 0x4 PUSH1 0x20 MSTORE PUSH1 0x40 DUP2 KECCAK256 DUP1 SLOAD SWAP1 SWAP2 SUB PUSH2 0x22A6 JUMPI PUSH1 0x40 MLOAD PUSH3 0x461BCD PUSH1 0xE5 SHL DUP2 MSTORE PUSH1 0x4 ADD PUSH2 0x5FF SWAP1 PUSH2 0x2AB8 JUMP JUMPDEST PUSH1 0x1 DUP2 ADD SLOAD PUSH0 SWAP1 DUP2 MSTORE PUSH1 0x7 PUSH1 0x20 MSTORE PUSH1 0x40 SWAP1 KECCAK256 SLOAD PUSH1 0x1 PUSH1 0x1 PUSH1 0xA0 SHL SUB AND DUP1 PUSH2 0x230F JUMPI PUSH1 0x40 MLOAD PUSH3 0x461BCD PUSH1 0xE5 SHL DUP2 MSTORE PUSH1 0x20 PUSH1 0x4 DUP3 ADD MSTORE PUSH1 0x18 PUSH1 0x24 DUP3 ADD MSTORE PUSH32 0x426F72726F7765722061646472657373206E6F74207365740000000000000000 PUSH1 0x44 DUP3 ADD MSTORE PUSH1 0x64 ADD PUSH2 0x5FF JUMP JUMPDEST CALLER PUSH1 0x1 PUSH1 0x1 PUSH1 0xA0 SHL SUB DUP3 AND EQ PUSH2 0x2367 JUMPI PUSH1 0x40 MLOAD PUSH3 0x461BCD PUSH1 0xE5 SHL DUP2 MSTORE PUSH1 0x20 PUSH1 0x4 DUP3 ADD MSTORE PUSH1 0x17 PUSH1 0x24 DUP3 ADD MSTORE PUSH32 0x4F6E6C7920626F72726F7765722063616E20636C61696D000000000000000000 PUSH1 0x44 DUP3 ADD MSTORE PUSH1 0x64 ADD PUSH2 0x5FF JUMP JUMPDEST PUSH1 0x40 MLOAD PUSH4 0x70A08231 PUSH1 0xE0 SHL DUP2 MSTORE ADDRESS PUSH1 0x4 DUP3 ADD MSTORE PUSH0 SWAP1 PUSH32 0x0 PUSH1 0x1 PUSH1 0x1 PUSH1 0xA0 SHL SUB AND SWAP1 PUSH4 0x70A08231 SWAP1 PUSH1 0x24 ADD PUSH1 0x20 PUSH1 0x40 MLOAD DUP1 DUP4 SUB DUP2 DUP7 GAS STATICCALL ISZERO DUP1 ISZERO PUSH2 0x23CB JUMPI RETURNDATASIZE PUSH0 DUP1 RETURNDATACOPY RETURNDATASIZE PUSH0 REVERT JUMPDEST POP POP POP POP PUSH1 0x40 MLOAD RETURNDATASIZE PUSH1 0x1F NOT PUSH1 0x1F DUP3 ADD AND DUP3 ADD DUP1 PUSH1 0x40 MSTORE POP DUP2 ADD SWAP1 PUSH2 0x23EF SWAP2 SWAP1 PUSH2 0x2BD1 JUMP JUMPDEST SWAP1 POP DUP3 PUSH1 0x4 ADD SLOAD DUP2 LT ISZERO PUSH2 0x243D JUMPI PUSH1 0x40 MLOAD PUSH3 0x461BCD PUSH1 0xE5 SHL DUP2 MSTORE PUSH1 0x20 PUSH1 0x4 DUP3 ADD MSTORE PUSH1 0x15 PUSH1 0x24 DUP3 ADD MSTORE PUSH21 0x4E6F207072696E636970616C20746F20636C61696D PUSH1 0x58 SHL PUSH1 0x44 DUP3 ADD MSTORE PUSH1 0x64 ADD PUSH2 0x5FF JUMP JUMPDEST PUSH1 0x4 DUP4 ADD SLOAD PUSH2 0x2478 SWAP1 PUSH1 0x1 PUSH1 0x1 PUSH1 0xA0 SHL SUB PUSH32 0x0 AND SWAP1 DUP5 SWAP1 PUSH2 0x25A9 JUMP JUMPDEST DUP2 PUSH1 0x1 PUSH1 0x1 PUSH1 0xA0 SHL SUB AND DUP4 PUSH1 0x1 ADD SLOAD DUP6 PUSH32 0x305492C47E905B34C73435BBC694DC56D75E3DC3A26C6A260D123C98108AC035 DUP7 PUSH1 0x4 ADD SLOAD PUSH1 0x40 MLOAD PUSH2 0x24BD SWAP2 DUP2 MSTORE PUSH1 0x20 ADD SWAP1 JUMP JUMPDEST PUSH1 0x40 MLOAD DUP1 SWAP2 SUB SWAP1 LOG4 POP POP POP PUSH2 0x901 PUSH1 0x1 PUSH0 DUP1 MLOAD PUSH1 0x20 PUSH2 0x2C3C DUP4 CODECOPY DUP2 MLOAD SWAP2 MSTORE SSTORE JUMP JUMPDEST PUSH0 SLOAD PUSH1 0x1 PUSH1 0x1 PUSH1 0xA0 SHL SUB AND CALLER EQ PUSH2 0xA80 JUMPI PUSH1 0x40 MLOAD PUSH4 0x118CDAA7 PUSH1 0xE0 SHL DUP2 MSTORE CALLER PUSH1 0x4 DUP3 ADD MSTORE PUSH1 0x24 ADD PUSH2 0x5FF JUMP JUMPDEST PUSH2 0x2512 PUSH2 0x266E JUMP JUMPDEST PUSH1 0x2 PUSH0 DUP1 MLOAD PUSH1 0x20 PUSH2 0x2C3C DUP4 CODECOPY DUP2 MLOAD SWAP2 MSTORE SSTORE JUMP JUMPDEST PUSH0 DUP1 DUP3 PUSH1 0xE0 ADD MLOAD TIMESTAMP LT PUSH2 0x254D JUMPI DUP3 PUSH1 0xC0 ADD MLOAD DUP4 PUSH1 0xE0 ADD MLOAD PUSH2 0x2546 SWAP2 SWAP1 PUSH2 0x2B44 JUMP JUMPDEST SWAP1 POP PUSH2 0x255F JUMP JUMPDEST PUSH1 0xC0 DUP4 ADD MLOAD PUSH2 0x255C SWAP1 TIMESTAMP PUSH2 0x2B44 JUMP JUMPDEST SWAP1 POP JUMPDEST PUSH0 PUSH5 0x496CEBB800 DUP3 DUP6 PUSH1 0xA0 ADD MLOAD DUP7 PUSH1 0x80 ADD MLOAD PUSH2 0x257B SWAP2 SWAP1 PUSH2 0x2B5D JUMP JUMPDEST PUSH2 0x2585 SWAP2 SWAP1 PUSH2 0x2B5D JUMP JUMPDEST PUSH2 0x258F SWAP2 SWAP1 PUSH2 0x2B74 JUMP JUMPDEST SWAP1 POP DUP1 DUP5 PUSH1 0x80 ADD MLOAD PUSH2 0x25A1 SWAP2 SWAP1 PUSH2 0x2B93 JUMP JUMPDEST SWAP5 SWAP4 POP POP POP POP JUMP JUMPDEST PUSH2 0x25B6 DUP4 DUP4 DUP4 PUSH1 0x1 PUSH2 0x269D JUMP JUMPDEST PUSH2 0x25DE JUMPI PUSH1 0x40 MLOAD PUSH4 0x5274AFE7 PUSH1 0xE0 SHL DUP2 MSTORE PUSH1 0x1 PUSH1 0x1 PUSH1 0xA0 SHL SUB DUP5 AND PUSH1 0x4 DUP3 ADD MSTORE PUSH1 0x24 ADD PUSH2 0x5FF JUMP JUMPDEST POP POP POP JUMP JUMPDEST PUSH0 DUP1 SLOAD PUSH1 0x1 PUSH1 0x1 PUSH1 0xA0 SHL SUB DUP4 DUP2 AND PUSH1 0x1 PUSH1 0x1 PUSH1 0xA0 SHL SUB NOT DUP4 AND DUP2 OR DUP5 SSTORE PUSH1 0x40 MLOAD SWAP2 SWAP1 SWAP3 AND SWAP3 DUP4 SWAP2 PUSH32 0x8BE0079C531659141344CD1FD0A4F28419497F9722A3DAAFE3B4186F6B6457E0 SWAP2 SWAP1 LOG3 POP POP JUMP JUMPDEST PUSH2 0x2640 DUP5 DUP5 DUP5 DUP5 PUSH1 0x1 PUSH2 0x26FF JUMP JUMPDEST PUSH2 0x2668 JUMPI PUSH1 0x40 MLOAD PUSH4 0x5274AFE7 PUSH1 0xE0 SHL DUP2 MSTORE PUSH1 0x1 PUSH1 0x1 PUSH1 0xA0 SHL SUB DUP6 AND PUSH1 0x4 DUP3 ADD MSTORE PUSH1 0x24 ADD PUSH2 0x5FF JUMP JUMPDEST POP POP POP POP JUMP JUMPDEST PUSH0 DUP1 MLOAD PUSH1 0x20 PUSH2 0x2C3C DUP4 CODECOPY DUP2 MLOAD SWAP2 MSTORE SLOAD PUSH1 0x2 SUB PUSH2 0xA80 JUMPI PUSH1 0x40 MLOAD PUSH4 0x3EE5AEB5 PUSH1 0xE0 SHL DUP2 MSTORE PUSH1 0x4 ADD PUSH1 0x40 MLOAD DUP1 SWAP2 SUB SWAP1 REVERT JUMPDEST PUSH1 0x40 MLOAD PUSH4 0xA9059CBB PUSH1 0xE0 SHL PUSH0 DUP2 DUP2 MSTORE PUSH1 0x1 PUSH1 0x1 PUSH1 0xA0 SHL SUB DUP7 AND PUSH1 0x4 MSTORE PUSH1 0x24 DUP6 SWAP1 MSTORE SWAP2 PUSH1 0x20 DUP4 PUSH1 0x44 DUP2 DUP1 DUP12 GAS CALL SWAP3 POP PUSH1 0x1 PUSH0 MLOAD EQ DUP4 AND PUSH2 0x26F3 JUMPI DUP4 DUP4 ISZERO AND ISZERO PUSH2 0x26E7 JUMPI RETURNDATASIZE PUSH0 DUP3 RETURNDATACOPY RETURNDATASIZE DUP2 REVERT JUMPDEST PUSH0 DUP8 EXTCODESIZE GT RETURNDATASIZE ISZERO AND DUP4 AND SWAP3 POP JUMPDEST PUSH1 0x40 MSTORE POP SWAP5 SWAP4 POP POP POP POP JUMP JUMPDEST PUSH1 0x40 MLOAD PUSH4 0x23B872DD PUSH1 0xE0 SHL PUSH0 DUP2 DUP2 MSTORE PUSH1 0x1 PUSH1 0x1 PUSH1 0xA0 SHL SUB DUP8 DUP2 AND PUSH1 0x4 MSTORE DUP7 AND PUSH1 0x24 MSTORE PUSH1 0x44 DUP6 SWAP1 MSTORE SWAP2 PUSH1 0x20 DUP4 PUSH1 0x64 DUP2 DUP1 DUP13 GAS CALL SWAP3 POP PUSH1 0x1 PUSH0 MLOAD EQ DUP4 AND PUSH2 0x275B JUMPI DUP4 DUP4 ISZERO AND ISZERO PUSH2 0x274F JUMPI RETURNDATASIZE PUSH0 DUP3 RETURNDATACOPY RETURNDATASIZE DUP2 REVERT JUMPDEST PUSH0 DUP9 EXTCODESIZE GT RETURNDATASIZE ISZERO AND DUP4 AND SWAP3 POP JUMPDEST PUSH1 0x40 MSTORE POP PUSH0 PUSH1 0x60 MSTORE SWAP6 SWAP5 POP POP POP POP POP JUMP JUMPDEST PUSH0 PUSH1 0x20 DUP3 DUP5 SUB SLT ISZERO PUSH2 0x277C JUMPI PUSH0 DUP1 REVERT JUMPDEST POP CALLDATALOAD SWAP2 SWAP1 POP JUMP JUMPDEST PUSH0 PUSH1 0x20 DUP3 DUP5 SUB SLT ISZERO PUSH2 0x2793 JUMPI PUSH0 DUP1 REVERT JUMPDEST DUP2 CALLDATALOAD DUP1 ISZERO ISZERO DUP2 EQ PUSH2 0x222F JUMPI PUSH0 DUP1 REVERT JUMPDEST DUP1 CALLDATALOAD PUSH1 0x1 PUSH1 0x1 PUSH1 0xA0 SHL SUB DUP2 AND DUP2 EQ PUSH2 0x27B8 JUMPI PUSH0 DUP1 REVERT JUMPDEST SWAP2 SWAP1 POP JUMP JUMPDEST PUSH0 DUP1 PUSH1 0x40 DUP4 DUP6 SUB SLT ISZERO PUSH2 0x27CE JUMPI PUSH0 DUP1 REVERT JUMPDEST PUSH2 0x27D7 DUP4 PUSH2 0x27A2 JUMP JUMPDEST SWAP5 PUSH1 0x20 SWAP4 SWAP1 SWAP4 ADD CALLDATALOAD SWAP4 POP POP POP JUMP JUMPDEST PUSH4 0x4E487B71 PUSH1 0xE0 SHL PUSH0 MSTORE PUSH1 0x21 PUSH1 0x4 MSTORE PUSH1 0x24 PUSH0 REVERT JUMPDEST PUSH1 0x4 DUP2 LT PUSH2 0x2815 JUMPI PUSH4 0x4E487B71 PUSH1 0xE0 SHL PUSH0 MSTORE PUSH1 0x21 PUSH1 0x4 MSTORE PUSH1 0x24 PUSH0 REVERT JUMPDEST SWAP1 MSTORE JUMP JUMPDEST PUSH0 PUSH2 0x1A0 DUP3 ADD SWAP1 POP DUP3 MLOAD DUP3 MSTORE PUSH1 0x20 DUP4 ADD MLOAD PUSH1 0x20 DUP4 ADD MSTORE PUSH1 0x40 DUP4 ADD MLOAD PUSH2 0x2849 PUSH1 0x40 DUP5 ADD DUP3 PUSH1 0x1 PUSH1 0x1 PUSH1 0xA0 SHL SUB AND SWAP1 MSTORE JUMP JUMPDEST POP PUSH1 0x60 DUP4 ADD MLOAD PUSH2 0x2864 PUSH1 0x60 DUP5 ADD DUP3 PUSH1 0x1 PUSH1 0x1 PUSH1 0xA0 SHL SUB AND SWAP1 MSTORE JUMP JUMPDEST POP PUSH1 0x80 DUP4 ADD MLOAD PUSH1 0x80 DUP4 ADD MSTORE PUSH1 0xA0 DUP4 ADD MLOAD PUSH1 0xA0 DUP4 ADD MSTORE PUSH1 0xC0 DUP4 ADD MLOAD PUSH1 0xC0 DUP4 ADD MSTORE PUSH1 0xE0 DUP4 ADD MLOAD PUSH1 0xE0 DUP4 ADD MSTORE PUSH2 0x100 DUP1 DUP5 ADD MLOAD PUSH2 0x28A8 DUP3 DUP6 ADD DUP3 PUSH1 0x1 PUSH1 0x1 PUSH1 0xA0 SHL SUB AND SWAP1 MSTORE JUMP JUMPDEST POP POP PUSH2 0x120 DUP4 DUP2 ADD MLOAD SWAP1 DUP4 ADD MSTORE PUSH2 0x140 DUP1 DUP5 ADD MLOAD PUSH2 0x28C8 DUP3 DUP6 ADD DUP3 PUSH2 0x27F9 JUMP JUMPDEST POP POP PUSH2 0x160 DUP4 DUP2 ADD MLOAD SWAP1 DUP4 ADD MSTORE PUSH2 0x180 SWAP3 DUP4 ADD MLOAD SWAP3 SWAP1 SWAP2 ADD SWAP2 SWAP1 SWAP2 MSTORE SWAP1 JUMP JUMPDEST PUSH0 DUP1 PUSH1 0x40 DUP4 DUP6 SUB SLT ISZERO PUSH2 0x28F8 JUMPI PUSH0 DUP1 REVERT JUMPDEST POP POP DUP1 CALLDATALOAD SWAP3 PUSH1 0x20 SWAP1 SWAP2 ADD CALLDATALOAD SWAP2 POP JUMP JUMPDEST PUSH0 PUSH1 0x20 DUP3 DUP5 SUB SLT ISZERO PUSH2 0x2917 JUMPI PUSH0 DUP1 REVERT JUMPDEST PUSH2 0x222F DUP3 PUSH2 0x27A2 JUMP JUMPDEST PUSH1 0x20 DUP1 DUP3 MSTORE DUP3 MLOAD DUP3 DUP3 ADD DUP2 SWAP1 MSTORE PUSH0 SWAP2 SWAP1 DUP5 DUP3 ADD SWAP1 PUSH1 0x40 DUP6 ADD SWAP1 DUP5 JUMPDEST DUP2 DUP2 LT ISZERO PUSH2 0x2957 JUMPI DUP4 MLOAD DUP4 MSTORE SWAP3 DUP5 ADD SWAP3 SWAP2 DUP5 ADD SWAP2 PUSH1 0x1 ADD PUSH2 0x293B JUMP JUMPDEST POP SWAP1 SWAP7 SWAP6 POP POP POP POP POP POP JUMP JUMPDEST DUP14 DUP2 MSTORE PUSH1 0x20 DUP2 ADD DUP14 SWAP1 MSTORE PUSH1 0x1 PUSH1 0x1 PUSH1 0xA0 SHL SUB DUP13 DUP2 AND PUSH1 0x40 DUP4 ADD MSTORE DUP12 DUP2 AND PUSH1 0x60 DUP4 ADD MSTORE PUSH1 0x80 DUP3 ADD DUP12 SWAP1 MSTORE PUSH1 0xA0 DUP3 ADD DUP11 SWAP1 MSTORE PUSH1 0xC0 DUP3 ADD DUP10 SWAP1 MSTORE PUSH1 0xE0 DUP3 ADD DUP9 SWAP1 MSTORE DUP7 AND PUSH2 0x100 DUP3 ADD MSTORE PUSH2 0x120 DUP2 ADD DUP6 SWAP1 MSTORE PUSH2 0x1A0 DUP2 ADD PUSH2 0x29C4 PUSH2 0x140 DUP4 ADD DUP7 PUSH2 0x27F9 JUMP JUMPDEST PUSH2 0x160 DUP3 ADD SWAP4 SWAP1 SWAP4 MSTORE PUSH2 0x180 ADD MSTORE SWAP12 SWAP11 POP POP POP POP POP POP POP POP POP POP POP JUMP JUMPDEST PUSH0 DUP1 PUSH0 DUP1 PUSH0 DUP1 PUSH0 PUSH1 0xE0 DUP9 DUP11 SUB SLT ISZERO PUSH2 0x29F7 JUMPI PUSH0 DUP1 REVERT JUMPDEST DUP8 CALLDATALOAD SWAP7 POP PUSH2 0x2A07 PUSH1 0x20 DUP10 ADD PUSH2 0x27A2 JUMP JUMPDEST SWAP6 POP PUSH1 0x40 DUP9 ADD CALLDATALOAD SWAP5 POP PUSH1 0x60 DUP9 ADD CALLDATALOAD SWAP4 POP PUSH1 0x80 DUP9 ADD CALLDATALOAD SWAP3 POP PUSH2 0x2A2A PUSH1 0xA0 DUP10 ADD PUSH2 0x27A2 JUMP JUMPDEST SWAP2 POP PUSH1 0xC0 DUP9 ADD CALLDATALOAD SWAP1 POP SWAP3 SWAP6 SWAP9 SWAP2 SWAP5 SWAP8 POP SWAP3 SWAP6 POP JUMP JUMPDEST PUSH0 DUP1 PUSH0 DUP1 PUSH0 DUP1 PUSH1 0xC0 DUP8 DUP10 SUB SLT ISZERO PUSH2 0x2A54 JUMPI PUSH0 DUP1 REVERT JUMPDEST DUP7 CALLDATALOAD SWAP6 POP PUSH2 0x2A64 PUSH1 0x20 DUP9 ADD PUSH2 0x27A2 JUMP JUMPDEST SWAP5 POP PUSH1 0x40 DUP8 ADD CALLDATALOAD SWAP4 POP PUSH1 0x60 DUP8 ADD CALLDATALOAD SWAP3 POP PUSH1 0x80 DUP8 ADD CALLDATALOAD SWAP2 POP PUSH2 0x2A87 PUSH1 0xA0 DUP9 ADD PUSH2 0x27A2 JUMP JUMPDEST SWAP1 POP SWAP3 SWAP6 POP SWAP3 SWAP6 POP SWAP3 SWAP6 JUMP JUMPDEST PUSH1 0x20 DUP1 DUP3 MSTORE PUSH1 0xB SWAP1 DUP3 ADD MSTORE PUSH11 0x141BDBDB081C185D5CD959 PUSH1 0xAA SHL PUSH1 0x40 DUP3 ADD MSTORE PUSH1 0x60 ADD SWAP1 JUMP JUMPDEST PUSH1 0x20 DUP1 DUP3 MSTORE PUSH1 0xE SWAP1 DUP3 ADD MSTORE PUSH14 0x131BD85B881B9BDD08199BDD5B99 PUSH1 0x92 SHL PUSH1 0x40 DUP3 ADD MSTORE PUSH1 0x60 ADD SWAP1 JUMP JUMPDEST PUSH1 0x20 DUP1 DUP3 MSTORE PUSH1 0xF SWAP1 DUP3 ADD MSTORE PUSH15 0x4C6F616E206E6F7420616374697665 PUSH1 0x88 SHL PUSH1 0x40 DUP3 ADD MSTORE PUSH1 0x60 ADD SWAP1 JUMP JUMPDEST SWAP4 DUP5 MSTORE PUSH1 0x1 PUSH1 0x1 PUSH1 0xA0 SHL SUB SWAP3 DUP4 AND PUSH1 0x20 DUP6 ADD MSTORE PUSH1 0x40 DUP5 ADD SWAP2 SWAP1 SWAP2 MSTORE AND PUSH1 0x60 DUP3 ADD MSTORE PUSH1 0x80 ADD SWAP1 JUMP JUMPDEST PUSH4 0x4E487B71 PUSH1 0xE0 SHL PUSH0 MSTORE PUSH1 0x11 PUSH1 0x4 MSTORE PUSH1 0x24 PUSH0 REVERT JUMPDEST DUP2 DUP2 SUB DUP2 DUP2 GT ISZERO PUSH2 0x2B57 JUMPI PUSH2 0x2B57 PUSH2 0x2B30 JUMP JUMPDEST SWAP3 SWAP2 POP POP JUMP JUMPDEST DUP1 DUP3 MUL DUP2 ISZERO DUP3 DUP3 DIV DUP5 EQ OR PUSH2 0x2B57 JUMPI PUSH2 0x2B57 PUSH2 0x2B30 JUMP JUMPDEST PUSH0 DUP3 PUSH2 0x2B8E JUMPI PUSH4 0x4E487B71 PUSH1 0xE0 SHL PUSH0 MSTORE PUSH1 0x12 PUSH1 0x4 MSTORE PUSH1 0x24 PUSH0 REVERT JUMPDEST POP DIV SWAP1 JUMP JUMPDEST DUP1 DUP3 ADD DUP1 DUP3 GT ISZERO PUSH2 0x2B57 JUMPI PUSH2 0x2B57 PUSH2 0x2B30 JUMP JUMPDEST PUSH0 DUP1 PUSH0 PUSH1 0x60 DUP5 DUP7 SUB SLT ISZERO PUSH2 0x2BB8 JUMPI PUSH0 DUP1 REVERT JUMPDEST DUP4 MLOAD SWAP3 POP PUSH1 0x20 DUP5 ADD MLOAD SWAP2 POP PUSH1 0x40 DUP5 ADD MLOAD SWAP1 POP SWAP3 POP SWAP3 POP SWAP3 JUMP JUMPDEST PUSH0 PUSH1 0x20 DUP3 DUP5 SUB SLT ISZERO PUSH2 0x2BE1 JUMPI PUSH0 DUP1 REVERT JUMPDEST POP MLOAD SWAP2 SWAP1 POP JUMP JUMPDEST PUSH0 PUSH1 0x1 DUP3 ADD PUSH2 0x2BF9 JUMPI PUSH2 0x2BF9 PUSH2 0x2B30 JUMP JUMPDEST POP PUSH1 0x1 ADD SWAP1 JUMP JUMPDEST PUSH1 0x1 PUSH1 0x1 PUSH1 0xA0 SHL SUB SWAP7 DUP8 AND DUP2 MSTORE PUSH1 0x20 DUP2 ADD SWAP6 SWAP1 SWAP6 MSTORE PUSH1 0x40 DUP6 ADD SWAP4 SWAP1 SWAP4 MSTORE PUSH1 0x60 DUP5 ADD SWAP2 SWAP1 SWAP2 MSTORE SWAP1 SWAP3 AND PUSH1 0x80 DUP3 ADD MSTORE PUSH1 0xA0 DUP2 ADD SWAP2 SWAP1 SWAP2 MSTORE PUSH1 0xC0 ADD SWAP1 JUMP INVALID SWAP12 PUSH24 0x9B17422D0DF92223018B32B4D1FA46E071723D6817E2486D STOP EXTCODESIZE 0xEC 0xC5 PUSH0 STOP LOG2 PUSH5 0x6970667358 0x22 SLT KECCAK256 SWAP9 TSTORE 0xD1 0xD0 0x1E 0xBC 0xE3 CREATE2 0xE1 SWAP9 0x1F STATICCALL SWAP16 CALLER CALLDATALOAD LOG0 0xE3 SWAP9 SWAP5 SWAP13 MSIZE GASLIMIT EXTCODEHASH 0xE5 0xB8 PUSH22 0x32B6E6F23E64736F6C634300081800330000000000 "},"methodIdentifiers":{"LIQUIDATION_PENALTY_BPS()":"fc54ddfb","LIQUIDATION_THRESHOLD_BPS()":"0c6d5a58","MAX_INTEREST_RATE_BPS()":"709ae441","MAX_LOAN_DURATION()":"0d0b2ca6","MIN_INTEREST_RATE_BPS()":"b71aa4d5","MIN_LOAN_DURATION()":"89d99a05","PROTOCOL_FEE_BPS()":"be378228","acsOracle()":"467bdc04","baseToken()":"c55dae63","borrowerAddresses(bytes32)":"bc6829b1","borrowerLoans(bytes32,uint256)":"74a49997","claimPrincipal(uint256)":"f9af0579","collateralManager()":"23be345c","createLoan(bytes32,address,uint256,uint256,uint256,address)":"e8cf681b","createLoanWithCollateral(bytes32,address,uint256,uint256,uint256,address,uint256)":"e2460477","emergencyWithdraw(address,uint256)":"95ccea67","getBaseTokenBalance()":"ea7db131","getBorrowerAddress(bytes32)":"035b209d","getBorrowerLoans(bytes32)":"be5c6a64","getLenderLoans(address)":"eeeb0c17","getLoan(uint256)":"504006ca","getOutstanding(uint256)":"f1d0ef81","handleDefault(uint256)":"4af37b23","lenderLoans(address,uint256)":"3cdb72f1","liquidateLoan(uint256)":"ccdd9f5d","loanCounter()":"34d9289e","loans(uint256)":"e1ec3c68","owner()":"8da5cb5b","paused()":"5c975abb","renounceOwnership()":"715018a6","repayLoan(uint256)":"ab7b1c89","setACSOracle(address)":"ccc855f6","setCollateralManager(address)":"842a05d4","setPaused(bool)":"16c38b3c","transferOwnership(address)":"f2fde38b"}}}}}